{
  "_format": "hh-sol-artifact-1",
  "contractName": "NFTTest",
  "sourceName": "contracts/NFTTest.sol",
  "abi": [
    {
      "inputs": [],
      "stateMutability": "nonpayable",
      "type": "constructor"
    },
    {
      "anonymous": false,
      "inputs": [
        {
          "indexed": true,
          "internalType": "address",
          "name": "owner",
          "type": "address"
        },
        {
          "indexed": true,
          "internalType": "address",
          "name": "approved",
          "type": "address"
        },
        {
          "indexed": true,
          "internalType": "uint256",
          "name": "tokenId",
          "type": "uint256"
        }
      ],
      "name": "Approval",
      "type": "event"
    },
    {
      "anonymous": false,
      "inputs": [
        {
          "indexed": true,
          "internalType": "address",
          "name": "owner",
          "type": "address"
        },
        {
          "indexed": true,
          "internalType": "address",
          "name": "operator",
          "type": "address"
        },
        {
          "indexed": false,
          "internalType": "bool",
          "name": "approved",
          "type": "bool"
        }
      ],
      "name": "ApprovalForAll",
      "type": "event"
    },
    {
      "anonymous": false,
      "inputs": [
        {
          "indexed": true,
          "internalType": "address",
          "name": "previousOwner",
          "type": "address"
        },
        {
          "indexed": true,
          "internalType": "address",
          "name": "newOwner",
          "type": "address"
        }
      ],
      "name": "OwnershipTransferred",
      "type": "event"
    },
    {
      "anonymous": false,
      "inputs": [
        {
          "indexed": true,
          "internalType": "address",
          "name": "from",
          "type": "address"
        },
        {
          "indexed": true,
          "internalType": "address",
          "name": "to",
          "type": "address"
        },
        {
          "indexed": true,
          "internalType": "uint256",
          "name": "tokenId",
          "type": "uint256"
        }
      ],
      "name": "Transfer",
      "type": "event"
    },
    {
      "inputs": [
        {
          "internalType": "uint256",
          "name": "tokenId",
          "type": "uint256"
        }
      ],
      "name": "Burn",
      "outputs": [],
      "stateMutability": "nonpayable",
      "type": "function"
    },
    {
      "inputs": [
        {
          "internalType": "address",
          "name": "to",
          "type": "address"
        }
      ],
      "name": "Mint",
      "outputs": [],
      "stateMutability": "nonpayable",
      "type": "function"
    },
    {
      "inputs": [
        {
          "internalType": "address",
          "name": "to",
          "type": "address"
        },
        {
          "internalType": "uint256",
          "name": "tokenId",
          "type": "uint256"
        }
      ],
      "name": "approve",
      "outputs": [],
      "stateMutability": "nonpayable",
      "type": "function"
    },
    {
      "inputs": [
        {
          "internalType": "address",
          "name": "owner",
          "type": "address"
        }
      ],
      "name": "balanceOf",
      "outputs": [
        {
          "internalType": "uint256",
          "name": "",
          "type": "uint256"
        }
      ],
      "stateMutability": "view",
      "type": "function"
    },
    {
      "inputs": [],
      "name": "baseTokenURI",
      "outputs": [
        {
          "internalType": "string",
          "name": "",
          "type": "string"
        }
      ],
      "stateMutability": "view",
      "type": "function"
    },
    {
      "inputs": [
        {
          "internalType": "address",
          "name": "owner_",
          "type": "address"
        },
        {
          "internalType": "uint256",
          "name": "subClass",
          "type": "uint256"
        }
      ],
      "name": "craft",
      "outputs": [
        {
          "internalType": "uint256",
          "name": "",
          "type": "uint256"
        }
      ],
      "stateMutability": "nonpayable",
      "type": "function"
    },
    {
      "inputs": [
        {
          "internalType": "address",
          "name": "owner_",
          "type": "address"
        },
        {
          "internalType": "uint256",
          "name": "class_",
          "type": "uint256"
        },
        {
          "internalType": "uint256",
          "name": "subclass_",
          "type": "uint256"
        },
        {
          "internalType": "uint256",
          "name": "location_",
          "type": "uint256"
        },
        {
          "internalType": "uint16[10]",
          "name": "props_",
          "type": "uint16[10]"
        },
        {
          "internalType": "uint8",
          "name": "slots_",
          "type": "uint8"
        },
        {
          "internalType": "uint256",
          "name": "count_",
          "type": "uint256"
        },
        {
          "internalType": "string",
          "name": "image_",
          "type": "string"
        },
        {
          "internalType": "string",
          "name": "dynamic_",
          "type": "string"
        }
      ],
      "name": "craft",
      "outputs": [
        {
          "internalType": "uint256",
          "name": "",
          "type": "uint256"
        }
      ],
      "stateMutability": "nonpayable",
      "type": "function"
    },
    {
      "inputs": [
        {
          "internalType": "uint256",
          "name": "tokenId",
          "type": "uint256"
        }
      ],
      "name": "getApproved",
      "outputs": [
        {
          "internalType": "address",
          "name": "",
          "type": "address"
        }
      ],
      "stateMutability": "view",
      "type": "function"
    },
    {
      "inputs": [
        {
          "internalType": "uint256",
          "name": "",
          "type": "uint256"
        }
      ],
      "name": "getPrice",
      "outputs": [
        {
          "internalType": "uint256",
          "name": "",
          "type": "uint256"
        }
      ],
      "stateMutability": "pure",
      "type": "function"
    },
    {
      "inputs": [
        {
          "internalType": "address",
          "name": "owner",
          "type": "address"
        },
        {
          "internalType": "address",
          "name": "operator",
          "type": "address"
        }
      ],
      "name": "isApprovedForAll",
      "outputs": [
        {
          "internalType": "bool",
          "name": "",
          "type": "bool"
        }
      ],
      "stateMutability": "view",
      "type": "function"
    },
    {
      "inputs": [],
      "name": "name",
      "outputs": [
        {
          "internalType": "string",
          "name": "",
          "type": "string"
        }
      ],
      "stateMutability": "view",
      "type": "function"
    },
    {
      "inputs": [],
      "name": "owner",
      "outputs": [
        {
          "internalType": "address",
          "name": "",
          "type": "address"
        }
      ],
      "stateMutability": "view",
      "type": "function"
    },
    {
      "inputs": [
        {
          "internalType": "uint256",
          "name": "tokenId",
          "type": "uint256"
        }
      ],
      "name": "ownerOf",
      "outputs": [
        {
          "internalType": "address",
          "name": "",
          "type": "address"
        }
      ],
      "stateMutability": "view",
      "type": "function"
    },
    {
      "inputs": [],
      "name": "renounceOwnership",
      "outputs": [],
      "stateMutability": "nonpayable",
      "type": "function"
    },
    {
      "inputs": [
        {
          "internalType": "address",
          "name": "from",
          "type": "address"
        },
        {
          "internalType": "address",
          "name": "to",
          "type": "address"
        },
        {
          "internalType": "uint256",
          "name": "tokenId",
          "type": "uint256"
        }
      ],
      "name": "safeTransferFrom",
      "outputs": [],
      "stateMutability": "nonpayable",
      "type": "function"
    },
    {
      "inputs": [
        {
          "internalType": "address",
          "name": "from",
          "type": "address"
        },
        {
          "internalType": "address",
          "name": "to",
          "type": "address"
        },
        {
          "internalType": "uint256",
          "name": "tokenId",
          "type": "uint256"
        },
        {
          "internalType": "bytes",
          "name": "data",
          "type": "bytes"
        }
      ],
      "name": "safeTransferFrom",
      "outputs": [],
      "stateMutability": "nonpayable",
      "type": "function"
    },
    {
      "inputs": [
        {
          "internalType": "address",
          "name": "operator",
          "type": "address"
        },
        {
          "internalType": "bool",
          "name": "approved",
          "type": "bool"
        }
      ],
      "name": "setApprovalForAll",
      "outputs": [],
      "stateMutability": "nonpayable",
      "type": "function"
    },
    {
      "inputs": [
        {
          "internalType": "string",
          "name": "baseURI",
          "type": "string"
        }
      ],
      "name": "setBaseURI",
      "outputs": [],
      "stateMutability": "nonpayable",
      "type": "function"
    },
    {
      "inputs": [
        {
          "internalType": "bytes4",
          "name": "interfaceId",
          "type": "bytes4"
        }
      ],
      "name": "supportsInterface",
      "outputs": [
        {
          "internalType": "bool",
          "name": "",
          "type": "bool"
        }
      ],
      "stateMutability": "view",
      "type": "function"
    },
    {
      "inputs": [],
      "name": "symbol",
      "outputs": [
        {
          "internalType": "string",
          "name": "",
          "type": "string"
        }
      ],
      "stateMutability": "view",
      "type": "function"
    },
    {
      "inputs": [
        {
          "internalType": "uint256",
          "name": "tokenId",
          "type": "uint256"
        }
      ],
      "name": "tokenURI",
      "outputs": [
        {
          "internalType": "string",
          "name": "",
          "type": "string"
        }
      ],
      "stateMutability": "view",
      "type": "function"
    },
    {
      "inputs": [
        {
          "internalType": "address",
          "name": "from",
          "type": "address"
        },
        {
          "internalType": "address",
          "name": "to",
          "type": "address"
        },
        {
          "internalType": "uint256",
          "name": "tokenId",
          "type": "uint256"
        }
      ],
      "name": "transferFrom",
      "outputs": [],
      "stateMutability": "nonpayable",
      "type": "function"
    },
    {
      "inputs": [
        {
          "internalType": "address",
          "name": "newOwner",
          "type": "address"
        }
      ],
      "name": "transferOwnership",
      "outputs": [],
      "stateMutability": "nonpayable",
      "type": "function"
    }
  ],
  "bytecode": "0x60806040523480156200001157600080fd5b50604080518082018252600a81526914d85b5c1b194813919560b21b60208083019182528351808501909452600384526213919560ea1b908401528151919291839183916200006391600091620000f9565b50805162000079906001906020840190620000f9565b5050506200009662000090620000a360201b60201c565b620000a7565b50506001600755620001dc565b3390565b600680546001600160a01b038381166001600160a01b0319831681179093556040519116919082907f8be0079c531659141344cd1fd0a4f28419497f9722a3daafe3b4186f6b6457e090600090a35050565b82805462000107906200019f565b90600052602060002090601f0160209004810192826200012b576000855562000176565b82601f106200014657805160ff191683800117855562000176565b8280016001018555821562000176579182015b828111156200017657825182559160200191906001019062000159565b506200018492915062000188565b5090565b5b8082111562000184576000815560010162000189565b600181811c90821680620001b457607f821691505b60208210811415620001d657634e487b7160e01b600052602260045260246000fd5b50919050565b61189a80620001ec6000396000f3fe608060405234801561001057600080fd5b506004361061014d5760003560e01c80638da5cb5b116100c3578063c87b56dd1161007c578063c87b56dd146102bc578063d547cfb7146102cf578063e7572230146102d7578063e985e9c5146102f3578063ec6e373f1461032f578063f2fde38b1461034257600080fd5b80638da5cb5b1461025757806395d89b4114610268578063a22cb46514610270578063b88d4fde14610283578063b90306ad14610296578063c1d942c1146102a957600080fd5b80633c3284d1116101155780633c3284d1146101e257806342842e0e146101f557806355f804b3146102085780636352211e1461021b57806370a082311461022e578063715018a61461024f57600080fd5b806301ffc9a71461015257806306fdde031461017a578063081812fc1461018f578063095ea7b3146101ba57806323b872dd146101cf575b600080fd5b6101656101603660046114e3565b610355565b60405190151581526020015b60405180910390f35b6101826103a7565b6040516101719190611640565b6101a261019d36600461158f565b610439565b6040516001600160a01b039091168152602001610171565b6101cd6101c83660046113a3565b610460565b005b6101cd6101dd3660046112af565b61057b565b6101cd6101f0366004611261565b6105ac565b6101cd6102033660046112af565b6105c1565b6101cd61021636600461151d565b6105dc565b6101a261022936600461158f565b6105f0565b61024161023c366004611261565b610650565b604051908152602001610171565b6101cd6106d6565b6006546001600160a01b03166101a2565b6101826106ea565b6101cd61027e366004611367565b6106f9565b6101cd6102913660046112eb565b610704565b6101cd6102a436600461158f565b61073c565b6102416102b73660046113a3565b610750565b6101826102ca36600461158f565b610762565b6101826107c8565b6102416102e536600461158f565b5068056bc75e2d6310000090565b61016561030136600461127c565b6001600160a01b03918216600090815260056020908152604080832093909416825291909152205460ff1690565b61024161033d3660046113cd565b6107d7565b6101cd610350366004611261565b6107f0565b60006001600160e01b031982166380ac58cd60e01b148061038657506001600160e01b03198216635b5e139f60e01b145b806103a157506301ffc9a760e01b6001600160e01b03198316145b92915050565b6060600080546103b69061178c565b80601f01602080910402602001604051908101604052809291908181526020018280546103e29061178c565b801561042f5780601f106104045761010080835404028352916020019161042f565b820191906000526020600020905b81548152906001019060200180831161041257829003601f168201915b5050505050905090565b600061044482610866565b506000908152600460205260409020546001600160a01b031690565b600061046b826105f0565b9050806001600160a01b0316836001600160a01b031614156104de5760405162461bcd60e51b815260206004820152602160248201527f4552433732313a20617070726f76616c20746f2063757272656e74206f776e656044820152603960f91b60648201526084015b60405180910390fd5b336001600160a01b03821614806104fa57506104fa8133610301565b61056c5760405162461bcd60e51b815260206004820152603e60248201527f4552433732313a20617070726f76652063616c6c6572206973206e6f7420746f60448201527f6b656e206f776e6572206e6f7220617070726f76656420666f7220616c6c000060648201526084016104d5565b61057683836108c5565b505050565b6105853382610933565b6105a15760405162461bcd60e51b81526004016104d5906116a5565b6105768383836109b2565b6105b4610b4e565b6105bd81610ba8565b5050565b61057683838360405180602001604052806000815250610704565b6105e4610b4e565b6105766008838361110a565b6000818152600260205260408120546001600160a01b0316806103a15760405162461bcd60e51b8152602060048201526018602482015277115490cdcc8c4e881a5b9d985b1a59081d1bdad95b88125160421b60448201526064016104d5565b60006001600160a01b0382166106ba5760405162461bcd60e51b815260206004820152602960248201527f4552433732313a2061646472657373207a65726f206973206e6f7420612076616044820152683634b21037bbb732b960b91b60648201526084016104d5565b506001600160a01b031660009081526003602052604090205490565b6106de610b4e565b6106e86000610bce565b565b6060600180546103b69061178c565b6105bd338383610c20565b61070e3383610933565b61072a5760405162461bcd60e51b81526004016104d5906116a5565b61073684848484610cef565b50505050565b610744610b4e565b61074d81610d22565b50565b600061075b83610ba8565b9392505050565b606061076d82610866565b60006107776107c8565b90506000815111610797576040518060200160405280600081525061075b565b806107a184610dbd565b6040516020016107b29291906115d4565b6040516020818303038152906040529392505050565b6060600880546103b69061178c565b60006107e28a610ba8565b9a9950505050505050505050565b6107f8610b4e565b6001600160a01b03811661085d5760405162461bcd60e51b815260206004820152602660248201527f4f776e61626c653a206e6577206f776e657220697320746865207a65726f206160448201526564647265737360d01b60648201526084016104d5565b61074d81610bce565b6000818152600260205260409020546001600160a01b031661074d5760405162461bcd60e51b8152602060048201526018602482015277115490cdcc8c4e881a5b9d985b1a59081d1bdad95b88125160421b60448201526064016104d5565b600081815260046020526040902080546001600160a01b0319166001600160a01b03841690811790915581906108fa826105f0565b6001600160a01b03167f8c5be1e5ebec7d5bd14f71427d1e84f3dd0314c0f7b2291e5b200ac8c7c3b92560405160405180910390a45050565b60008061093f836105f0565b9050806001600160a01b0316846001600160a01b0316148061098657506001600160a01b0380821660009081526005602090815260408083209388168352929052205460ff165b806109aa5750836001600160a01b031661099f84610439565b6001600160a01b0316145b949350505050565b826001600160a01b03166109c5826105f0565b6001600160a01b031614610a295760405162461bcd60e51b815260206004820152602560248201527f4552433732313a207472616e736665722066726f6d20696e636f72726563742060448201526437bbb732b960d91b60648201526084016104d5565b6001600160a01b038216610a8b5760405162461bcd60e51b8152602060048201526024808201527f4552433732313a207472616e7366657220746f20746865207a65726f206164646044820152637265737360e01b60648201526084016104d5565b610a966000826108c5565b6001600160a01b0383166000908152600360205260408120805460019290610abf908490611749565b90915550506001600160a01b0382166000908152600360205260408120805460019290610aed90849061171d565b909155505060008181526002602052604080822080546001600160a01b0319166001600160a01b0386811691821790925591518493918716917fddf252ad1be2c89b69c2b068fc378daa952ba7f163c4a11628f55a4df523b3ef91a4505050565b6006546001600160a01b031633146106e85760405162461bcd60e51b815260206004820181905260248201527f4f776e61626c653a2063616c6c6572206973206e6f7420746865206f776e657260448201526064016104d5565b600780549081906000610bba836117c7565b9190505550610bc98282610ebb565b919050565b600680546001600160a01b038381166001600160a01b0319831681179093556040519116919082907f8be0079c531659141344cd1fd0a4f28419497f9722a3daafe3b4186f6b6457e090600090a35050565b816001600160a01b0316836001600160a01b03161415610c825760405162461bcd60e51b815260206004820152601960248201527f4552433732313a20617070726f766520746f2063616c6c65720000000000000060448201526064016104d5565b6001600160a01b03838116600081815260056020908152604080832094871680845294825291829020805460ff191686151590811790915591519182527f17307eab39ab6107e8899845ad3d59bd9653f200f220920489ca2b5937696c31910160405180910390a3505050565b610cfa8484846109b2565b610d0684848484610ffd565b6107365760405162461bcd60e51b81526004016104d590611653565b6000610d2d826105f0565b9050610d3a6000836108c5565b6001600160a01b0381166000908152600360205260408120805460019290610d63908490611749565b909155505060008281526002602052604080822080546001600160a01b0319169055518391906001600160a01b038416907fddf252ad1be2c89b69c2b068fc378daa952ba7f163c4a11628f55a4df523b3ef908390a45050565b606081610de15750506040805180820190915260018152600360fc1b602082015290565b8160005b8115610e0b5780610df5816117c7565b9150610e049050600a83611735565b9150610de5565b60008167ffffffffffffffff811115610e2657610e26611838565b6040519080825280601f01601f191660200182016040528015610e50576020820181803683370190505b5090505b84156109aa57610e65600183611749565b9150610e72600a866117e2565b610e7d90603061171d565b60f81b818381518110610e9257610e92611822565b60200101906001600160f81b031916908160001a905350610eb4600a86611735565b9450610e54565b6001600160a01b038216610f115760405162461bcd60e51b815260206004820181905260248201527f4552433732313a206d696e7420746f20746865207a65726f206164647265737360448201526064016104d5565b6000818152600260205260409020546001600160a01b031615610f765760405162461bcd60e51b815260206004820152601c60248201527f4552433732313a20746f6b656e20616c7265616479206d696e7465640000000060448201526064016104d5565b6001600160a01b0382166000908152600360205260408120805460019290610f9f90849061171d565b909155505060008181526002602052604080822080546001600160a01b0319166001600160a01b03861690811790915590518392907fddf252ad1be2c89b69c2b068fc378daa952ba7f163c4a11628f55a4df523b3ef908290a45050565b60006001600160a01b0384163b156110ff57604051630a85bd0160e11b81526001600160a01b0385169063150b7a0290611041903390899088908890600401611603565b602060405180830381600087803b15801561105b57600080fd5b505af192505050801561108b575060408051601f3d908101601f1916820190925261108891810190611500565b60015b6110e5573d8080156110b9576040519150601f19603f3d011682016040523d82523d6000602084013e6110be565b606091505b5080516110dd5760405162461bcd60e51b81526004016104d590611653565b805181602001fd5b6001600160e01b031916630a85bd0160e11b1490506109aa565b506001949350505050565b8280546111169061178c565b90600052602060002090601f016020900481019282611138576000855561117e565b82601f106111515782800160ff1982351617855561117e565b8280016001018555821561117e579182015b8281111561117e578235825591602001919060010190611163565b5061118a92915061118e565b5090565b5b8082111561118a576000815560010161118f565b600067ffffffffffffffff808411156111be576111be611838565b604051601f8501601f19908116603f011681019082821181831017156111e6576111e6611838565b816040528093508581528686860111156111ff57600080fd5b858560208301376000602087830101525050509392505050565b80356001600160a01b0381168114610bc957600080fd5b600082601f83011261124157600080fd5b61075b838335602085016111a3565b803560ff81168114610bc957600080fd5b60006020828403121561127357600080fd5b61075b82611219565b6000806040838503121561128f57600080fd5b61129883611219565b91506112a660208401611219565b90509250929050565b6000806000606084860312156112c457600080fd5b6112cd84611219565b92506112db60208501611219565b9150604084013590509250925092565b6000806000806080858703121561130157600080fd5b61130a85611219565b935061131860208601611219565b925060408501359150606085013567ffffffffffffffff81111561133b57600080fd5b8501601f8101871361134c57600080fd5b61135b878235602084016111a3565b91505092959194509250565b6000806040838503121561137a57600080fd5b61138383611219565b91506020830135801515811461139857600080fd5b809150509250929050565b600080604083850312156113b657600080fd5b6113bf83611219565b946020939093013593505050565b60008060008060008060008060006102408a8c0312156113ec57600080fd5b6113f58a611219565b98506020808b0135985060408b0135975060608b013596508b609f8c011261141c57600080fd5b6114246116f3565b8060808d016101c08e018f81111561143b57600080fd5b60005b600a81101561146b57823561ffff8116811461145957600080fd5b8552938501939185019160010161143e565b5082995061147881611250565b985050505050506101e08a013592506102008a013567ffffffffffffffff808211156114a357600080fd5b6114af8d838e01611230565b93506102208c01359150808211156114c657600080fd5b506114d38c828d01611230565b9150509295985092959850929598565b6000602082840312156114f557600080fd5b813561075b8161184e565b60006020828403121561151257600080fd5b815161075b8161184e565b6000806020838503121561153057600080fd5b823567ffffffffffffffff8082111561154857600080fd5b818501915085601f83011261155c57600080fd5b81358181111561156b57600080fd5b86602082850101111561157d57600080fd5b60209290920196919550909350505050565b6000602082840312156115a157600080fd5b5035919050565b600081518084526115c0816020860160208601611760565b601f01601f19169290920160200192915050565b600083516115e6818460208801611760565b8351908301906115fa818360208801611760565b01949350505050565b6001600160a01b0385811682528416602082015260408101839052608060608201819052600090611636908301846115a8565b9695505050505050565b60208152600061075b60208301846115a8565b60208082526032908201527f4552433732313a207472616e7366657220746f206e6f6e20455243373231526560408201527131b2b4bb32b91034b6b83632b6b2b73a32b960711b606082015260800190565b6020808252602e908201527f4552433732313a2063616c6c6572206973206e6f7420746f6b656e206f776e6560408201526d1c881b9bdc88185c1c1c9bdd995960921b606082015260800190565b604051610140810167ffffffffffffffff8111828210171561171757611717611838565b60405290565b60008219821115611730576117306117f6565b500190565b6000826117445761174461180c565b500490565b60008282101561175b5761175b6117f6565b500390565b60005b8381101561177b578181015183820152602001611763565b838111156107365750506000910152565b600181811c908216806117a057607f821691505b602082108114156117c157634e487b7160e01b600052602260045260246000fd5b50919050565b60006000198214156117db576117db6117f6565b5060010190565b6000826117f1576117f161180c565b500690565b634e487b7160e01b600052601160045260246000fd5b634e487b7160e01b600052601260045260246000fd5b634e487b7160e01b600052603260045260246000fd5b634e487b7160e01b600052604160045260246000fd5b6001600160e01b03198116811461074d57600080fdfea2646970667358221220ccf254ec5e64595874e46fd5a1e6752dadda4e3704d179a75c2a5bc12c24f97964736f6c63430008070033",
  "linkReferences": {},
  "deployedLinkReferences": {}
}