{
  "_format": "hh-sol-artifact-1",
  "contractName": "NFTTest",
  "sourceName": "contracts/NFTTest.sol",
  "abi": [
    {
      "inputs": [],
      "stateMutability": "nonpayable",
      "type": "constructor"
    },
    {
      "anonymous": false,
      "inputs": [
        {
          "indexed": true,
          "internalType": "address",
          "name": "owner",
          "type": "address"
        },
        {
          "indexed": true,
          "internalType": "address",
          "name": "approved",
          "type": "address"
        },
        {
          "indexed": true,
          "internalType": "uint256",
          "name": "tokenId",
          "type": "uint256"
        }
      ],
      "name": "Approval",
      "type": "event"
    },
    {
      "anonymous": false,
      "inputs": [
        {
          "indexed": true,
          "internalType": "address",
          "name": "owner",
          "type": "address"
        },
        {
          "indexed": true,
          "internalType": "address",
          "name": "operator",
          "type": "address"
        },
        {
          "indexed": false,
          "internalType": "bool",
          "name": "approved",
          "type": "bool"
        }
      ],
      "name": "ApprovalForAll",
      "type": "event"
    },
    {
      "anonymous": false,
      "inputs": [
        {
          "indexed": true,
          "internalType": "address",
          "name": "previousOwner",
          "type": "address"
        },
        {
          "indexed": true,
          "internalType": "address",
          "name": "newOwner",
          "type": "address"
        }
      ],
      "name": "OwnershipTransferred",
      "type": "event"
    },
    {
      "anonymous": false,
      "inputs": [
        {
          "indexed": true,
          "internalType": "address",
          "name": "from",
          "type": "address"
        },
        {
          "indexed": true,
          "internalType": "address",
          "name": "to",
          "type": "address"
        },
        {
          "indexed": true,
          "internalType": "uint256",
          "name": "tokenId",
          "type": "uint256"
        }
      ],
      "name": "Transfer",
      "type": "event"
    },
    {
      "inputs": [
        {
          "internalType": "uint256",
          "name": "tokenId",
          "type": "uint256"
        }
      ],
      "name": "Burn",
      "outputs": [],
      "stateMutability": "nonpayable",
      "type": "function"
    },
    {
      "inputs": [
        {
          "internalType": "address",
          "name": "to",
          "type": "address"
        }
      ],
      "name": "Mint",
      "outputs": [],
      "stateMutability": "nonpayable",
      "type": "function"
    },
    {
      "inputs": [
        {
          "internalType": "address",
          "name": "to",
          "type": "address"
        },
        {
          "internalType": "uint256",
          "name": "tokenId",
          "type": "uint256"
        }
      ],
      "name": "approve",
      "outputs": [],
      "stateMutability": "nonpayable",
      "type": "function"
    },
    {
      "inputs": [
        {
          "internalType": "address",
          "name": "owner",
          "type": "address"
        }
      ],
      "name": "balanceOf",
      "outputs": [
        {
          "internalType": "uint256",
          "name": "",
          "type": "uint256"
        }
      ],
      "stateMutability": "view",
      "type": "function"
    },
    {
      "inputs": [],
      "name": "baseTokenURI",
      "outputs": [
        {
          "internalType": "string",
          "name": "",
          "type": "string"
        }
      ],
      "stateMutability": "view",
      "type": "function"
    },
    {
      "inputs": [
        {
          "internalType": "uint256",
          "name": "tokenId",
          "type": "uint256"
        }
      ],
      "name": "getApproved",
      "outputs": [
        {
          "internalType": "address",
          "name": "",
          "type": "address"
        }
      ],
      "stateMutability": "view",
      "type": "function"
    },
    {
      "inputs": [
        {
          "internalType": "uint256",
          "name": "",
          "type": "uint256"
        }
      ],
      "name": "getPrice",
      "outputs": [
        {
          "internalType": "uint256",
          "name": "",
          "type": "uint256"
        }
      ],
      "stateMutability": "pure",
      "type": "function"
    },
    {
      "inputs": [
        {
          "internalType": "address",
          "name": "owner",
          "type": "address"
        },
        {
          "internalType": "address",
          "name": "operator",
          "type": "address"
        }
      ],
      "name": "isApprovedForAll",
      "outputs": [
        {
          "internalType": "bool",
          "name": "",
          "type": "bool"
        }
      ],
      "stateMutability": "view",
      "type": "function"
    },
    {
      "inputs": [],
      "name": "name",
      "outputs": [
        {
          "internalType": "string",
          "name": "",
          "type": "string"
        }
      ],
      "stateMutability": "view",
      "type": "function"
    },
    {
      "inputs": [],
      "name": "owner",
      "outputs": [
        {
          "internalType": "address",
          "name": "",
          "type": "address"
        }
      ],
      "stateMutability": "view",
      "type": "function"
    },
    {
      "inputs": [
        {
          "internalType": "uint256",
          "name": "tokenId",
          "type": "uint256"
        }
      ],
      "name": "ownerOf",
      "outputs": [
        {
          "internalType": "address",
          "name": "",
          "type": "address"
        }
      ],
      "stateMutability": "view",
      "type": "function"
    },
    {
      "inputs": [],
      "name": "renounceOwnership",
      "outputs": [],
      "stateMutability": "nonpayable",
      "type": "function"
    },
    {
      "inputs": [
        {
          "internalType": "address",
          "name": "from",
          "type": "address"
        },
        {
          "internalType": "address",
          "name": "to",
          "type": "address"
        },
        {
          "internalType": "uint256",
          "name": "tokenId",
          "type": "uint256"
        }
      ],
      "name": "safeTransferFrom",
      "outputs": [],
      "stateMutability": "nonpayable",
      "type": "function"
    },
    {
      "inputs": [
        {
          "internalType": "address",
          "name": "from",
          "type": "address"
        },
        {
          "internalType": "address",
          "name": "to",
          "type": "address"
        },
        {
          "internalType": "uint256",
          "name": "tokenId",
          "type": "uint256"
        },
        {
          "internalType": "bytes",
          "name": "data",
          "type": "bytes"
        }
      ],
      "name": "safeTransferFrom",
      "outputs": [],
      "stateMutability": "nonpayable",
      "type": "function"
    },
    {
      "inputs": [
        {
          "internalType": "address",
          "name": "operator",
          "type": "address"
        },
        {
          "internalType": "bool",
          "name": "approved",
          "type": "bool"
        }
      ],
      "name": "setApprovalForAll",
      "outputs": [],
      "stateMutability": "nonpayable",
      "type": "function"
    },
    {
      "inputs": [
        {
          "internalType": "string",
          "name": "baseURI",
          "type": "string"
        }
      ],
      "name": "setBaseURI",
      "outputs": [],
      "stateMutability": "nonpayable",
      "type": "function"
    },
    {
      "inputs": [
        {
          "internalType": "bytes4",
          "name": "interfaceId",
          "type": "bytes4"
        }
      ],
      "name": "supportsInterface",
      "outputs": [
        {
          "internalType": "bool",
          "name": "",
          "type": "bool"
        }
      ],
      "stateMutability": "view",
      "type": "function"
    },
    {
      "inputs": [],
      "name": "symbol",
      "outputs": [
        {
          "internalType": "string",
          "name": "",
          "type": "string"
        }
      ],
      "stateMutability": "view",
      "type": "function"
    },
    {
      "inputs": [
        {
          "internalType": "uint256",
          "name": "tokenId",
          "type": "uint256"
        }
      ],
      "name": "tokenURI",
      "outputs": [
        {
          "internalType": "string",
          "name": "",
          "type": "string"
        }
      ],
      "stateMutability": "view",
      "type": "function"
    },
    {
      "inputs": [
        {
          "internalType": "address",
          "name": "from",
          "type": "address"
        },
        {
          "internalType": "address",
          "name": "to",
          "type": "address"
        },
        {
          "internalType": "uint256",
          "name": "tokenId",
          "type": "uint256"
        }
      ],
      "name": "transferFrom",
      "outputs": [],
      "stateMutability": "nonpayable",
      "type": "function"
    },
    {
      "inputs": [
        {
          "internalType": "address",
          "name": "newOwner",
          "type": "address"
        }
      ],
      "name": "transferOwnership",
      "outputs": [],
      "stateMutability": "nonpayable",
      "type": "function"
    }
  ],
  "bytecode": "0x60806040523480156200001157600080fd5b50604080518082018252600a81526914d85b5c1b194813919560b21b60208083019182528351808501909452600384526213919560ea1b908401528151919291839183916200006391600091620000f9565b50805162000079906001906020840190620000f9565b5050506200009662000090620000a360201b60201c565b620000a7565b50506001600755620001dc565b3390565b600680546001600160a01b038381166001600160a01b0319831681179093556040519116919082907f8be0079c531659141344cd1fd0a4f28419497f9722a3daafe3b4186f6b6457e090600090a35050565b82805462000107906200019f565b90600052602060002090601f0160209004810192826200012b576000855562000176565b82601f106200014657805160ff191683800117855562000176565b8280016001018555821562000176579182015b828111156200017657825182559160200191906001019062000159565b506200018492915062000188565b5090565b5b8082111562000184576000815560010162000189565b600181811c90821680620001b457607f821691505b60208210811415620001d657634e487b7160e01b600052602260045260246000fd5b50919050565b6116ad80620001ec6000396000f3fe608060405234801561001057600080fd5b50600436106101375760003560e01c8063715018a6116100b8578063b90306ad1161007c578063b90306ad14610280578063c87b56dd14610293578063d547cfb7146102a6578063e7572230146102ae578063e985e9c5146102ca578063f2fde38b1461030657600080fd5b8063715018a6146102395780638da5cb5b1461024157806395d89b4114610252578063a22cb4651461025a578063b88d4fde1461026d57600080fd5b80633c3284d1116100ff5780633c3284d1146101cc57806342842e0e146101df57806355f804b3146101f25780636352211e1461020557806370a082311461021857600080fd5b806301ffc9a71461013c57806306fdde0314610164578063081812fc14610179578063095ea7b3146101a457806323b872dd146101b9575b600080fd5b61014f61014a366004611320565b610319565b60405190151581526020015b60405180910390f35b61016c61036b565b60405161015b919061147d565b61018c6101873660046113cc565b6103fd565b6040516001600160a01b03909116815260200161015b565b6101b76101b23660046112f6565b610424565b005b6101b76101c73660046111a2565b61053f565b6101b76101da366004611154565b610570565b6101b76101ed3660046111a2565b610585565b6101b761020036600461135a565b6105a0565b61018c6102133660046113cc565b6105b4565b61022b610226366004611154565b610614565b60405190815260200161015b565b6101b761069a565b6006546001600160a01b031661018c565b61016c6106ae565b6101b76102683660046112ba565b6106bd565b6101b761027b3660046111de565b6106c8565b6101b761028e3660046113cc565b610700565b61016c6102a13660046113cc565b610714565b61016c61077b565b61022b6102bc3660046113cc565b5068056bc75e2d6310000090565b61014f6102d836600461116f565b6001600160a01b03918216600090815260056020908152604080832093909416825291909152205460ff1690565b6101b7610314366004611154565b61078a565b60006001600160e01b031982166380ac58cd60e01b148061034a57506001600160e01b03198216635b5e139f60e01b145b8061036557506301ffc9a760e01b6001600160e01b03198316145b92915050565b60606000805461037a9061159f565b80601f01602080910402602001604051908101604052809291908181526020018280546103a69061159f565b80156103f35780601f106103c8576101008083540402835291602001916103f3565b820191906000526020600020905b8154815290600101906020018083116103d657829003601f168201915b5050505050905090565b600061040882610800565b506000908152600460205260409020546001600160a01b031690565b600061042f826105b4565b9050806001600160a01b0316836001600160a01b031614156104a25760405162461bcd60e51b815260206004820152602160248201527f4552433732313a20617070726f76616c20746f2063757272656e74206f776e656044820152603960f91b60648201526084015b60405180910390fd5b336001600160a01b03821614806104be57506104be81336102d8565b6105305760405162461bcd60e51b815260206004820152603e60248201527f4552433732313a20617070726f76652063616c6c6572206973206e6f7420746f60448201527f6b656e206f776e6572206e6f7220617070726f76656420666f7220616c6c00006064820152608401610499565b61053a838361085f565b505050565b61054933826108cd565b6105655760405162461bcd60e51b8152600401610499906114e2565b61053a83838361094c565b610578610ae8565b61058181610b42565b5050565b61053a838383604051806020016040528060008152506106c8565b6105a8610ae8565b61053a600883836110a4565b6000818152600260205260408120546001600160a01b0316806103655760405162461bcd60e51b8152602060048201526018602482015277115490cdcc8c4e881a5b9d985b1a59081d1bdad95b88125160421b6044820152606401610499565b60006001600160a01b03821661067e5760405162461bcd60e51b815260206004820152602960248201527f4552433732313a2061646472657373207a65726f206973206e6f7420612076616044820152683634b21037bbb732b960b91b6064820152608401610499565b506001600160a01b031660009081526003602052604090205490565b6106a2610ae8565b6106ac6000610b68565b565b60606001805461037a9061159f565b610581338383610bba565b6106d233836108cd565b6106ee5760405162461bcd60e51b8152600401610499906114e2565b6106fa84848484610c89565b50505050565b610708610ae8565b61071181610cbc565b50565b606061071f82610800565b600061072961077b565b905060008151116107495760405180602001604052806000815250610774565b8061075384610d57565b604051602001610764929190611411565b6040516020818303038152906040525b9392505050565b60606008805461037a9061159f565b610792610ae8565b6001600160a01b0381166107f75760405162461bcd60e51b815260206004820152602660248201527f4f776e61626c653a206e6577206f776e657220697320746865207a65726f206160448201526564647265737360d01b6064820152608401610499565b61071181610b68565b6000818152600260205260409020546001600160a01b03166107115760405162461bcd60e51b8152602060048201526018602482015277115490cdcc8c4e881a5b9d985b1a59081d1bdad95b88125160421b6044820152606401610499565b600081815260046020526040902080546001600160a01b0319166001600160a01b0384169081179091558190610894826105b4565b6001600160a01b03167f8c5be1e5ebec7d5bd14f71427d1e84f3dd0314c0f7b2291e5b200ac8c7c3b92560405160405180910390a45050565b6000806108d9836105b4565b9050806001600160a01b0316846001600160a01b0316148061092057506001600160a01b0380821660009081526005602090815260408083209388168352929052205460ff165b806109445750836001600160a01b0316610939846103fd565b6001600160a01b0316145b949350505050565b826001600160a01b031661095f826105b4565b6001600160a01b0316146109c35760405162461bcd60e51b815260206004820152602560248201527f4552433732313a207472616e736665722066726f6d20696e636f72726563742060448201526437bbb732b960d91b6064820152608401610499565b6001600160a01b038216610a255760405162461bcd60e51b8152602060048201526024808201527f4552433732313a207472616e7366657220746f20746865207a65726f206164646044820152637265737360e01b6064820152608401610499565b610a3060008261085f565b6001600160a01b0383166000908152600360205260408120805460019290610a5990849061155c565b90915550506001600160a01b0382166000908152600360205260408120805460019290610a87908490611530565b909155505060008181526002602052604080822080546001600160a01b0319166001600160a01b0386811691821790925591518493918716917fddf252ad1be2c89b69c2b068fc378daa952ba7f163c4a11628f55a4df523b3ef91a4505050565b6006546001600160a01b031633146106ac5760405162461bcd60e51b815260206004820181905260248201527f4f776e61626c653a2063616c6c6572206973206e6f7420746865206f776e65726044820152606401610499565b600780549081906000610b54836115da565b9190505550610b638282610e55565b919050565b600680546001600160a01b038381166001600160a01b0319831681179093556040519116919082907f8be0079c531659141344cd1fd0a4f28419497f9722a3daafe3b4186f6b6457e090600090a35050565b816001600160a01b0316836001600160a01b03161415610c1c5760405162461bcd60e51b815260206004820152601960248201527f4552433732313a20617070726f766520746f2063616c6c6572000000000000006044820152606401610499565b6001600160a01b03838116600081815260056020908152604080832094871680845294825291829020805460ff191686151590811790915591519182527f17307eab39ab6107e8899845ad3d59bd9653f200f220920489ca2b5937696c31910160405180910390a3505050565b610c9484848461094c565b610ca084848484610f97565b6106fa5760405162461bcd60e51b815260040161049990611490565b6000610cc7826105b4565b9050610cd460008361085f565b6001600160a01b0381166000908152600360205260408120805460019290610cfd90849061155c565b909155505060008281526002602052604080822080546001600160a01b0319169055518391906001600160a01b038416907fddf252ad1be2c89b69c2b068fc378daa952ba7f163c4a11628f55a4df523b3ef908390a45050565b606081610d7b5750506040805180820190915260018152600360fc1b602082015290565b8160005b8115610da55780610d8f816115da565b9150610d9e9050600a83611548565b9150610d7f565b60008167ffffffffffffffff811115610dc057610dc061164b565b6040519080825280601f01601f191660200182016040528015610dea576020820181803683370190505b5090505b841561094457610dff60018361155c565b9150610e0c600a866115f5565b610e17906030611530565b60f81b818381518110610e2c57610e2c611635565b60200101906001600160f81b031916908160001a905350610e4e600a86611548565b9450610dee565b6001600160a01b038216610eab5760405162461bcd60e51b815260206004820181905260248201527f4552433732313a206d696e7420746f20746865207a65726f20616464726573736044820152606401610499565b6000818152600260205260409020546001600160a01b031615610f105760405162461bcd60e51b815260206004820152601c60248201527f4552433732313a20746f6b656e20616c7265616479206d696e746564000000006044820152606401610499565b6001600160a01b0382166000908152600360205260408120805460019290610f39908490611530565b909155505060008181526002602052604080822080546001600160a01b0319166001600160a01b03861690811790915590518392907fddf252ad1be2c89b69c2b068fc378daa952ba7f163c4a11628f55a4df523b3ef908290a45050565b60006001600160a01b0384163b1561109957604051630a85bd0160e11b81526001600160a01b0385169063150b7a0290610fdb903390899088908890600401611440565b602060405180830381600087803b158015610ff557600080fd5b505af1925050508015611025575060408051601f3d908101601f191682019092526110229181019061133d565b60015b61107f573d808015611053576040519150601f19603f3d011682016040523d82523d6000602084013e611058565b606091505b5080516110775760405162461bcd60e51b815260040161049990611490565b805181602001fd5b6001600160e01b031916630a85bd0160e11b149050610944565b506001949350505050565b8280546110b09061159f565b90600052602060002090601f0160209004810192826110d25760008555611118565b82601f106110eb5782800160ff19823516178555611118565b82800160010185558215611118579182015b828111156111185782358255916020019190600101906110fd565b50611124929150611128565b5090565b5b808211156111245760008155600101611129565b80356001600160a01b0381168114610b6357600080fd5b60006020828403121561116657600080fd5b6107748261113d565b6000806040838503121561118257600080fd5b61118b8361113d565b91506111996020840161113d565b90509250929050565b6000806000606084860312156111b757600080fd5b6111c08461113d565b92506111ce6020850161113d565b9150604084013590509250925092565b600080600080608085870312156111f457600080fd5b6111fd8561113d565b935061120b6020860161113d565b925060408501359150606085013567ffffffffffffffff8082111561122f57600080fd5b818701915087601f83011261124357600080fd5b8135818111156112555761125561164b565b604051601f8201601f19908116603f0116810190838211818310171561127d5761127d61164b565b816040528281528a602084870101111561129657600080fd5b82602086016020830137600060208483010152809550505050505092959194509250565b600080604083850312156112cd57600080fd5b6112d68361113d565b9150602083013580151581146112eb57600080fd5b809150509250929050565b6000806040838503121561130957600080fd5b6113128361113d565b946020939093013593505050565b60006020828403121561133257600080fd5b813561077481611661565b60006020828403121561134f57600080fd5b815161077481611661565b6000806020838503121561136d57600080fd5b823567ffffffffffffffff8082111561138557600080fd5b818501915085601f83011261139957600080fd5b8135818111156113a857600080fd5b8660208285010111156113ba57600080fd5b60209290920196919550909350505050565b6000602082840312156113de57600080fd5b5035919050565b600081518084526113fd816020860160208601611573565b601f01601f19169290920160200192915050565b60008351611423818460208801611573565b835190830190611437818360208801611573565b01949350505050565b6001600160a01b0385811682528416602082015260408101839052608060608201819052600090611473908301846113e5565b9695505050505050565b60208152600061077460208301846113e5565b60208082526032908201527f4552433732313a207472616e7366657220746f206e6f6e20455243373231526560408201527131b2b4bb32b91034b6b83632b6b2b73a32b960711b606082015260800190565b6020808252602e908201527f4552433732313a2063616c6c6572206973206e6f7420746f6b656e206f776e6560408201526d1c881b9bdc88185c1c1c9bdd995960921b606082015260800190565b6000821982111561154357611543611609565b500190565b6000826115575761155761161f565b500490565b60008282101561156e5761156e611609565b500390565b60005b8381101561158e578181015183820152602001611576565b838111156106fa5750506000910152565b600181811c908216806115b357607f821691505b602082108114156115d457634e487b7160e01b600052602260045260246000fd5b50919050565b60006000198214156115ee576115ee611609565b5060010190565b6000826116045761160461161f565b500690565b634e487b7160e01b600052601160045260246000fd5b634e487b7160e01b600052601260045260246000fd5b634e487b7160e01b600052603260045260246000fd5b634e487b7160e01b600052604160045260246000fd5b6001600160e01b03198116811461071157600080fdfea2646970667358221220db1d760cccba272ce37b2ca899931497ee1e5aa341f48df349996d26bd0e83aa64736f6c63430008070033",
  "linkReferences": {},
  "deployedLinkReferences": {}
}