{
  "_format": "hh-sol-artifact-1",
  "contractName": "UndeadsStakingUDS",
  "sourceName": "contracts/UndeadsStakingUDS.sol",
  "abi": [
    {
      "inputs": [
        {
          "internalType": "address",
          "name": "addrUDS",
          "type": "address"
        },
        {
          "internalType": "address",
          "name": "addrUGOLD",
          "type": "address"
        },
        {
          "internalType": "address",
          "name": "addrNFT",
          "type": "address"
        },
        {
          "internalType": "address",
          "name": "addrAMM",
          "type": "address"
        }
      ],
      "stateMutability": "nonpayable",
      "type": "constructor"
    },
    {
      "anonymous": false,
      "inputs": [
        {
          "indexed": true,
          "internalType": "address",
          "name": "previousOwner",
          "type": "address"
        },
        {
          "indexed": true,
          "internalType": "address",
          "name": "newOwner",
          "type": "address"
        }
      ],
      "name": "OwnershipTransferred",
      "type": "event"
    },
    {
      "anonymous": false,
      "inputs": [
        {
          "indexed": true,
          "internalType": "address",
          "name": "owner",
          "type": "address"
        },
        {
          "indexed": false,
          "internalType": "uint256",
          "name": "idSession",
          "type": "uint256"
        },
        {
          "indexed": false,
          "internalType": "uint256",
          "name": "value",
          "type": "uint256"
        },
        {
          "indexed": false,
          "internalType": "uint256",
          "name": "idNFT",
          "type": "uint256"
        },
        {
          "indexed": false,
          "internalType": "uint256",
          "name": "periodDays",
          "type": "uint256"
        }
      ],
      "name": "Reward",
      "type": "event"
    },
    {
      "anonymous": false,
      "inputs": [
        {
          "indexed": true,
          "internalType": "address",
          "name": "owner",
          "type": "address"
        },
        {
          "indexed": false,
          "internalType": "uint256",
          "name": "idSession",
          "type": "uint256"
        },
        {
          "indexed": false,
          "internalType": "uint256",
          "name": "value",
          "type": "uint256"
        },
        {
          "indexed": false,
          "internalType": "uint256",
          "name": "idNFT",
          "type": "uint256"
        },
        {
          "indexed": false,
          "internalType": "uint256",
          "name": "periodDays",
          "type": "uint256"
        },
        {
          "indexed": false,
          "internalType": "uint256",
          "name": "unitRewards",
          "type": "uint256"
        }
      ],
      "name": "Stake",
      "type": "event"
    },
    {
      "anonymous": false,
      "inputs": [
        {
          "indexed": true,
          "internalType": "address",
          "name": "owner",
          "type": "address"
        },
        {
          "indexed": false,
          "internalType": "uint256",
          "name": "idSession",
          "type": "uint256"
        },
        {
          "indexed": false,
          "internalType": "uint256",
          "name": "value",
          "type": "uint256"
        },
        {
          "indexed": false,
          "internalType": "uint256",
          "name": "idNFT",
          "type": "uint256"
        },
        {
          "indexed": false,
          "internalType": "uint256",
          "name": "periodDays",
          "type": "uint256"
        }
      ],
      "name": "UnStake",
      "type": "event"
    },
    {
      "inputs": [],
      "name": "allReward",
      "outputs": [
        {
          "internalType": "uint256",
          "name": "",
          "type": "uint256"
        }
      ],
      "stateMutability": "view",
      "type": "function"
    },
    {
      "inputs": [],
      "name": "countAllPeriods",
      "outputs": [
        {
          "internalType": "uint32",
          "name": "",
          "type": "uint32"
        }
      ],
      "stateMutability": "view",
      "type": "function"
    },
    {
      "inputs": [],
      "name": "countFirstsPeriods",
      "outputs": [
        {
          "internalType": "uint32",
          "name": "",
          "type": "uint32"
        }
      ],
      "stateMutability": "view",
      "type": "function"
    },
    {
      "inputs": [
        {
          "internalType": "address",
          "name": "addr",
          "type": "address"
        }
      ],
      "name": "lengthSessions",
      "outputs": [
        {
          "internalType": "uint256",
          "name": "",
          "type": "uint256"
        }
      ],
      "stateMutability": "view",
      "type": "function"
    },
    {
      "inputs": [
        {
          "internalType": "address",
          "name": "addr",
          "type": "address"
        },
        {
          "internalType": "uint256",
          "name": "startIndex",
          "type": "uint256"
        },
        {
          "internalType": "uint256",
          "name": "counts",
          "type": "uint256"
        }
      ],
      "name": "listSessions",
      "outputs": [
        {
          "components": [
            {
              "components": [
                {
                  "internalType": "uint48",
                  "name": "Start",
                  "type": "uint48"
                },
                {
                  "internalType": "uint48",
                  "name": "End",
                  "type": "uint48"
                },
                {
                  "internalType": "uint128",
                  "name": "Body",
                  "type": "uint128"
                },
                {
                  "internalType": "uint128",
                  "name": "Stake",
                  "type": "uint128"
                },
                {
                  "internalType": "uint128",
                  "name": "Withdraw",
                  "type": "uint128"
                },
                {
                  "internalType": "uint256",
                  "name": "idNFT",
                  "type": "uint256"
                }
              ],
              "internalType": "struct UndeadsStaking.SSession",
              "name": "info",
              "type": "tuple"
            },
            {
              "internalType": "uint256",
              "name": "reward",
              "type": "uint256"
            }
          ],
          "internalType": "struct UndeadsStaking.SInfoSession[]",
          "name": "Arr",
          "type": "tuple[]"
        }
      ],
      "stateMutability": "view",
      "type": "function"
    },
    {
      "inputs": [],
      "name": "owner",
      "outputs": [
        {
          "internalType": "address",
          "name": "",
          "type": "address"
        }
      ],
      "stateMutability": "view",
      "type": "function"
    },
    {
      "inputs": [
        {
          "internalType": "uint256",
          "name": "",
          "type": "uint256"
        }
      ],
      "name": "pathAMM",
      "outputs": [
        {
          "internalType": "address",
          "name": "",
          "type": "address"
        }
      ],
      "stateMutability": "view",
      "type": "function"
    },
    {
      "inputs": [],
      "name": "percentFirstsPeriods",
      "outputs": [
        {
          "internalType": "uint256",
          "name": "",
          "type": "uint256"
        }
      ],
      "stateMutability": "view",
      "type": "function"
    },
    {
      "inputs": [],
      "name": "periodDelta",
      "outputs": [
        {
          "internalType": "uint32",
          "name": "",
          "type": "uint32"
        }
      ],
      "stateMutability": "view",
      "type": "function"
    },
    {
      "inputs": [],
      "name": "poolStake",
      "outputs": [
        {
          "internalType": "uint256",
          "name": "",
          "type": "uint256"
        }
      ],
      "stateMutability": "view",
      "type": "function"
    },
    {
      "inputs": [],
      "name": "renounceOwnership",
      "outputs": [],
      "stateMutability": "nonpayable",
      "type": "function"
    },
    {
      "inputs": [
        {
          "internalType": "uint32",
          "name": "sessionId",
          "type": "uint32"
        }
      ],
      "name": "reward",
      "outputs": [],
      "stateMutability": "nonpayable",
      "type": "function"
    },
    {
      "inputs": [
        {
          "internalType": "uint32",
          "name": "_periodDelta",
          "type": "uint32"
        }
      ],
      "name": "setPeriod",
      "outputs": [],
      "stateMutability": "nonpayable",
      "type": "function"
    },
    {
      "inputs": [
        {
          "internalType": "uint256",
          "name": "_amount",
          "type": "uint256"
        },
        {
          "internalType": "uint48",
          "name": "_startPeriods",
          "type": "uint48"
        },
        {
          "internalType": "uint32",
          "name": "_periodDelta",
          "type": "uint32"
        },
        {
          "internalType": "uint32",
          "name": "_windowEnd",
          "type": "uint32"
        },
        {
          "internalType": "uint32",
          "name": "_countAllPeriods",
          "type": "uint32"
        },
        {
          "internalType": "uint32",
          "name": "_countFirstsPeriods",
          "type": "uint32"
        },
        {
          "internalType": "uint32",
          "name": "_percentFirstsPeriods",
          "type": "uint32"
        }
      ],
      "name": "setup",
      "outputs": [],
      "stateMutability": "nonpayable",
      "type": "function"
    },
    {
      "inputs": [],
      "name": "smartAMM",
      "outputs": [
        {
          "internalType": "contract IRouter",
          "name": "",
          "type": "address"
        }
      ],
      "stateMutability": "view",
      "type": "function"
    },
    {
      "inputs": [],
      "name": "smartNFT",
      "outputs": [
        {
          "internalType": "contract UndeadNFT",
          "name": "",
          "type": "address"
        }
      ],
      "stateMutability": "view",
      "type": "function"
    },
    {
      "inputs": [],
      "name": "smartUDS",
      "outputs": [
        {
          "internalType": "contract IERC20",
          "name": "",
          "type": "address"
        }
      ],
      "stateMutability": "view",
      "type": "function"
    },
    {
      "inputs": [
        {
          "internalType": "uint256",
          "name": "_amount",
          "type": "uint256"
        },
        {
          "internalType": "uint256",
          "name": "_periodDay",
          "type": "uint256"
        },
        {
          "internalType": "uint256",
          "name": "idNFT",
          "type": "uint256"
        }
      ],
      "name": "stake",
      "outputs": [],
      "stateMutability": "nonpayable",
      "type": "function"
    },
    {
      "inputs": [],
      "name": "timeEndContract",
      "outputs": [
        {
          "internalType": "uint48",
          "name": "",
          "type": "uint48"
        }
      ],
      "stateMutability": "view",
      "type": "function"
    },
    {
      "inputs": [],
      "name": "timeStartContract",
      "outputs": [
        {
          "internalType": "uint48",
          "name": "",
          "type": "uint48"
        }
      ],
      "stateMutability": "view",
      "type": "function"
    },
    {
      "inputs": [
        {
          "internalType": "address",
          "name": "newOwner",
          "type": "address"
        }
      ],
      "name": "transferOwnership",
      "outputs": [],
      "stateMutability": "nonpayable",
      "type": "function"
    },
    {
      "inputs": [
        {
          "internalType": "uint32",
          "name": "sessionId",
          "type": "uint32"
        }
      ],
      "name": "unstake",
      "outputs": [],
      "stateMutability": "nonpayable",
      "type": "function"
    },
    {
      "inputs": [],
      "name": "windowEnd",
      "outputs": [
        {
          "internalType": "uint32",
          "name": "",
          "type": "uint32"
        }
      ],
      "stateMutability": "view",
      "type": "function"
    }
  ],
  "bytecode": "0x60806040523480156200001157600080fd5b50604051620026aa380380620026aa83398101604081905262000034916200047f565b6200003f33620000d0565b620000656a295be96e640669720000004262015180601e6105a0603c6214585562000120565b600780546001600160a01b03199081166001600160a01b038781169182179093556008805483168685161790556009805490921684841617909155604080518082019091529081529084166020820152620000c590600a906002620003e1565b505050505062000593565b600080546001600160a01b038381166001600160a01b0319831681178455604051919092169283917f8be0079c531659141344cd1fd0a4f28419497f9722a3daafe3b4186f6b6457e09190a35050565b6200012a62000383565b60008711620001755760405162461bcd60e51b8152602060048201526012602482015271115c9c9bdc8b081e995c9bc8185b5bdd5b9d60721b60448201526064015b60405180910390fd5b60008665ffffffffffff1611620001cf5760405162461bcd60e51b815260206004820152601860248201527f4572726f722c207a65726f207374617274506572696f6473000000000000000060448201526064016200016c565b60008563ffffffff1611620002275760405162461bcd60e51b815260206004820152601760248201527f4572726f722c207a65726f20706572696f6444656c746100000000000000000060448201526064016200016c565b60008363ffffffff16116200027f5760405162461bcd60e51b815260206004820152601b60248201527f4572726f722c207a65726f20636f756e74416c6c506572696f6473000000000060448201526064016200016c565b60038790556000805465ffffffffffff60a01b1916600160a01b65ffffffffffff891602179055620002b283866200054e565b620002c49063ffffffff1687620004dc565b600080546001600160d01b0316600160d01b65ffffffffffff93909316929092029190911790556001805463ffffffff8781166001600160401b0319909216919091176401000000008783160217600160401b600160801b031916680100000000000000008683160263ffffffff60601b1916176c010000000000000000000000008583160217909155633b9aca00906200036b90670de0b6b3a76400009084166200052c565b62000377919062000509565b60025550505050505050565b6000546001600160a01b03163314620003df5760405162461bcd60e51b815260206004820181905260248201527f4f776e61626c653a2063616c6c6572206973206e6f7420746865206f776e657260448201526064016200016c565b565b82805482825590600052602060002090810192821562000439579160200282015b828111156200043957825182546001600160a01b0319166001600160a01b0390911617825560209092019160019091019062000402565b50620004479291506200044b565b5090565b5b808211156200044757600081556001016200044c565b80516001600160a01b03811681146200047a57600080fd5b919050565b600080600080608085870312156200049657600080fd5b620004a18562000462565b9350620004b16020860162000462565b9250620004c16040860162000462565b9150620004d16060860162000462565b905092959194509250565b600065ffffffffffff8083168185168083038211156200050057620005006200057d565b01949350505050565b6000826200052757634e487b7160e01b600052601260045260246000fd5b500490565b60008160001904831182151516156200054957620005496200057d565b500290565b600063ffffffff808316818516818304811182151516156200057457620005746200057d565b02949350505050565b634e487b7160e01b600052601160045260246000fd5b61210780620005a36000396000f3fe608060405234801561001057600080fd5b506004361061014d5760003560e01c8063805d1711116100c3578063b8ec2d381161007c578063b8ec2d38146102e9578063bcf90432146102fc578063c03fe67f14610315578063edad586914610328578063ede5a41614610348578063f2fde38b1461035b57600080fd5b8063805d171114610269578063809ee57d146102725780638da5cb5b1461028557806397723d9e146102965780639ba704dc146102c6578063a638f2e2146102d657600080fd5b80634dc2eb0a116101155780634dc2eb0a146102035780635fd66320146102165780636a188bd71461021f5780636d02d5bc14610232578063715018a6146102495780637db1f1011461025157600080fd5b80631a1e4ba1146101525780631edf3c3b1461018357806333534c5c146101ba57806339a88f74146101c3578063426cb674146101ee575b600080fd5b60015461016990600160601b900463ffffffff1681565b60405163ffffffff90911681526020015b60405180910390f35b6101ac610191366004611b53565b6001600160a01b031660009081526006602052604090205490565b60405190815260200161017a565b6101ac60035481565b6008546101d6906001600160a01b031681565b6040516001600160a01b03909116815260200161017a565b6102016101fc366004611d72565b61036e565b005b6009546101d6906001600160a01b031681565b6101ac60045481565b6101d661022d366004611c88565b61037c565b60015461016990600160401b900463ffffffff1681565b6102016103a6565b60015461016990640100000000900463ffffffff1681565b6101ac60025481565b610201610280366004611d72565b6103ba565b6000546001600160a01b03166101d6565b6000546102af90600160a01b900465ffffffffffff1681565b60405165ffffffffffff909116815260200161017a565b6001546101699063ffffffff1681565b6102016102e4366004611cba565b6105a1565b6102016102f7366004611d72565b6106c7565b6000546102af90600160d01b900465ffffffffffff1681565b610201610323366004611ce6565b61073b565b61033b610336366004611b6e565b61097b565b60405161017a9190611da9565b6007546101d6906001600160a01b031681565b610201610369366004611b53565b610b7d565b610379816000610bf3565b50565b600a818154811061038c57600080fd5b6000918252602090912001546001600160a01b0316905081565b6103ae610f3e565b6103b86000610f98565b565b33600090815260056020908152604080832063ffffffff85168452825291829020825160c081018452815465ffffffffffff8082168352600160301b8204169382018490526001600160801b03600160601b90910481169482019490945260018201548085166060830152600160801b900490931660808401526002015460a08301526104805760405162461bcd60e51b815260206004820152600f60248201526e115c9c9bdc881cd95cdcda5bdb9259608a1b60448201526064015b60405180910390fd5b806020015165ffffffffffff1642116104d25760405162461bcd60e51b81526020600482015260146024820152734572726f7220756e7374616b696e672074696d6560601b6044820152606401610477565b6104dd826001610bf3565b6104e78183610fe8565b60408101516001600160801b031615610522576040810151600754610522916001600160a01b039091169033906001600160801b03166110b8565b60a08101511561059d5760085460a08201516040516323b872dd60e01b815230600482015233602482015260448101919091526001600160a01b03909116906323b872dd90606401600060405180830381600087803b15801561058457600080fd5b505af1158015610598573d6000803e3d6000fd5b505050505b5050565b6007546105b9906001600160a01b0316333086611120565b8281156106b5576008546040516323b872dd60e01b8152336004820152306024820152604481018490526001600160a01b03909116906323b872dd90606401600060405180830381600087803b15801561061257600080fd5b505af1158015610626573d6000803e3d6000fd5b5050600854604051630e75722360e41b8152600481018690526001600160a01b03909116925063e75722309150602401602060405180830381600087803b15801561067057600080fd5b505af1158015610684573d6000803e3d6000fd5b505050506040513d601f19601f820116820180604052508101906106a89190611ca1565b6106b29082611f1a565b90505b6106c184828585611158565b50505050565b6106cf610f3e565b60008163ffffffff161161071f5760405162461bcd60e51b81526020600482015260176024820152764572726f722c207a65726f20706572696f6444656c746160481b6044820152606401610477565b6001805463ffffffff191663ffffffff92909216919091179055565b610743610f3e565b600087116107885760405162461bcd60e51b8152602060048201526012602482015271115c9c9bdc8b081e995c9bc8185b5bdd5b9d60721b6044820152606401610477565b60008665ffffffffffff16116107e05760405162461bcd60e51b815260206004820152601860248201527f4572726f722c207a65726f207374617274506572696f647300000000000000006044820152606401610477565b60008563ffffffff16116108305760405162461bcd60e51b81526020600482015260176024820152764572726f722c207a65726f20706572696f6444656c746160481b6044820152606401610477565b60008363ffffffff16116108865760405162461bcd60e51b815260206004820152601b60248201527f4572726f722c207a65726f20636f756e74416c6c506572696f647300000000006044820152606401610477565b60038790556000805465ffffffffffff60a01b1916600160a01b65ffffffffffff8916021790556108b78386611fab565b6108c79063ffffffff1687611f32565b600080546001600160d01b0316600160d01b65ffffffffffff93909316929092029190911790556001805463ffffffff87811667ffffffffffffffff199092169190911764010000000087831602176fffffffffffffffff00000000000000001916600160401b8683160263ffffffff60601b191617600160601b8583160217909155633b9aca009061096590670de0b6b3a7640000908416611f8c565b61096f9190611f53565b60025550505050505050565b6001600160a01b03831660009081526006602052604090205460609060018410156109a557600193505b808411610b75576109b7816001611f1a565b6109c18486611f1a565b11156109e057836109d3826001611f1a565b6109dd9190611fd7565b92505b8267ffffffffffffffff8111156109f9576109f96120bb565b604051908082528060200260200182016040528015610a6a57816020015b60408051610100810182526000918101828152606082018390526080820183905260a0820183905260c0820183905260e0820183905281526020810191909152815260200190600190039081610a175790505b50915060005b83811015610b73576001600160a01b038616600090815260056020526040812081610a9b8489611f1a565b81526020808201929092526040908101600020815160c081018352815465ffffffffffff8082168352600160301b82041694820194909452600160601b9093046001600160801b039081169284019290925260018101548083166060850152600160801b900490911660808301526002015460a082015284519091508190859084908110610b2b57610b2b6120a5565b602090810291909101015152610b40816114b6565b848381518110610b5257610b526120a5565b60209081029190910181015101525080610b6b8161205e565b915050610a70565b505b509392505050565b610b85610f3e565b6001600160a01b038116610bea5760405162461bcd60e51b815260206004820152602660248201527f4f776e61626c653a206e6577206f776e657220697320746865207a65726f206160448201526564647265737360d01b6064820152608401610477565b61037981610f98565b33600090815260056020908152604080832063ffffffff8087168552925290912060015481549192610c3792640100000000909204169065ffffffffffff16611f32565b65ffffffffffff164211610c815760405162461bcd60e51b81526020600482015260116024820152704572726f72207265776172642074696d6560781b6044820152606401610477565b6040805160c081018252825465ffffffffffff8082168352600160301b82041660208301526001600160801b03600160601b90910481169282019290925260018301548083166060830152600160801b90049091166080820152600282015460a0820152600090610cf1906114b6565b6001830154909150600160801b90046001600160801b03168111610d6857826106c15760405162461bcd60e51b815260206004820152602360248201527f5468657265206973206e6f7468696e6720746f20776974686472617720726577604482015262185c9960ea1b6064820152608401610477565b6001820154600090610d8a90600160801b90046001600160801b031683611fd7565b600284015490915015610e4a57600954600754610db4916001600160a01b0391821691168361162a565b6009546040516338ed173960e01b81526001600160a01b03909116906338ed173990610dee908490600090600a9033904290600401611e79565b600060405180830381600087803b158015610e0857600080fd5b505af1158015610e1c573d6000803e3d6000fd5b505050506040513d6000823e601f3d908101601f19168201604052610e449190810190611ba1565b50610e61565b600754610e61906001600160a01b031633836110b8565b6002830154835433917ff98b87c896b951dbec06baa1c8d840231181343162fbdcba565efb357dafda0491889185916201518090610eb19065ffffffffffff80821691600160301b900416612013565b610ebb9190611f67565b6040805163ffffffff909516855260208501939093529183015265ffffffffffff16606082015260800160405180910390a2808360010160108282829054906101000a90046001600160801b0316610f139190611eef565b92506101000a8154816001600160801b0302191690836001600160801b031602179055505050505050565b6000546001600160a01b031633146103b85760405162461bcd60e51b815260206004820181905260248201527f4f776e61626c653a2063616c6c6572206973206e6f7420746865206f776e65726044820152606401610477565b600080546001600160a01b038381166001600160a01b0319831681178455604051919092169283917f8be0079c531659141344cd1fd0a4f28419497f9722a3daafe3b4186f6b6457e09190a35050565b336001600160a01b03167ff74c9f1985016ff6aa83c3fd81e31d0be3b194f205ae5e1b57f5bd74ad28e4cf8284604001518560a0015162015180876000015188602001516110369190612013565b6110409190611f67565b6040805163ffffffff90951685526001600160801b0390931660208501529183015265ffffffffffff16606082015260800160405180910390a233600090815260056020908152604080832063ffffffff909416835292905290812080546001600160e01b0319168155600181018290556002015550565b6040516001600160a01b03831660248201526044810182905261111b90849063a9059cbb60e01b906064015b60408051601f198184030181529190526020810180516001600160e01b03166001600160e01b0319909316929092179091526116eb565b505050565b6040516001600160a01b03808516602483015283166044820152606481018290526106c19085906323b872dd60e01b906084016110e4565b60006111626117bd565b9050600085116111a95760405162461bcd60e51b8152602060048201526012602482015271115c9c9bdc8b081e995c9bc8185b5bdd5b9d60721b6044820152606401610477565b6001546111c490640100000000900463ffffffff1682611f1a565b42106111e0576001546111dd9063ffffffff1682611f1a565b90505b600083601e14156111f3575060016112a3565b83603c1415611204575060056112a3565b83605a14156112155750600a6112a3565b8360781415611226575060186112a3565b8360b41415611237575060286112a3565b8361016d14156112495750604b6112a3565b836102da141561125b575060aa6112a3565b60405162461bcd60e51b815260206004820152601760248201527f4572726f72205f706572696f6444617920706172616d730000000000000000006044820152606401610477565b60006112b28562015180611f8c565b6112bc9084611f1a565b600054909150600160d01b900465ffffffffffff168111156113465760405162461bcd60e51b815260206004820152603d60248201527f546865207374616b696e6720706572696f64206578636565647320746865206c60448201527f69666574696d65206f662074686520736d61727420636f6e74726163740000006064820152608401610477565b6000610168606484611358898b611f8c565b6113629190611f8c565b61136c9190611f53565b6113769190611f53565b3360009081526006602052604081208054929350906113948361205e565b90915550503360009081526006602090815260408083205460058352818420818552909252822080546001600160801b03808d16600160601b026fffffffffffffffffffffffffffffffff60601b1965ffffffffffff898116600160301b026bffffffffffffffffffffffff19909516908c161793909317929092169190911782558416600182018190556002820189905560048054939492939192909161143d908490611f1a565b909155505080546001820154604080518581526001600160801b03600160601b909404841660208201529081018a9052606081018b90529116608082015233907fc6f8dbf1fa0a0918d52df74fa2b529a0a4da7011a24f263a28678e7504444cd69060a00160405180910390a250505050505050505050565b60006004546000141580156114ee575060015482516114e391640100000000900463ffffffff1690611f32565b65ffffffffffff1642115b1561161d576020820151429065ffffffffffff1681106115175750602082015165ffffffffffff165b60045460009061153061152b600185611fd7565b61188d565b6115449069d3c21bcecceda1000000611f8c565b61154e9190611f53565b84519091506000906115689065ffffffffffff1684611fd7565b90506000856000015186602001516115809190612013565b65ffffffffffff16905060008161159f84670de0b6b3a7640000611f8c565b6115a99190611f53565b9050670de0b6b3a76400008111156115c65750670de0b6b3a76400005b69d3c21bcecceda1000000670de0b6b3a764000082868a606001516001600160801b03166115f49190611f8c565b6115fe9190611f8c565b6116089190611f53565b6116129190611f53565b979650505050505050565b506000919050565b919050565b604051636eb1769f60e11b81523060048201526001600160a01b038381166024830152600091839186169063dd62ed3e9060440160206040518083038186803b15801561167657600080fd5b505afa15801561168a573d6000803e3d6000fd5b505050506040513d601f19601f820116820180604052508101906116ae9190611ca1565b6116b89190611f1a565b6040516001600160a01b0385166024820152604481018290529091506106c190859063095ea7b360e01b906064016110e4565b6000611740826040518060400160405280602081526020017f5361666545524332303a206c6f772d6c6576656c2063616c6c206661696c6564815250856001600160a01b0316611a249092919063ffffffff16565b80519091501561111b578080602001905181019061175e9190611c66565b61111b5760405162461bcd60e51b815260206004820152602a60248201527f5361666545524332303a204552433230206f7065726174696f6e20646964206e6044820152691bdd081cdd58d8d9595960b21b6064820152608401610477565b60008054600160a01b900465ffffffffffff16421161181e5760405162461bcd60e51b815260206004820152601860248201527f4572726f72207374617274207374616b696e672074696d6500000000000000006044820152606401610477565b60015460008054909163ffffffff169061184790600160a01b900465ffffffffffff1642611fd7565b6118519190611f53565b60015490915060009061186a9063ffffffff1683611f8c565b6000546118869190600160a01b900465ffffffffffff16611f1a565b9392505050565b60008054600160a01b900465ffffffffffff168210156118af57506000919050565b60015460008054909163ffffffff16906118d890600160a01b900465ffffffffffff1685611fd7565b6118e29190611f53565b600154909150600090600160601b900463ffffffff1682101561191e5761190a826001611f1a565b6002546119179190611f8c565b90506119fb565b600154600160401b900463ffffffff168210156119f05760015460025460009161195691600160601b90910463ffffffff1690611f8c565b60015490915060009061197f9063ffffffff600160601b8204811691600160401b900416611fee565b63ffffffff1661199783670de0b6b3a7640000611fd7565b6119a19190611f53565b90506001600c9054906101000a900463ffffffff1663ffffffff168460016119c99190611f1a565b6119d39190611fd7565b6119dd9082611f8c565b6119e79083611f1a565b925050506119fb565b50670de0b6b3a76400005b670de0b6b3a764000081600354611a129190611f8c565b611a1c9190611f53565b949350505050565b6060611a1c8484600085856001600160a01b0385163b611a865760405162461bcd60e51b815260206004820152601d60248201527f416464726573733a2063616c6c20746f206e6f6e2d636f6e74726163740000006044820152606401610477565b600080866001600160a01b03168587604051611aa29190611d8d565b60006040518083038185875af1925050503d8060008114611adf576040519150601f19603f3d011682016040523d82523d6000602084013e611ae4565b606091505b509150915061161282828660608315611afe575081611886565b825115611b0e5782518084602001fd5b8160405162461bcd60e51b81526004016104779190611e46565b80356001600160a01b038116811461162557600080fd5b803563ffffffff8116811461162557600080fd5b600060208284031215611b6557600080fd5b61188682611b28565b600080600060608486031215611b8357600080fd5b611b8c84611b28565b95602085013595506040909401359392505050565b60006020808385031215611bb457600080fd5b825167ffffffffffffffff80821115611bcc57600080fd5b818501915085601f830112611be057600080fd5b815181811115611bf257611bf26120bb565b8060051b604051601f19603f83011681018181108582111715611c1757611c176120bb565b604052828152858101935084860182860187018a1015611c3657600080fd5b600095505b83861015611c59578051855260019590950194938601938601611c3b565b5098975050505050505050565b600060208284031215611c7857600080fd5b8151801515811461188657600080fd5b600060208284031215611c9a57600080fd5b5035919050565b600060208284031215611cb357600080fd5b5051919050565b600080600060608486031215611ccf57600080fd5b505081359360208301359350604090920135919050565b600080600080600080600060e0888a031215611d0157600080fd5b87359650602088013565ffffffffffff81168114611d1e57600080fd5b9550611d2c60408901611b3f565b9450611d3a60608901611b3f565b9350611d4860808901611b3f565b9250611d5660a08901611b3f565b9150611d6460c08901611b3f565b905092959891949750929550565b600060208284031215611d8457600080fd5b61188682611b3f565b60008251611d9f818460208701612032565b9190910192915050565b602080825282518282018190526000919060409081850190868401855b82811015611e395781518051805165ffffffffffff9081168752888201511688870152868101516001600160801b03908116888801526060808301518216908801526080808301519091169087015260a0908101519086015286015160c085015260e09093019290850190600101611dc6565b5091979650505050505050565b6020815260008251806020840152611e65816040850160208701612032565b601f01601f19169190910160400192915050565b600060a082018783526020878185015260a0604085015281875480845260c0860191508860005282600020935060005b81811015611ece5784546001600160a01b031683526001948501949284019201611ea9565b50506001600160a01b03969096166060850152505050608001529392505050565b60006001600160801b03808316818516808303821115611f1157611f11612079565b01949350505050565b60008219821115611f2d57611f2d612079565b500190565b600065ffffffffffff808316818516808303821115611f1157611f11612079565b600082611f6257611f6261208f565b500490565b600065ffffffffffff80841680611f8057611f8061208f565b92169190910492915050565b6000816000190483118215151615611fa657611fa6612079565b500290565b600063ffffffff80831681851681830481118215151615611fce57611fce612079565b02949350505050565b600082821015611fe957611fe9612079565b500390565b600063ffffffff8381169083168181101561200b5761200b612079565b039392505050565b600065ffffffffffff8381169083168181101561200b5761200b612079565b60005b8381101561204d578181015183820152602001612035565b838111156106c15750506000910152565b600060001982141561207257612072612079565b5060010190565b634e487b7160e01b600052601160045260246000fd5b634e487b7160e01b600052601260045260246000fd5b634e487b7160e01b600052603260045260246000fd5b634e487b7160e01b600052604160045260246000fdfea264697066735822122017abe4c01929d936d6a8353ebdf3f49d9fdeceaf6e4f5c4c1c65206ec7d48df364736f6c63430008070033",
  "linkReferences": {},
  "deployedLinkReferences": {}
}