{
  "_format": "hh-sol-artifact-1",
  "contractName": "UndeadsStaking",
  "sourceName": "contracts/UndeadsStaking.sol",
  "abi": [
    {
      "inputs": [],
      "stateMutability": "nonpayable",
      "type": "constructor"
    },
    {
      "anonymous": false,
      "inputs": [
        {
          "indexed": true,
          "internalType": "address",
          "name": "previousOwner",
          "type": "address"
        },
        {
          "indexed": true,
          "internalType": "address",
          "name": "newOwner",
          "type": "address"
        }
      ],
      "name": "OwnershipTransferred",
      "type": "event"
    },
    {
      "anonymous": false,
      "inputs": [
        {
          "indexed": true,
          "internalType": "address",
          "name": "owner",
          "type": "address"
        },
        {
          "indexed": false,
          "internalType": "uint256",
          "name": "idSession",
          "type": "uint256"
        },
        {
          "indexed": false,
          "internalType": "uint256",
          "name": "value",
          "type": "uint256"
        },
        {
          "indexed": false,
          "internalType": "uint256",
          "name": "idNFT",
          "type": "uint256"
        },
        {
          "indexed": false,
          "internalType": "uint256",
          "name": "periodDays",
          "type": "uint256"
        }
      ],
      "name": "Reward",
      "type": "event"
    },
    {
      "anonymous": false,
      "inputs": [
        {
          "indexed": true,
          "internalType": "address",
          "name": "owner",
          "type": "address"
        },
        {
          "indexed": false,
          "internalType": "uint256",
          "name": "idSession",
          "type": "uint256"
        },
        {
          "indexed": false,
          "internalType": "uint256",
          "name": "value",
          "type": "uint256"
        },
        {
          "indexed": false,
          "internalType": "uint256",
          "name": "idNFT",
          "type": "uint256"
        },
        {
          "indexed": false,
          "internalType": "uint256",
          "name": "periodDays",
          "type": "uint256"
        },
        {
          "indexed": false,
          "internalType": "uint256",
          "name": "unitRewards",
          "type": "uint256"
        }
      ],
      "name": "Stake",
      "type": "event"
    },
    {
      "anonymous": false,
      "inputs": [
        {
          "indexed": true,
          "internalType": "address",
          "name": "owner",
          "type": "address"
        },
        {
          "indexed": false,
          "internalType": "uint256",
          "name": "idSession",
          "type": "uint256"
        },
        {
          "indexed": false,
          "internalType": "uint256",
          "name": "value",
          "type": "uint256"
        },
        {
          "indexed": false,
          "internalType": "uint256",
          "name": "idNFT",
          "type": "uint256"
        },
        {
          "indexed": false,
          "internalType": "uint256",
          "name": "periodDays",
          "type": "uint256"
        }
      ],
      "name": "UnStake",
      "type": "event"
    },
    {
      "inputs": [],
      "name": "allReward",
      "outputs": [
        {
          "internalType": "uint256",
          "name": "",
          "type": "uint256"
        }
      ],
      "stateMutability": "view",
      "type": "function"
    },
    {
      "inputs": [],
      "name": "countAllPeriods",
      "outputs": [
        {
          "internalType": "uint32",
          "name": "",
          "type": "uint32"
        }
      ],
      "stateMutability": "view",
      "type": "function"
    },
    {
      "inputs": [],
      "name": "countFirstsPeriods",
      "outputs": [
        {
          "internalType": "uint32",
          "name": "",
          "type": "uint32"
        }
      ],
      "stateMutability": "view",
      "type": "function"
    },
    {
      "inputs": [
        {
          "internalType": "address",
          "name": "addr",
          "type": "address"
        }
      ],
      "name": "lengthSessions",
      "outputs": [
        {
          "internalType": "uint256",
          "name": "",
          "type": "uint256"
        }
      ],
      "stateMutability": "view",
      "type": "function"
    },
    {
      "inputs": [
        {
          "internalType": "address",
          "name": "addr",
          "type": "address"
        },
        {
          "internalType": "uint256",
          "name": "startIndex",
          "type": "uint256"
        },
        {
          "internalType": "uint256",
          "name": "counts",
          "type": "uint256"
        }
      ],
      "name": "listSessions",
      "outputs": [
        {
          "components": [
            {
              "components": [
                {
                  "internalType": "uint48",
                  "name": "Start",
                  "type": "uint48"
                },
                {
                  "internalType": "uint48",
                  "name": "End",
                  "type": "uint48"
                },
                {
                  "internalType": "uint128",
                  "name": "Body",
                  "type": "uint128"
                },
                {
                  "internalType": "uint128",
                  "name": "Stake",
                  "type": "uint128"
                },
                {
                  "internalType": "uint128",
                  "name": "Withdraw",
                  "type": "uint128"
                },
                {
                  "internalType": "uint256",
                  "name": "idNFT",
                  "type": "uint256"
                }
              ],
              "internalType": "struct UndeadsStaking.SSession",
              "name": "info",
              "type": "tuple"
            },
            {
              "internalType": "uint256",
              "name": "reward",
              "type": "uint256"
            }
          ],
          "internalType": "struct UndeadsStaking.SInfoSession[]",
          "name": "Arr",
          "type": "tuple[]"
        }
      ],
      "stateMutability": "view",
      "type": "function"
    },
    {
      "inputs": [],
      "name": "owner",
      "outputs": [
        {
          "internalType": "address",
          "name": "",
          "type": "address"
        }
      ],
      "stateMutability": "view",
      "type": "function"
    },
    {
      "inputs": [],
      "name": "percentFirstsPeriods",
      "outputs": [
        {
          "internalType": "uint256",
          "name": "",
          "type": "uint256"
        }
      ],
      "stateMutability": "view",
      "type": "function"
    },
    {
      "inputs": [],
      "name": "periodDelta",
      "outputs": [
        {
          "internalType": "uint32",
          "name": "",
          "type": "uint32"
        }
      ],
      "stateMutability": "view",
      "type": "function"
    },
    {
      "inputs": [],
      "name": "poolStake",
      "outputs": [
        {
          "internalType": "uint256",
          "name": "",
          "type": "uint256"
        }
      ],
      "stateMutability": "view",
      "type": "function"
    },
    {
      "inputs": [],
      "name": "renounceOwnership",
      "outputs": [],
      "stateMutability": "nonpayable",
      "type": "function"
    },
    {
      "inputs": [
        {
          "internalType": "uint32",
          "name": "_periodDelta",
          "type": "uint32"
        }
      ],
      "name": "setPeriod",
      "outputs": [],
      "stateMutability": "nonpayable",
      "type": "function"
    },
    {
      "inputs": [
        {
          "internalType": "uint256",
          "name": "_amount",
          "type": "uint256"
        },
        {
          "internalType": "uint48",
          "name": "_startPeriods",
          "type": "uint48"
        },
        {
          "internalType": "uint32",
          "name": "_periodDelta",
          "type": "uint32"
        },
        {
          "internalType": "uint32",
          "name": "_windowEnd",
          "type": "uint32"
        },
        {
          "internalType": "uint32",
          "name": "_countAllPeriods",
          "type": "uint32"
        },
        {
          "internalType": "uint32",
          "name": "_countFirstsPeriods",
          "type": "uint32"
        },
        {
          "internalType": "uint32",
          "name": "_percentFirstsPeriods",
          "type": "uint32"
        }
      ],
      "name": "setup",
      "outputs": [],
      "stateMutability": "nonpayable",
      "type": "function"
    },
    {
      "inputs": [],
      "name": "timeEndContract",
      "outputs": [
        {
          "internalType": "uint48",
          "name": "",
          "type": "uint48"
        }
      ],
      "stateMutability": "view",
      "type": "function"
    },
    {
      "inputs": [],
      "name": "timeStartContract",
      "outputs": [
        {
          "internalType": "uint48",
          "name": "",
          "type": "uint48"
        }
      ],
      "stateMutability": "view",
      "type": "function"
    },
    {
      "inputs": [
        {
          "internalType": "address",
          "name": "newOwner",
          "type": "address"
        }
      ],
      "name": "transferOwnership",
      "outputs": [],
      "stateMutability": "nonpayable",
      "type": "function"
    },
    {
      "inputs": [],
      "name": "windowEnd",
      "outputs": [
        {
          "internalType": "uint32",
          "name": "",
          "type": "uint32"
        }
      ],
      "stateMutability": "view",
      "type": "function"
    }
  ],
  "bytecode": "0x60806040523480156200001157600080fd5b506200001d3362000049565b620000436a295be96e640669720000004262015180601e6105a0603c6214585562000099565b62000411565b600080546001600160a01b038381166001600160a01b0319831681178455604051919092169283917f8be0079c531659141344cd1fd0a4f28419497f9722a3daafe3b4186f6b6457e09190a35050565b620000a3620002fc565b60008711620000ee5760405162461bcd60e51b8152602060048201526012602482015271115c9c9bdc8b081e995c9bc8185b5bdd5b9d60721b60448201526064015b60405180910390fd5b60008665ffffffffffff1611620001485760405162461bcd60e51b815260206004820152601860248201527f4572726f722c207a65726f207374617274506572696f647300000000000000006044820152606401620000e5565b60008563ffffffff1611620001a05760405162461bcd60e51b815260206004820152601760248201527f4572726f722c207a65726f20706572696f6444656c74610000000000000000006044820152606401620000e5565b60008363ffffffff1611620001f85760405162461bcd60e51b815260206004820152601b60248201527f4572726f722c207a65726f20636f756e74416c6c506572696f647300000000006044820152606401620000e5565b60038790556000805465ffffffffffff60a01b1916600160a01b65ffffffffffff8916021790556200022b8386620003cc565b6200023d9063ffffffff16876200035a565b600080546001600160d01b0316600160d01b65ffffffffffff93909316929092029190911790556001805463ffffffff8781166001600160401b0319909216919091176401000000008783160217600160401b600160801b031916680100000000000000008683160263ffffffff60601b1916176c010000000000000000000000008583160217909155633b9aca0090620002e490670de0b6b3a7640000908416620003aa565b620002f0919062000387565b60025550505050505050565b6000546001600160a01b03163314620003585760405162461bcd60e51b815260206004820181905260248201527f4f776e61626c653a2063616c6c6572206973206e6f7420746865206f776e65726044820152606401620000e5565b565b600065ffffffffffff8083168185168083038211156200037e576200037e620003fb565b01949350505050565b600082620003a557634e487b7160e01b600052601260045260246000fd5b500490565b6000816000190483118215151615620003c757620003c7620003fb565b500290565b600063ffffffff80831681851681830481118215151615620003f257620003f2620003fb565b02949350505050565b634e487b7160e01b600052601160045260246000fd5b610eef80620004216000396000f3fe608060405234801561001057600080fd5b50600436106101005760003560e01c80638da5cb5b11610097578063bcf9043211610066578063bcf904321461022f578063c03fe67f14610248578063edad58691461025b578063f2fde38b1461027b57600080fd5b80638da5cb5b146101c157806397723d9e146101dc5780639ba704dc1461020c578063b8ec2d381461021c57600080fd5b80636d02d5bc116100d35780636d02d5bc1461017f578063715018a6146101965780637db1f101146101a0578063805d1711146101b857600080fd5b80631a1e4ba1146101055780631edf3c3b1461013657806333534c5c1461016d5780635fd6632014610176575b600080fd5b60015461011c90600160601b900463ffffffff1681565b60405163ffffffff90911681526020015b60405180910390f35b61015f610144366004610bb9565b6001600160a01b031660009081526006602052604090205490565b60405190815260200161012d565b61015f60035481565b61015f60045481565b60015461011c90600160401b900463ffffffff1681565b61019e61028e565b005b60015461011c90640100000000900463ffffffff1681565b61015f60025481565b6000546040516001600160a01b03909116815260200161012d565b6000546101f590600160a01b900465ffffffffffff1681565b60405165ffffffffffff909116815260200161012d565b60015461011c9063ffffffff1681565b61019e61022a366004610c9a565b6102a2565b6000546101f590600160d01b900465ffffffffffff1681565b61019e610256366004610c0e565b61031b565b61026e610269366004610bdb565b61055b565b60405161012d9190610cb5565b61019e610289366004610bb9565b610760565b6102966107d9565b6102a06000610833565b565b6102aa6107d9565b60008163ffffffff16116102ff5760405162461bcd60e51b81526020600482015260176024820152764572726f722c207a65726f20706572696f6444656c746160481b60448201526064015b60405180910390fd5b6001805463ffffffff191663ffffffff92909216919091179055565b6103236107d9565b600087116103685760405162461bcd60e51b8152602060048201526012602482015271115c9c9bdc8b081e995c9bc8185b5bdd5b9d60721b60448201526064016102f6565b60008665ffffffffffff16116103c05760405162461bcd60e51b815260206004820152601860248201527f4572726f722c207a65726f207374617274506572696f6473000000000000000060448201526064016102f6565b60008563ffffffff16116104105760405162461bcd60e51b81526020600482015260176024820152764572726f722c207a65726f20706572696f6444656c746160481b60448201526064016102f6565b60008363ffffffff16116104665760405162461bcd60e51b815260206004820152601b60248201527f4572726f722c207a65726f20636f756e74416c6c506572696f6473000000000060448201526064016102f6565b60038790556000805465ffffffffffff60a01b1916600160a01b65ffffffffffff8916021790556104978386610dd5565b6104a79063ffffffff1687610d6a565b600080546001600160d01b0316600160d01b65ffffffffffff93909316929092029190911790556001805463ffffffff87811667ffffffffffffffff199092169190911764010000000087831602176fffffffffffffffff00000000000000001916600160401b8683160263ffffffff60601b191617600160601b8583160217909155633b9aca009061054590670de0b6b3a7640000908416610db6565b61054f9190610d94565b60025550505050505050565b6001600160a01b038316600090815260066020526040902054606090600184101561058557600193505b80841161075857610597816001610d52565b6105a18486610d52565b11156105c057836105b3826001610d52565b6105bd9190610e01565b92505b8267ffffffffffffffff8111156105d9576105d9610ea3565b60405190808252806020026020018201604052801561064a57816020015b60408051610100810182526000918101828152606082018390526080820183905260a0820183905260c0820183905260e08201839052815260208101919091528152602001906001900390816105f75790505b50915060005b83811015610756576001600160a01b03861660009081526005602052604081208161067b8489610d52565b81526020808201929092526040908101600020815160c081018352815465ffffffffffff8082168352660100000000000082041694820194909452600160601b9093046001600160801b039081169284019290925260018101548083166060850152600160801b900490911660808301526002015460a08201528451909150819085908490811061070e5761070e610e8d565b60209081029190910101515261072381610883565b84838151811061073557610735610e8d565b6020908102919091018101510152508061074e81610e5c565b915050610650565b505b509392505050565b6107686107d9565b6001600160a01b0381166107cd5760405162461bcd60e51b815260206004820152602660248201527f4f776e61626c653a206e6577206f776e657220697320746865207a65726f206160448201526564647265737360d01b60648201526084016102f6565b6107d681610833565b50565b6000546001600160a01b031633146102a05760405162461bcd60e51b815260206004820181905260248201527f4f776e61626c653a2063616c6c6572206973206e6f7420746865206f776e657260448201526064016102f6565b600080546001600160a01b038381166001600160a01b0319831681178455604051919092169283917f8be0079c531659141344cd1fd0a4f28419497f9722a3daafe3b4186f6b6457e09190a35050565b60006004546000141580156108bb575060015482516108b091640100000000900463ffffffff1690610d6a565b65ffffffffffff1642115b156109ea576020820151429065ffffffffffff1681106108e45750602082015165ffffffffffff165b6004546000906108fd6108f8600185610e01565b6109f7565b6109119069d3c21bcecceda1000000610db6565b61091b9190610d94565b84519091506000906109359065ffffffffffff1684610e01565b905060008560000151866020015161094d9190610e3d565b65ffffffffffff16905060008161096c84670de0b6b3a7640000610db6565b6109769190610d94565b9050670de0b6b3a76400008111156109935750670de0b6b3a76400005b69d3c21bcecceda1000000670de0b6b3a764000082868a606001516001600160801b03166109c19190610db6565b6109cb9190610db6565b6109d59190610d94565b6109df9190610d94565b979650505050505050565b506000919050565b919050565b60008054600160a01b900465ffffffffffff16821015610a1957506000919050565b60015460008054909163ffffffff1690610a4290600160a01b900465ffffffffffff1685610e01565b610a4c9190610d94565b600154909150600090600160601b900463ffffffff16821015610a8857610a74826001610d52565b600254610a819190610db6565b9050610b65565b600154600160401b900463ffffffff16821015610b5a57600154600254600091610ac091600160601b90910463ffffffff1690610db6565b600154909150600090610ae99063ffffffff600160601b8204811691600160401b900416610e18565b63ffffffff16610b0183670de0b6b3a7640000610e01565b610b0b9190610d94565b90506001600c9054906101000a900463ffffffff1663ffffffff16846001610b339190610d52565b610b3d9190610e01565b610b479082610db6565b610b519083610d52565b92505050610b65565b50670de0b6b3a76400005b670de0b6b3a764000081600354610b7c9190610db6565b610b869190610d94565b949350505050565b80356001600160a01b03811681146109f257600080fd5b803563ffffffff811681146109f257600080fd5b600060208284031215610bcb57600080fd5b610bd482610b8e565b9392505050565b600080600060608486031215610bf057600080fd5b610bf984610b8e565b95602085013595506040909401359392505050565b600080600080600080600060e0888a031215610c2957600080fd5b87359650602088013565ffffffffffff81168114610c4657600080fd5b9550610c5460408901610ba5565b9450610c6260608901610ba5565b9350610c7060808901610ba5565b9250610c7e60a08901610ba5565b9150610c8c60c08901610ba5565b905092959891949750929550565b600060208284031215610cac57600080fd5b610bd482610ba5565b602080825282518282018190526000919060409081850190868401855b82811015610d455781518051805165ffffffffffff9081168752888201511688870152868101516001600160801b03908116888801526060808301518216908801526080808301519091169087015260a0908101519086015286015160c085015260e09093019290850190600101610cd2565b5091979650505050505050565b60008219821115610d6557610d65610e77565b500190565b600065ffffffffffff808316818516808303821115610d8b57610d8b610e77565b01949350505050565b600082610db157634e487b7160e01b600052601260045260246000fd5b500490565b6000816000190483118215151615610dd057610dd0610e77565b500290565b600063ffffffff80831681851681830481118215151615610df857610df8610e77565b02949350505050565b600082821015610e1357610e13610e77565b500390565b600063ffffffff83811690831681811015610e3557610e35610e77565b039392505050565b600065ffffffffffff83811690831681811015610e3557610e35610e77565b6000600019821415610e7057610e70610e77565b5060010190565b634e487b7160e01b600052601160045260246000fd5b634e487b7160e01b600052603260045260246000fd5b634e487b7160e01b600052604160045260246000fdfea2646970667358221220e7cb4eb657064aa21fd5a652e1023aa451191e40d9900ab922660d5362905fdf64736f6c63430008070033",
  "linkReferences": {},
  "deployedLinkReferences": {}
}