{
  "_format": "hh-sol-artifact-1",
  "contractName": "UniswapV2AMM",
  "sourceName": "contracts/uniswap/UniswapV2AMM.sol",
  "abi": [
    {
      "inputs": [
        {
          "internalType": "address",
          "name": "_tokenUDS",
          "type": "address"
        },
        {
          "internalType": "address",
          "name": "_tokenUGOLD",
          "type": "address"
        }
      ],
      "stateMutability": "nonpayable",
      "type": "constructor"
    },
    {
      "anonymous": false,
      "inputs": [
        {
          "indexed": true,
          "internalType": "address",
          "name": "owner",
          "type": "address"
        },
        {
          "indexed": true,
          "internalType": "address",
          "name": "spender",
          "type": "address"
        },
        {
          "indexed": false,
          "internalType": "uint256",
          "name": "value",
          "type": "uint256"
        }
      ],
      "name": "Approval",
      "type": "event"
    },
    {
      "anonymous": false,
      "inputs": [
        {
          "indexed": true,
          "internalType": "address",
          "name": "sender",
          "type": "address"
        },
        {
          "indexed": false,
          "internalType": "uint256",
          "name": "amount0",
          "type": "uint256"
        },
        {
          "indexed": false,
          "internalType": "uint256",
          "name": "amount1",
          "type": "uint256"
        },
        {
          "indexed": true,
          "internalType": "address",
          "name": "to",
          "type": "address"
        }
      ],
      "name": "Burn",
      "type": "event"
    },
    {
      "anonymous": false,
      "inputs": [
        {
          "indexed": true,
          "internalType": "address",
          "name": "sender",
          "type": "address"
        },
        {
          "indexed": false,
          "internalType": "uint256",
          "name": "amount0",
          "type": "uint256"
        },
        {
          "indexed": false,
          "internalType": "uint256",
          "name": "amount1",
          "type": "uint256"
        }
      ],
      "name": "Mint",
      "type": "event"
    },
    {
      "anonymous": false,
      "inputs": [
        {
          "indexed": true,
          "internalType": "address",
          "name": "previousOwner",
          "type": "address"
        },
        {
          "indexed": true,
          "internalType": "address",
          "name": "newOwner",
          "type": "address"
        }
      ],
      "name": "OwnershipTransferred",
      "type": "event"
    },
    {
      "anonymous": false,
      "inputs": [
        {
          "indexed": true,
          "internalType": "address",
          "name": "sender",
          "type": "address"
        },
        {
          "indexed": false,
          "internalType": "uint256",
          "name": "amount0In",
          "type": "uint256"
        },
        {
          "indexed": false,
          "internalType": "uint256",
          "name": "amount1In",
          "type": "uint256"
        },
        {
          "indexed": false,
          "internalType": "uint256",
          "name": "amount0Out",
          "type": "uint256"
        },
        {
          "indexed": false,
          "internalType": "uint256",
          "name": "amount1Out",
          "type": "uint256"
        },
        {
          "indexed": true,
          "internalType": "address",
          "name": "to",
          "type": "address"
        }
      ],
      "name": "Swap",
      "type": "event"
    },
    {
      "anonymous": false,
      "inputs": [
        {
          "indexed": false,
          "internalType": "uint112",
          "name": "reserve0",
          "type": "uint112"
        },
        {
          "indexed": false,
          "internalType": "uint112",
          "name": "reserve1",
          "type": "uint112"
        }
      ],
      "name": "Sync",
      "type": "event"
    },
    {
      "anonymous": false,
      "inputs": [
        {
          "indexed": true,
          "internalType": "address",
          "name": "from",
          "type": "address"
        },
        {
          "indexed": true,
          "internalType": "address",
          "name": "to",
          "type": "address"
        },
        {
          "indexed": false,
          "internalType": "uint256",
          "name": "value",
          "type": "uint256"
        }
      ],
      "name": "Transfer",
      "type": "event"
    },
    {
      "inputs": [],
      "name": "DOMAIN_SEPARATOR",
      "outputs": [
        {
          "internalType": "bytes32",
          "name": "",
          "type": "bytes32"
        }
      ],
      "stateMutability": "view",
      "type": "function"
    },
    {
      "inputs": [],
      "name": "Fee0",
      "outputs": [
        {
          "internalType": "uint256",
          "name": "",
          "type": "uint256"
        }
      ],
      "stateMutability": "view",
      "type": "function"
    },
    {
      "inputs": [],
      "name": "Fee1",
      "outputs": [
        {
          "internalType": "uint256",
          "name": "",
          "type": "uint256"
        }
      ],
      "stateMutability": "view",
      "type": "function"
    },
    {
      "inputs": [],
      "name": "MINIMUM_LIQUIDITY",
      "outputs": [
        {
          "internalType": "uint256",
          "name": "",
          "type": "uint256"
        }
      ],
      "stateMutability": "view",
      "type": "function"
    },
    {
      "inputs": [],
      "name": "PERMIT_TYPEHASH",
      "outputs": [
        {
          "internalType": "bytes32",
          "name": "",
          "type": "bytes32"
        }
      ],
      "stateMutability": "view",
      "type": "function"
    },
    {
      "inputs": [
        {
          "internalType": "address",
          "name": "tokenA",
          "type": "address"
        },
        {
          "internalType": "address",
          "name": "tokenB",
          "type": "address"
        },
        {
          "internalType": "uint256",
          "name": "amountADesired",
          "type": "uint256"
        },
        {
          "internalType": "uint256",
          "name": "amountBDesired",
          "type": "uint256"
        },
        {
          "internalType": "uint256",
          "name": "amountAMin",
          "type": "uint256"
        },
        {
          "internalType": "uint256",
          "name": "amountBMin",
          "type": "uint256"
        },
        {
          "internalType": "address",
          "name": "to",
          "type": "address"
        },
        {
          "internalType": "uint256",
          "name": "deadline",
          "type": "uint256"
        }
      ],
      "name": "addLiquidity",
      "outputs": [
        {
          "internalType": "uint256",
          "name": "amountA",
          "type": "uint256"
        },
        {
          "internalType": "uint256",
          "name": "amountB",
          "type": "uint256"
        },
        {
          "internalType": "uint256",
          "name": "liquidity",
          "type": "uint256"
        }
      ],
      "stateMutability": "nonpayable",
      "type": "function"
    },
    {
      "inputs": [],
      "name": "allowForAll",
      "outputs": [
        {
          "internalType": "bool",
          "name": "",
          "type": "bool"
        }
      ],
      "stateMutability": "view",
      "type": "function"
    },
    {
      "inputs": [
        {
          "internalType": "address",
          "name": "",
          "type": "address"
        },
        {
          "internalType": "address",
          "name": "",
          "type": "address"
        }
      ],
      "name": "allowance",
      "outputs": [
        {
          "internalType": "uint256",
          "name": "",
          "type": "uint256"
        }
      ],
      "stateMutability": "view",
      "type": "function"
    },
    {
      "inputs": [
        {
          "internalType": "address",
          "name": "spender",
          "type": "address"
        },
        {
          "internalType": "uint256",
          "name": "value",
          "type": "uint256"
        }
      ],
      "name": "approve",
      "outputs": [
        {
          "internalType": "bool",
          "name": "",
          "type": "bool"
        }
      ],
      "stateMutability": "nonpayable",
      "type": "function"
    },
    {
      "inputs": [
        {
          "internalType": "address",
          "name": "",
          "type": "address"
        }
      ],
      "name": "balanceOf",
      "outputs": [
        {
          "internalType": "uint256",
          "name": "",
          "type": "uint256"
        }
      ],
      "stateMutability": "view",
      "type": "function"
    },
    {
      "inputs": [
        {
          "internalType": "address",
          "name": "to",
          "type": "address"
        }
      ],
      "name": "burn",
      "outputs": [
        {
          "internalType": "uint256",
          "name": "amount0",
          "type": "uint256"
        },
        {
          "internalType": "uint256",
          "name": "amount1",
          "type": "uint256"
        }
      ],
      "stateMutability": "nonpayable",
      "type": "function"
    },
    {
      "inputs": [],
      "name": "decimals",
      "outputs": [
        {
          "internalType": "uint8",
          "name": "",
          "type": "uint8"
        }
      ],
      "stateMutability": "view",
      "type": "function"
    },
    {
      "inputs": [
        {
          "internalType": "uint256",
          "name": "amountOut",
          "type": "uint256"
        },
        {
          "internalType": "address[]",
          "name": "path",
          "type": "address[]"
        }
      ],
      "name": "getAmountsIn",
      "outputs": [
        {
          "internalType": "uint256[]",
          "name": "amounts",
          "type": "uint256[]"
        }
      ],
      "stateMutability": "view",
      "type": "function"
    },
    {
      "inputs": [
        {
          "internalType": "uint256",
          "name": "amountIn",
          "type": "uint256"
        },
        {
          "internalType": "address[]",
          "name": "path",
          "type": "address[]"
        }
      ],
      "name": "getAmountsOut",
      "outputs": [
        {
          "internalType": "uint256[]",
          "name": "amounts",
          "type": "uint256[]"
        }
      ],
      "stateMutability": "view",
      "type": "function"
    },
    {
      "inputs": [],
      "name": "getReserves",
      "outputs": [
        {
          "internalType": "uint112",
          "name": "_reserve0",
          "type": "uint112"
        },
        {
          "internalType": "uint112",
          "name": "_reserve1",
          "type": "uint112"
        },
        {
          "internalType": "uint32",
          "name": "_blockTimestampLast",
          "type": "uint32"
        }
      ],
      "stateMutability": "view",
      "type": "function"
    },
    {
      "inputs": [
        {
          "internalType": "address",
          "name": "to",
          "type": "address"
        }
      ],
      "name": "mint",
      "outputs": [
        {
          "internalType": "uint256",
          "name": "liquidity",
          "type": "uint256"
        }
      ],
      "stateMutability": "nonpayable",
      "type": "function"
    },
    {
      "inputs": [],
      "name": "name",
      "outputs": [
        {
          "internalType": "string",
          "name": "",
          "type": "string"
        }
      ],
      "stateMutability": "view",
      "type": "function"
    },
    {
      "inputs": [
        {
          "internalType": "address",
          "name": "",
          "type": "address"
        }
      ],
      "name": "nonces",
      "outputs": [
        {
          "internalType": "uint256",
          "name": "",
          "type": "uint256"
        }
      ],
      "stateMutability": "view",
      "type": "function"
    },
    {
      "inputs": [],
      "name": "owner",
      "outputs": [
        {
          "internalType": "address",
          "name": "",
          "type": "address"
        }
      ],
      "stateMutability": "view",
      "type": "function"
    },
    {
      "inputs": [
        {
          "internalType": "address",
          "name": "owner",
          "type": "address"
        },
        {
          "internalType": "address",
          "name": "spender",
          "type": "address"
        },
        {
          "internalType": "uint256",
          "name": "value",
          "type": "uint256"
        },
        {
          "internalType": "uint256",
          "name": "deadline",
          "type": "uint256"
        },
        {
          "internalType": "uint8",
          "name": "v",
          "type": "uint8"
        },
        {
          "internalType": "bytes32",
          "name": "r",
          "type": "bytes32"
        },
        {
          "internalType": "bytes32",
          "name": "s",
          "type": "bytes32"
        }
      ],
      "name": "permit",
      "outputs": [],
      "stateMutability": "nonpayable",
      "type": "function"
    },
    {
      "inputs": [],
      "name": "price0CumulativeLast",
      "outputs": [
        {
          "internalType": "uint256",
          "name": "",
          "type": "uint256"
        }
      ],
      "stateMutability": "view",
      "type": "function"
    },
    {
      "inputs": [],
      "name": "price1CumulativeLast",
      "outputs": [
        {
          "internalType": "uint256",
          "name": "",
          "type": "uint256"
        }
      ],
      "stateMutability": "view",
      "type": "function"
    },
    {
      "inputs": [
        {
          "internalType": "uint256",
          "name": "amountA",
          "type": "uint256"
        },
        {
          "internalType": "uint256",
          "name": "reserveA",
          "type": "uint256"
        },
        {
          "internalType": "uint256",
          "name": "reserveB",
          "type": "uint256"
        }
      ],
      "name": "quote",
      "outputs": [
        {
          "internalType": "uint256",
          "name": "amountB",
          "type": "uint256"
        }
      ],
      "stateMutability": "pure",
      "type": "function"
    },
    {
      "inputs": [
        {
          "internalType": "address",
          "name": "tokenA",
          "type": "address"
        },
        {
          "internalType": "address",
          "name": "tokenB",
          "type": "address"
        },
        {
          "internalType": "uint256",
          "name": "liquidity",
          "type": "uint256"
        },
        {
          "internalType": "uint256",
          "name": "amountAMin",
          "type": "uint256"
        },
        {
          "internalType": "uint256",
          "name": "amountBMin",
          "type": "uint256"
        },
        {
          "internalType": "address",
          "name": "to",
          "type": "address"
        },
        {
          "internalType": "uint256",
          "name": "deadline",
          "type": "uint256"
        }
      ],
      "name": "removeLiquidity",
      "outputs": [
        {
          "internalType": "uint256",
          "name": "amountA",
          "type": "uint256"
        },
        {
          "internalType": "uint256",
          "name": "amountB",
          "type": "uint256"
        }
      ],
      "stateMutability": "nonpayable",
      "type": "function"
    },
    {
      "inputs": [
        {
          "internalType": "address",
          "name": "tokenA",
          "type": "address"
        },
        {
          "internalType": "address",
          "name": "tokenB",
          "type": "address"
        },
        {
          "internalType": "uint256",
          "name": "liquidity",
          "type": "uint256"
        },
        {
          "internalType": "uint256",
          "name": "amountAMin",
          "type": "uint256"
        },
        {
          "internalType": "uint256",
          "name": "amountBMin",
          "type": "uint256"
        },
        {
          "internalType": "address",
          "name": "to",
          "type": "address"
        },
        {
          "internalType": "uint256",
          "name": "deadline",
          "type": "uint256"
        },
        {
          "internalType": "bool",
          "name": "approveMax",
          "type": "bool"
        },
        {
          "internalType": "uint8",
          "name": "v",
          "type": "uint8"
        },
        {
          "internalType": "bytes32",
          "name": "r",
          "type": "bytes32"
        },
        {
          "internalType": "bytes32",
          "name": "s",
          "type": "bytes32"
        }
      ],
      "name": "removeLiquidityWithPermit",
      "outputs": [
        {
          "internalType": "uint256",
          "name": "amountA",
          "type": "uint256"
        },
        {
          "internalType": "uint256",
          "name": "amountB",
          "type": "uint256"
        }
      ],
      "stateMutability": "nonpayable",
      "type": "function"
    },
    {
      "inputs": [],
      "name": "renounceOwnership",
      "outputs": [],
      "stateMutability": "nonpayable",
      "type": "function"
    },
    {
      "inputs": [
        {
          "internalType": "bool",
          "name": "_Set",
          "type": "bool"
        }
      ],
      "name": "setAllowForAll",
      "outputs": [],
      "stateMutability": "nonpayable",
      "type": "function"
    },
    {
      "inputs": [
        {
          "internalType": "address",
          "name": "token",
          "type": "address"
        },
        {
          "internalType": "uint256",
          "name": "_Fee",
          "type": "uint256"
        }
      ],
      "name": "setFee",
      "outputs": [],
      "stateMutability": "nonpayable",
      "type": "function"
    },
    {
      "inputs": [
        {
          "internalType": "address",
          "name": "to",
          "type": "address"
        }
      ],
      "name": "skim",
      "outputs": [],
      "stateMutability": "nonpayable",
      "type": "function"
    },
    {
      "inputs": [
        {
          "internalType": "uint256",
          "name": "amount0Out",
          "type": "uint256"
        },
        {
          "internalType": "uint256",
          "name": "amount1Out",
          "type": "uint256"
        },
        {
          "internalType": "address",
          "name": "to",
          "type": "address"
        },
        {
          "internalType": "bytes",
          "name": "data",
          "type": "bytes"
        }
      ],
      "name": "swap",
      "outputs": [],
      "stateMutability": "nonpayable",
      "type": "function"
    },
    {
      "inputs": [
        {
          "internalType": "uint256",
          "name": "amountIn",
          "type": "uint256"
        },
        {
          "internalType": "uint256",
          "name": "amountOutMin",
          "type": "uint256"
        },
        {
          "internalType": "address[]",
          "name": "path",
          "type": "address[]"
        },
        {
          "internalType": "address",
          "name": "to",
          "type": "address"
        },
        {
          "internalType": "uint256",
          "name": "deadline",
          "type": "uint256"
        }
      ],
      "name": "swapExactTokensForTokens",
      "outputs": [
        {
          "internalType": "uint256[]",
          "name": "amounts",
          "type": "uint256[]"
        }
      ],
      "stateMutability": "nonpayable",
      "type": "function"
    },
    {
      "inputs": [
        {
          "internalType": "uint256",
          "name": "amountOut",
          "type": "uint256"
        },
        {
          "internalType": "uint256",
          "name": "amountInMax",
          "type": "uint256"
        },
        {
          "internalType": "address[]",
          "name": "path",
          "type": "address[]"
        },
        {
          "internalType": "address",
          "name": "to",
          "type": "address"
        },
        {
          "internalType": "uint256",
          "name": "deadline",
          "type": "uint256"
        }
      ],
      "name": "swapTokensForExactTokens",
      "outputs": [
        {
          "internalType": "uint256[]",
          "name": "amounts",
          "type": "uint256[]"
        }
      ],
      "stateMutability": "nonpayable",
      "type": "function"
    },
    {
      "inputs": [],
      "name": "symbol",
      "outputs": [
        {
          "internalType": "string",
          "name": "",
          "type": "string"
        }
      ],
      "stateMutability": "view",
      "type": "function"
    },
    {
      "inputs": [],
      "name": "sync",
      "outputs": [],
      "stateMutability": "nonpayable",
      "type": "function"
    },
    {
      "inputs": [],
      "name": "token0",
      "outputs": [
        {
          "internalType": "address",
          "name": "",
          "type": "address"
        }
      ],
      "stateMutability": "view",
      "type": "function"
    },
    {
      "inputs": [],
      "name": "token1",
      "outputs": [
        {
          "internalType": "address",
          "name": "",
          "type": "address"
        }
      ],
      "stateMutability": "view",
      "type": "function"
    },
    {
      "inputs": [],
      "name": "totalSupply",
      "outputs": [
        {
          "internalType": "uint256",
          "name": "",
          "type": "uint256"
        }
      ],
      "stateMutability": "view",
      "type": "function"
    },
    {
      "inputs": [
        {
          "internalType": "address",
          "name": "to",
          "type": "address"
        },
        {
          "internalType": "uint256",
          "name": "value",
          "type": "uint256"
        }
      ],
      "name": "transfer",
      "outputs": [
        {
          "internalType": "bool",
          "name": "",
          "type": "bool"
        }
      ],
      "stateMutability": "nonpayable",
      "type": "function"
    },
    {
      "inputs": [
        {
          "internalType": "address",
          "name": "from",
          "type": "address"
        },
        {
          "internalType": "address",
          "name": "to",
          "type": "address"
        },
        {
          "internalType": "uint256",
          "name": "value",
          "type": "uint256"
        }
      ],
      "name": "transferFrom",
      "outputs": [
        {
          "internalType": "bool",
          "name": "",
          "type": "bool"
        }
      ],
      "stateMutability": "nonpayable",
      "type": "function"
    },
    {
      "inputs": [
        {
          "internalType": "address",
          "name": "newOwner",
          "type": "address"
        }
      ],
      "name": "transferOwnership",
      "outputs": [],
      "stateMutability": "nonpayable",
      "type": "function"
    }
  ],
  "bytecode": "0x60806040526001600d553480156200001657600080fd5b5060405162003b0238038062003b028339810160408190526200003991620002de565b604080518082018252600a8152692ab734b9bbb0b8102b1960b11b6020918201528151808301835260018152603160f81b9082015281517f8b73c3c69bb8fe3d512ecc4cf759cc79239f7b179b0ffacaa9a75d522b39400f818301527fbfcc8ef98ffbf7b6c3fec7bf5185b566b9863e35a9d83acd49ad6824b5969738818401527fc89efdaa54c0f20c7adf612882df0950f5a951637e0307cdcb4c672f298b8bc660608201524660808201523060a0808301919091528351808303909101815260c0909101909252815191012060035562000115336200016d565b600060068190556007556200012b8282620001bf565b600980546001600160a01b0319166001600160a01b0392831617905560088054610100600160a81b031916610100939092169290920217905550620003169050565b600580546001600160a01b038381166001600160a01b0319831681179093556040519116919082907f8be0079c531659141344cd1fd0a4f28419497f9722a3daafe3b4186f6b6457e090600090a35050565b600080826001600160a01b0316846001600160a01b03161415620002385760405162461bcd60e51b815260206004820152602560248201527f556e697377617056324c6962726172793a204944454e544943414c5f41444452604482015264455353455360d81b60648201526084015b60405180910390fd5b826001600160a01b0316846001600160a01b0316106200025a5782846200025d565b83835b90925090506001600160a01b038216620002ba5760405162461bcd60e51b815260206004820152601e60248201527f556e697377617056324c6962726172793a205a45524f5f41444452455353000060448201526064016200022f565b9250929050565b80516001600160a01b0381168114620002d957600080fd5b919050565b60008060408385031215620002f257600080fd5b620002fd83620002c1565b91506200030d60208401620002c1565b90509250929050565b6137dc80620003266000396000f3fe608060405234801561001057600080fd5b50600436106102485760003560e01c80637ecebe001161013b578063bc25cf77116100b8578063e55156b51161007c578063e55156b51461059e578063e8e33700146105b1578063f2fde38b146105df578063f4019a5e146105f2578063fff6cae9146105fb57600080fd5b8063bc25cf7714610527578063d06ca61f1461053a578063d21220a71461054d578063d505accf14610560578063dd62ed3e1461057357600080fd5b8063a54bb512116100ff578063a54bb512146104d8578063a9059cbb146104e5578063ad615dec146104f8578063ba9a7a561461050b578063baa2abde1461051457600080fd5b80637ecebe001461045c5780638803dbee1461047c57806389afcb441461048f5780638da5cb5b146104a257806395d89b41146104b357600080fd5b806330adf81f116101c95780635a3d54931161018d5780635a3d5493146104055780636a6278421461040e57806370321dec1461042157806370a0823114610434578063715018a61461045457600080fd5b806330adf81f1461039f578063313ce567146103c65780633644e515146103e057806338ed1739146103e95780635909c0d5146103fc57600080fd5b80630dfe1681116102105780630dfe16811461030b57806318160ddd1461033b5780631f00ca74146103445780632195995c1461036457806323b872dd1461038c57600080fd5b8063022c0d9f1461024d57806305b63d361461026257806306fdde031461027e5780630902f1ac146102b4578063095ea7b3146102e8575b600080fd5b61026061025b366004613222565b610603565b005b61026b60065481565b6040519081526020015b60405180910390f35b6102a76040518060400160405280600a8152602001692ab734b9bbb0b8102b1960b11b81525081565b604051610275919061346c565b6102bc610b3e565b604080516001600160701b03948516815293909216602084015263ffffffff1690820152606001610275565b6102fb6102f63660046130e5565b610b68565b6040519015158152602001610275565b6008546103239061010090046001600160a01b031681565b6040516001600160a01b039091168152602001610275565b61026b60005481565b610357610352366004613162565b610b7f565b6040516102759190613428565b610377610372366004612f63565b610b92565b60408051928352602083019190915201610275565b6102fb61039a366004612ebd565b610bdb565b61026b7f6e71edae12b1b97f4d1f60370fef10105fa2faae0126114a169c64845d6126c981565b6103ce601281565b60405160ff9091168152602001610275565b61026b60035481565b6103576103f73660046132db565b610c6f565b61026b600b5481565b61026b600c5481565b61026b61041c366004612e6f565b610def565b61026061042f36600461310f565b6110af565b61026b610442366004612e6f565b60016020526000908152604090205481565b6102606110ca565b61026b61046a366004612e6f565b60046020526000908152604090205481565b61035761048a3660046132db565b6110de565b61037761049d366004612e6f565b6111b6565b6005546001600160a01b0316610323565b6102a7604051806040016040528060068152602001652aa72496ab1960d11b81525081565b6008546102fb9060ff1681565b6102fb6104f33660046130e5565b611525565b61026b61050636600461337d565b611532565b61026b6103e881565b610377610522366004612ef9565b611547565b610260610535366004612e6f565b61160d565b610357610548366004613162565b611735565b600954610323906001600160a01b031681565b61026061056e36600461307b565b611741565b61026b610581366004612e8a565b600260209081526000928352604080842090915290825290205481565b6102606105ac3660046130e5565b611955565b6105c46105bf366004613007565b6119d8565b60408051938452602084019290925290820152606001610275565b6102606105ed366004612e6f565b611a43565b61026b60075481565b610260611abc565b600d5460011461062e5760405162461bcd60e51b8152600401610625906134c2565b60405180910390fd5b6000600d55831515806106415750600083115b61069b5760405162461bcd60e51b815260206004820152602560248201527f556e697377617056323a20494e53554646494349454e545f4f55545055545f416044820152641353d5539560da1b6064820152608401610625565b6000806106a6610b3e565b5091509150816001600160701b0316861080156106cb5750806001600160701b031685105b6107215760405162461bcd60e51b815260206004820152602160248201527f556e697377617056323a20494e53554646494349454e545f4c495155494449546044820152605960f81b6064820152608401610625565b60085460095460009182916001600160a01b0361010090920482169190811690881682148015906107645750806001600160a01b0316886001600160a01b031614155b6107a85760405162461bcd60e51b8152602060048201526015602482015274556e697377617056323a20494e56414c49445f544f60581b6044820152606401610625565b89156107b9576107b982898c611c03565b88156107ca576107ca81898b611c03565b865115610836576040516304347a1760e21b81526001600160a01b038916906310d1e85c906108039033908e908e908d906004016133f1565b600060405180830381600087803b15801561081d57600080fd5b505af1158015610831573d6000803e3d6000fd5b505050505b6040516370a0823160e01b81523060048201526001600160a01b038316906370a082319060240160206040518083038186803b15801561087557600080fd5b505afa158015610889573d6000803e3d6000fd5b505050506040513d601f19601f820116820180604052508101906108ad9190613149565b6040516370a0823160e01b81523060048201529094506001600160a01b038216906370a082319060240160206040518083038186803b1580156108ef57600080fd5b505afa158015610903573d6000803e3d6000fd5b505050506040513d601f19601f820116820180604052508101906109279190613149565b92505050600088856001600160701b03166109429190613678565b831161094f57600061096c565b610962896001600160701b038716613678565b61096c9084613678565b90506000610983896001600160701b038716613678565b83116109905760006109ad565b6109a3896001600160701b038716613678565b6109ad9084613678565b905060008211806109be5750600081115b610a165760405162461bcd60e51b8152602060048201526024808201527f556e697377617056323a20494e53554646494349454e545f494e5055545f414d60448201526313d5539560e21b6064820152608401610625565b6000610a42610a3060065485611d4e90919063ffffffff16565b610a3c876103e8611d4e565b90611db5565b90506000610a5e610a3060075485611d4e90919063ffffffff16565b9050610a83620f4240610a7d6001600160701b038b8116908b16611d4e565b90611d4e565b610a8d8383611d4e565b1015610aca5760405162461bcd60e51b815260206004820152600c60248201526b556e697377617056323a204b60a01b6044820152606401610625565b5050610ad884848888611e0b565b60408051838152602081018390529081018b9052606081018a90526001600160a01b0389169033907fd78ad95fa46c994b6551d0da85fc275fe613ce37657fb8d5e3d130840159d8229060800160405180910390a350506001600d555050505050505050565b600a546001600160701b0380821692600160701b830490911691600160e01b900463ffffffff1690565b6000610b75338484611ff7565b5060015b92915050565b6060610b8b8383612059565b9392505050565b600080600086610ba2578b610ba6565b6000195b9050610bb73330838b8a8a8a611741565b610bc68e8e8e8e8e8e8e611547565b909f909e509c50505050505050505050505050565b6001600160a01b038316600090815260026020908152604080832033845290915281205460001914610c5a576001600160a01b0384166000908152600260209081526040808320338452909152902054610c359083611db5565b6001600160a01b03851660009081526002602090815260408083203384529091529020555b610c65848484612243565b5060019392505050565b60608142811015610c925760405162461bcd60e51b815260040161062590613578565b610ccf888787808060200260200160405190810160405280939291908181526020018383602002808284376000920191909152506122e992505050565b9150868260018451610ce19190613678565b81518110610cf157610cf161376c565b60200260200101511015610d585760405162461bcd60e51b815260206004820152602860248201527f556e69737761705632414d4d3a20494e53554646494349454e545f4f555450556044820152671517d05353d5539560c21b6064820152608401610625565b610da586866000818110610d6e57610d6e61376c565b9050602002016020810190610d839190612e6f565b333085600081518110610d9857610d9861376c565b60200260200101516124b6565b610de4828787808060200260200160405190810160405280939291908181526020018383602002808284376000920191909152508992506125e6915050565b509695505050505050565b6000600d54600114610e135760405162461bcd60e51b8152600401610625906134c2565b6000600d5560085460ff16610e2a57610e2a6126ef565b600080610e35610b3e565b506008546040516370a0823160e01b81523060048201529294509092506000916101009091046001600160a01b0316906370a082319060240160206040518083038186803b158015610e8657600080fd5b505afa158015610e9a573d6000803e3d6000fd5b505050506040513d601f19601f82011682018060405250810190610ebe9190613149565b6009546040516370a0823160e01b81523060048201529192506000916001600160a01b03909116906370a082319060240160206040518083038186803b158015610f0757600080fd5b505afa158015610f1b573d6000803e3d6000fd5b505050506040513d601f19601f82011682018060405250810190610f3f9190613149565b90506000610f56836001600160701b038716611db5565b90506000610f6d836001600160701b038716611db5565b60005490915080610fa457610f906103e8610a3c610f8b8686611d4e565b612749565b9750610f9f60006103e86127b9565b610feb565b610fe86001600160701b038816610fbb8584611d4e565b610fc59190613616565b6001600160701b038816610fd98585611d4e565b610fe39190613616565b612848565b97505b6000881161104c5760405162461bcd60e51b815260206004820152602860248201527f556e697377617056323a20494e53554646494349454e545f4c495155494449546044820152671657d3525395115160c21b6064820152608401610625565b61105689896127b9565b61106285858989611e0b565b604080518481526020810184905233917f4c209b5fc8ad50758f13e2e1088ba56a560dff690a1c6fef26394f4c03821c4f910160405180910390a250506001600d55509395945050505050565b6110b76126ef565b6008805460ff1916911515919091179055565b6110d26126ef565b6110dc600061285e565b565b606081428110156111015760405162461bcd60e51b815260040161062590613578565b61113e8887878080602002602001604051908101604052809392919081815260200183836020028082843760009201919091525061205992505050565b915086826000815181106111545761115461376c565b60200260200101511115610d585760405162461bcd60e51b8152602060048201526024808201527f556e69737761705632414d4d3a204558434553534956455f494e5055545f414d60448201526313d5539560e21b6064820152608401610625565b600080600d546001146111db5760405162461bcd60e51b8152600401610625906134c2565b6000600d819055806111eb610b3e565b506008546009546040516370a0823160e01b815230600482015293955091935061010090046001600160a01b039081169291169060009083906370a082319060240160206040518083038186803b15801561124557600080fd5b505afa158015611259573d6000803e3d6000fd5b505050506040513d601f19601f8201168201806040525081019061127d9190613149565b6040516370a0823160e01b81523060048201529091506000906001600160a01b038416906370a082319060240160206040518083038186803b1580156112c257600080fd5b505afa1580156112d6573d6000803e3d6000fd5b505050506040513d601f19601f820116820180604052508101906112fa9190613149565b306000908152600160205260408120549054919250908061131b8386611d4e565b6113259190613616565b9950806113328385611d4e565b61133c9190613616565b985060008a11801561134e5750600089115b6113ab5760405162461bcd60e51b815260206004820152602860248201527f556e697377617056323a20494e53554646494349454e545f4c495155494449546044820152671657d0955493915160c21b6064820152608401610625565b6113b530836128b0565b6113c0868c8c611c03565b6113cb858c8b611c03565b6040516370a0823160e01b81523060048201526001600160a01b038716906370a082319060240160206040518083038186803b15801561140a57600080fd5b505afa15801561141e573d6000803e3d6000fd5b505050506040513d601f19601f820116820180604052508101906114429190613149565b6040516370a0823160e01b81523060048201529094506001600160a01b038616906370a082319060240160206040518083038186803b15801561148457600080fd5b505afa158015611498573d6000803e3d6000fd5b505050506040513d601f19601f820116820180604052508101906114bc9190613149565b92506114ca84848a8a611e0b565b604080518b8152602081018b90526001600160a01b038d169133917fdccd412f0b1252819cb1fd330b93224ca42612892bb3f4f789976e6d81936496910160405180910390a350505050505050506001600d81905550915091565b6000610b75338484612243565b600061153f84848461293a565b949350505050565b600080824281101561156b5760405162461bcd60e51b815260040161062590613578565b6115753089611525565b50600080611582876111b6565b9150915060006115928d8d6129da565b509050806001600160a01b03168d6001600160a01b0316146115b55781836115b8565b82825b9096509450898610156115dd5760405162461bcd60e51b81526004016106259061347f565b888510156115fd5760405162461bcd60e51b8152600401610625906134ed565b5050505097509795505050505050565b600d5460011461162f5760405162461bcd60e51b8152600401610625906134c2565b6000600d55600854600954600a546040516370a0823160e01b81523060048201526101009093046001600160a01b03908116939216916116de91849186916116d9916001600160701b039091169084906370a08231906024015b60206040518083038186803b1580156116a157600080fd5b505afa1580156116b5573d6000803e3d6000fd5b505050506040513d601f19601f82011682018060405250810190610a3c9190613149565b611c03565b600a546040516370a0823160e01b815230600482015261172b91839186916116d991600160701b9091046001600160701b0316906001600160a01b038516906370a0823190602401611689565b50506001600d5550565b6060610b8b83836122e9565b428410156117865760405162461bcd60e51b8152602060048201526012602482015271155b9a5cddd85c158c8e881156141254915160721b6044820152606401610625565b6003546001600160a01b038816600090815260046020526040812080549192917f6e71edae12b1b97f4d1f60370fef10105fa2faae0126114a169c64845d6126c9918b918b918b9190876117d9836136fb565b909155506040805160208101969096526001600160a01b0394851690860152929091166060840152608083015260a082015260c0810187905260e0016040516020818303038152906040528051906020012060405160200161185292919061190160f01b81526002810192909252602282015260420190565b60408051601f198184030181528282528051602091820120600080855291840180845281905260ff88169284019290925260608301869052608083018590529092509060019060a0016020604051602081039080840390855afa1580156118bd573d6000803e3d6000fd5b5050604051601f1901519150506001600160a01b038116158015906118f35750886001600160a01b0316816001600160a01b0316145b61193f5760405162461bcd60e51b815260206004820152601c60248201527f556e697377617056323a20494e56414c49445f5349474e4154555245000000006044820152606401610625565b61194a898989611ff7565b505050505050505050565b61195d6126ef565b6008546001600160a01b0383811661010090920416141561197e5760065550565b6009546001600160a01b038381169116141561199a5760075550565b60405162461bcd60e51b81526020600482015260136024820152724572726f7220746f6b656e206164647265737360681b6044820152606401610625565b600080600083428110156119fe5760405162461bcd60e51b815260040161062590613578565b611a0c8c8c8c8c8c8c612ad2565b9094509250611a1d8c3330876124b6565b611a298b3330866124b6565b611a3286610def565b915050985098509895505050505050565b611a4b6126ef565b6001600160a01b038116611ab05760405162461bcd60e51b815260206004820152602660248201527f4f776e61626c653a206e6577206f776e657220697320746865207a65726f206160448201526564647265737360d01b6064820152608401610625565b611ab98161285e565b50565b600d54600114611ade5760405162461bcd60e51b8152600401610625906134c2565b6000600d556008546040516370a0823160e01b8152306004820152611bfc9161010090046001600160a01b0316906370a082319060240160206040518083038186803b158015611b2d57600080fd5b505afa158015611b41573d6000803e3d6000fd5b505050506040513d601f19601f82011682018060405250810190611b659190613149565b6009546040516370a0823160e01b81523060048201526001600160a01b03909116906370a082319060240160206040518083038186803b158015611ba857600080fd5b505afa158015611bbc573d6000803e3d6000fd5b505050506040513d601f19601f82011682018060405250810190611be09190613149565b600a546001600160701b0380821691600160701b900416611e0b565b6001600d55565b604080518082018252601981527f7472616e7366657228616464726573732c75696e74323536290000000000000060209182015281516001600160a01b0385811660248301526044808301869052845180840390910181526064909201845291810180516001600160e01b031663a9059cbb60e01b17905291516000928392871691611c8f91906133d5565b6000604051808303816000865af19150503d8060008114611ccc576040519150601f19603f3d011682016040523d82523d6000602084013e611cd1565b606091505b5091509150818015611cfb575080511580611cfb575080806020019051810190611cfb919061312c565b611d475760405162461bcd60e51b815260206004820152601a60248201527f556e697377617056323a205452414e534645525f4641494c45440000000000006044820152606401610625565b5050505050565b6000811580611d7257508282611d648183613659565b9250611d709083613616565b145b610b795760405162461bcd60e51b815260206004820152601460248201527364732d6d6174682d6d756c2d6f766572666c6f7760601b6044820152606401610625565b600082611dc28382613678565b9150811115610b795760405162461bcd60e51b815260206004820152601560248201527464732d6d6174682d7375622d756e646572666c6f7760581b6044820152606401610625565b6001600160701b038411801590611e2957506001600160701b038311155b611e6b5760405162461bcd60e51b8152602060048201526013602482015272556e697377617056323a204f564552464c4f5760681b6044820152606401610625565b6000611e7c64010000000042613716565b600a54909150600090611e9c90600160e01b900463ffffffff168361368f565b905060008163ffffffff16118015611ebc57506001600160701b03841615155b8015611ed057506001600160701b03831615155b15611f5f578063ffffffff16611ef885611ee986612b99565b6001600160e01b031690612bb2565b6001600160e01b0316611f0b9190613659565b600b6000828254611f1c91906135d8565b909155505063ffffffff8116611f3584611ee987612b99565b6001600160e01b0316611f489190613659565b600c6000828254611f5991906135d8565b90915550505b600a805463ffffffff8416600160e01b026001600160e01b036001600160701b03898116600160701b9081026001600160e01b03199095168c83161794909417918216831794859055604080519382169282169290921783529290930490911660208201527f1c411e9a96e071241c2f21f7726b17ae89e3cab4c78be50e062b03a9fffbbad1910160405180910390a1505050505050565b6001600160a01b0383811660008181526002602090815260408083209487168084529482529182902085905590518481527f8c5be1e5ebec7d5bd14f71427d1e84f3dd0314c0f7b2291e5b200ac8c7c3b92591015b60405180910390a3505050565b606081516002146120ac5760405162461bcd60e51b815260206004820152601e60248201527f556e697377617056324c6962726172793a20494e56414c49445f5041544800006044820152606401610625565b815167ffffffffffffffff8111156120c6576120c6613782565b6040519080825280602002602001820160405280156120ef578160200160208202803683370190505b5090508281600183516121029190613678565b815181106121125761211261376c565b60200260200101818152505060006001835161212e9190613678565b90505b801561223c5760008061218085612149600186613678565b815181106121595761215961376c565b60200260200101518685815181106121735761217361376c565b6020026020010151612bc7565b600854919350915060009061010090046001600160a01b0316866121a5600187613678565b815181106121b5576121b561376c565b60200260200101516001600160a01b0316146121d3576007546121d7565b6006545b90506121fe8585815181106121ee576121ee61376c565b6020026020010151848484612c2c565b8561220a600187613678565b8151811061221a5761221a61376c565b6020026020010181815250505050508080612234906136e4565b915050612131565b5092915050565b6001600160a01b0383166000908152600160205260409020546122669082611db5565b6001600160a01b0380851660009081526001602052604080822093909355908416815220546122959082612d0f565b6001600160a01b0380841660008181526001602052604090819020939093559151908516907fddf252ad1be2c89b69c2b068fc378daa952ba7f163c4a11628f55a4df523b3ef9061204c9085815260200190565b6060815160021461233c5760405162461bcd60e51b815260206004820152601e60248201527f556e697377617056324c6962726172793a20494e56414c49445f5041544800006044820152606401610625565b815167ffffffffffffffff81111561235657612356613782565b60405190808252806020026020018201604052801561237f578160200160208202803683370190505b50905082816000815181106123965761239661376c565b60200260200101818152505060005b600183516123b39190613678565b81101561223c576000806123f88584815181106123d2576123d261376c565b6020026020010151868560016123e891906135d8565b815181106121735761217361376c565b915091506000600860019054906101000a90046001600160a01b03166001600160a01b031686858151811061242f5761242f61376c565b60200260200101516001600160a01b03161461244d57600754612451565b6006545b90506124788585815181106124685761246861376c565b6020026020010151848484612d64565b856124848660016135d8565b815181106124945761249461376c565b60200260200101818152505050505080806124ae906136fb565b9150506123a5565b604080516001600160a01b0385811660248301528481166044830152606480830185905283518084039091018152608490920183526020820180516001600160e01b03166323b872dd60e01b179052915160009283929088169161251a91906133d5565b6000604051808303816000865af19150503d8060008114612557576040519150601f19603f3d011682016040523d82523d6000602084013e61255c565b606091505b5091509150818015612586575080511580612586575080806020019051810190612586919061312c565b6125de5760405162461bcd60e51b8152602060048201526024808201527f5472616e7366657248656c7065723a205452414e534645525f46524f4d5f46416044820152631253115160e21b6064820152608401610625565b505050505050565b815160021461262b5760405162461bcd60e51b815260206004820152601160248201527008ae4e4dee440e0c2e8d040d8cadccee8d607b1b6044820152606401610625565b600080836000815181106126415761264161376c565b60200260200101518460018151811061265c5761265c61376c565b602002602001015191509150600061267483836129da565b50905060008660018151811061268c5761268c61376c565b60200260200101519050600080836001600160a01b0316866001600160a01b0316146126ba578260006126be565b6000835b604080516000815260208101909152919350915087906126e390849084908490610603565b50505050505050505050565b6005546001600160a01b031633146110dc5760405162461bcd60e51b815260206004820181905260248201527f4f776e61626c653a2063616c6c6572206973206e6f7420746865206f776e65726044820152606401610625565b600060038211156127aa5750806000612763600283613616565b61276e9060016135d8565b90505b818110156127a4579050806002816127898186613616565b61279391906135d8565b61279d9190613616565b9050612771565b50919050565b81156127b4575060015b919050565b6000546127c69082612d0f565b60009081556001600160a01b0383168152600160205260409020546127eb9082612d0f565b6001600160a01b0383166000818152600160205260408082209390935591519091907fddf252ad1be2c89b69c2b068fc378daa952ba7f163c4a11628f55a4df523b3ef9061283c9085815260200190565b60405180910390a35050565b60008183106128575781610b8b565b5090919050565b600580546001600160a01b038381166001600160a01b0319831681179093556040519116919082907f8be0079c531659141344cd1fd0a4f28419497f9722a3daafe3b4186f6b6457e090600090a35050565b6001600160a01b0382166000908152600160205260409020546128d39082611db5565b6001600160a01b038316600090815260016020526040812091909155546128fa9082611db5565b60009081556040518281526001600160a01b038416907fddf252ad1be2c89b69c2b068fc378daa952ba7f163c4a11628f55a4df523b3ef9060200161283c565b60008084116129995760405162461bcd60e51b815260206004820152602560248201527f556e697377617056324c6962726172793a20494e53554646494349454e545f416044820152641353d5539560da1b6064820152608401610625565b6000831180156129a95750600082115b6129c55760405162461bcd60e51b815260040161062590613530565b826129d08584611d4e565b61153f9190613616565b600080826001600160a01b0316846001600160a01b03161415612a4d5760405162461bcd60e51b815260206004820152602560248201527f556e697377617056324c6962726172793a204944454e544943414c5f41444452604482015264455353455360d81b6064820152608401610625565b826001600160a01b0316846001600160a01b031610612a6d578284612a70565b83835b90925090506001600160a01b038216612acb5760405162461bcd60e51b815260206004820152601e60248201527f556e697377617056324c6962726172793a205a45524f5f4144445245535300006044820152606401610625565b9250929050565b600080600080612ae28a8a612bc7565b91509150816000148015612af4575080155b15612b0457879350869250612b8c565b6000612b1189848461293a565b9050878111612b455785811015612b3a5760405162461bcd60e51b8152600401610625906134ed565b889450925082612b8a565b6000612b5289848661293a565b905089811115612b6457612b6461372a565b87811015612b845760405162461bcd60e51b81526004016106259061347f565b94508793505b505b5050965096945050505050565b6000610b79600160701b6001600160701b03841661362a565b6000610b8b6001600160701b038316846135f0565b6000806000612bd685856129da565b509050600080612be4610b3e565b506001600160701b031691506001600160701b03169150826001600160a01b0316876001600160a01b031614612c1b578082612c1e565b81815b909890975095505050505050565b6000808511612c925760405162461bcd60e51b815260206004820152602c60248201527f556e697377617056324c6962726172793a20494e53554646494349454e545f4f60448201526b155514155517d05353d5539560a21b6064820152608401610625565b600084118015612ca25750600083115b612cbe5760405162461bcd60e51b815260040161062590613530565b6000612cd06103e8610a7d8789611d4e565b90506000612ced612ce3856103e8613678565b610a7d878a611db5565b9050612d046001612cfe8385613616565b90612d0f565b979650505050505050565b600082612d1c83826135d8565b9150811015610b795760405162461bcd60e51b815260206004820152601460248201527364732d6d6174682d6164642d6f766572666c6f7760601b6044820152606401610625565b6000808511612dc95760405162461bcd60e51b815260206004820152602b60248201527f556e697377617056324c6962726172793a20494e53554646494349454e545f4960448201526a1394155517d05353d5539560aa1b6064820152608401610625565b600084118015612dd95750600083115b612df55760405162461bcd60e51b815260040161062590613530565b6000612e0d612e06846103e8613678565b8790611d4e565b90506000612e1b8286611d4e565b90506000612e2f83612cfe896103e8611d4e565b9050612e3b8183613616565b98975050505050505050565b80356001600160a01b03811681146127b457600080fd5b803560ff811681146127b457600080fd5b600060208284031215612e8157600080fd5b610b8b82612e47565b60008060408385031215612e9d57600080fd5b612ea683612e47565b9150612eb460208401612e47565b90509250929050565b600080600060608486031215612ed257600080fd5b612edb84612e47565b9250612ee960208501612e47565b9150604084013590509250925092565b600080600080600080600060e0888a031215612f1457600080fd5b612f1d88612e47565b9650612f2b60208901612e47565b9550604088013594506060880135935060808801359250612f4e60a08901612e47565b915060c0880135905092959891949750929550565b60008060008060008060008060008060006101608c8e031215612f8557600080fd5b612f8e8c612e47565b9a50612f9c60208d01612e47565b995060408c0135985060608c0135975060808c01359650612fbf60a08d01612e47565b955060c08c0135945060e08c0135612fd681613798565b9350612fe56101008d01612e5e565b92506101208c013591506101408c013590509295989b509295989b9093969950565b600080600080600080600080610100898b03121561302457600080fd5b61302d89612e47565b975061303b60208a01612e47565b965060408901359550606089013594506080890135935060a0890135925061306560c08a01612e47565b915060e089013590509295985092959890939650565b600080600080600080600060e0888a03121561309657600080fd5b61309f88612e47565b96506130ad60208901612e47565b955060408801359450606088013593506130c960808901612e5e565b925060a0880135915060c0880135905092959891949750929550565b600080604083850312156130f857600080fd5b61310183612e47565b946020939093013593505050565b60006020828403121561312157600080fd5b8135610b8b81613798565b60006020828403121561313e57600080fd5b8151610b8b81613798565b60006020828403121561315b57600080fd5b5051919050565b6000806040838503121561317557600080fd5b8235915060208084013567ffffffffffffffff8082111561319557600080fd5b818601915086601f8301126131a957600080fd5b8135818111156131bb576131bb613782565b8060051b91506131cc8483016135a7565b8181528481019084860184860187018b10156131e757600080fd5b600095505b83861015613211576131fd81612e47565b8352600195909501949186019186016131ec565b508096505050505050509250929050565b6000806000806080858703121561323857600080fd5b84359350602080860135935061325060408701612e47565b9250606086013567ffffffffffffffff8082111561326d57600080fd5b818801915088601f83011261328157600080fd5b81358181111561329357613293613782565b6132a5601f8201601f191685016135a7565b915080825289848285010111156132bb57600080fd5b808484018584013760008482840101525080935050505092959194509250565b60008060008060008060a087890312156132f457600080fd5b8635955060208701359450604087013567ffffffffffffffff8082111561331a57600080fd5b818901915089601f83011261332e57600080fd5b81358181111561333d57600080fd5b8a60208260051b850101111561335257600080fd5b60208301965080955050505061336a60608801612e47565b9150608087013590509295509295509295565b60008060006060848603121561339257600080fd5b505081359360208301359350604090920135919050565b600081518084526133c18160208601602086016136b4565b601f01601f19169290920160200192915050565b600082516133e78184602087016136b4565b9190910192915050565b60018060a01b038516815283602082015282604082015260806060820152600061341e60808301846133a9565b9695505050505050565b6020808252825182820181905260009190848201906040850190845b8181101561346057835183529284019291840191600101613444565b50909695505050505050565b602081526000610b8b60208301846133a9565b60208082526023908201527f556e69737761705632414d4d3a20494e53554646494349454e545f415f414d4f60408201526215539560ea1b606082015260800190565b602080825260119082015270155b9a5cddd85c158c8e881313d0d2d151607a1b604082015260600190565b60208082526023908201527f556e69737761705632414d4d3a20494e53554646494349454e545f425f414d4f60408201526215539560ea1b606082015260800190565b60208082526028908201527f556e697377617056324c6962726172793a20494e53554646494349454e545f4c604082015267495155494449545960c01b606082015260800190565b602080825260159082015274155b9a5cddd85c158c9053534e8811561412549151605a1b604082015260600190565b604051601f8201601f1916810167ffffffffffffffff811182821017156135d0576135d0613782565b604052919050565b600082198211156135eb576135eb613740565b500190565b60006001600160e01b038381168061360a5761360a613756565b92169190910492915050565b60008261362557613625613756565b500490565b60006001600160e01b038281168482168115158284048211161561365057613650613740565b02949350505050565b600081600019048311821515161561367357613673613740565b500290565b60008282101561368a5761368a613740565b500390565b600063ffffffff838116908316818110156136ac576136ac613740565b039392505050565b60005b838110156136cf5781810151838201526020016136b7565b838111156136de576000848401525b50505050565b6000816136f3576136f3613740565b506000190190565b600060001982141561370f5761370f613740565b5060010190565b60008261372557613725613756565b500690565b634e487b7160e01b600052600160045260246000fd5b634e487b7160e01b600052601160045260246000fd5b634e487b7160e01b600052601260045260246000fd5b634e487b7160e01b600052603260045260246000fd5b634e487b7160e01b600052604160045260246000fd5b8015158114611ab957600080fdfea2646970667358221220d64bec399b390eb688598d48f6b0e58fe13e3edef4e5ddb3b1be904d3a7cfe5464736f6c63430008070033",
  "linkReferences": {},
  "deployedLinkReferences": {}
}