{
  "_format": "hh-sol-artifact-1",
  "contractName": "UniswapV2Pair",
  "sourceName": "contracts/uniswap/UniswapV2Pair.sol",
  "abi": [
    {
      "inputs": [],
      "stateMutability": "nonpayable",
      "type": "constructor"
    },
    {
      "anonymous": false,
      "inputs": [
        {
          "indexed": true,
          "internalType": "address",
          "name": "owner",
          "type": "address"
        },
        {
          "indexed": true,
          "internalType": "address",
          "name": "spender",
          "type": "address"
        },
        {
          "indexed": false,
          "internalType": "uint256",
          "name": "value",
          "type": "uint256"
        }
      ],
      "name": "Approval",
      "type": "event"
    },
    {
      "anonymous": false,
      "inputs": [
        {
          "indexed": true,
          "internalType": "address",
          "name": "sender",
          "type": "address"
        },
        {
          "indexed": false,
          "internalType": "uint256",
          "name": "amount0",
          "type": "uint256"
        },
        {
          "indexed": false,
          "internalType": "uint256",
          "name": "amount1",
          "type": "uint256"
        },
        {
          "indexed": true,
          "internalType": "address",
          "name": "to",
          "type": "address"
        }
      ],
      "name": "Burn",
      "type": "event"
    },
    {
      "anonymous": false,
      "inputs": [
        {
          "indexed": true,
          "internalType": "address",
          "name": "sender",
          "type": "address"
        },
        {
          "indexed": false,
          "internalType": "uint256",
          "name": "amount0",
          "type": "uint256"
        },
        {
          "indexed": false,
          "internalType": "uint256",
          "name": "amount1",
          "type": "uint256"
        }
      ],
      "name": "Mint",
      "type": "event"
    },
    {
      "anonymous": false,
      "inputs": [
        {
          "indexed": true,
          "internalType": "address",
          "name": "previousOwner",
          "type": "address"
        },
        {
          "indexed": true,
          "internalType": "address",
          "name": "newOwner",
          "type": "address"
        }
      ],
      "name": "OwnershipTransferred",
      "type": "event"
    },
    {
      "anonymous": false,
      "inputs": [
        {
          "indexed": true,
          "internalType": "address",
          "name": "sender",
          "type": "address"
        },
        {
          "indexed": false,
          "internalType": "uint256",
          "name": "amount0In",
          "type": "uint256"
        },
        {
          "indexed": false,
          "internalType": "uint256",
          "name": "amount1In",
          "type": "uint256"
        },
        {
          "indexed": false,
          "internalType": "uint256",
          "name": "amount0Out",
          "type": "uint256"
        },
        {
          "indexed": false,
          "internalType": "uint256",
          "name": "amount1Out",
          "type": "uint256"
        },
        {
          "indexed": true,
          "internalType": "address",
          "name": "to",
          "type": "address"
        }
      ],
      "name": "Swap",
      "type": "event"
    },
    {
      "anonymous": false,
      "inputs": [
        {
          "indexed": false,
          "internalType": "uint112",
          "name": "reserve0",
          "type": "uint112"
        },
        {
          "indexed": false,
          "internalType": "uint112",
          "name": "reserve1",
          "type": "uint112"
        }
      ],
      "name": "Sync",
      "type": "event"
    },
    {
      "anonymous": false,
      "inputs": [
        {
          "indexed": true,
          "internalType": "address",
          "name": "from",
          "type": "address"
        },
        {
          "indexed": true,
          "internalType": "address",
          "name": "to",
          "type": "address"
        },
        {
          "indexed": false,
          "internalType": "uint256",
          "name": "value",
          "type": "uint256"
        }
      ],
      "name": "Transfer",
      "type": "event"
    },
    {
      "inputs": [],
      "name": "DOMAIN_SEPARATOR",
      "outputs": [
        {
          "internalType": "bytes32",
          "name": "",
          "type": "bytes32"
        }
      ],
      "stateMutability": "view",
      "type": "function"
    },
    {
      "inputs": [],
      "name": "Fee0",
      "outputs": [
        {
          "internalType": "uint256",
          "name": "",
          "type": "uint256"
        }
      ],
      "stateMutability": "view",
      "type": "function"
    },
    {
      "inputs": [],
      "name": "Fee1",
      "outputs": [
        {
          "internalType": "uint256",
          "name": "",
          "type": "uint256"
        }
      ],
      "stateMutability": "view",
      "type": "function"
    },
    {
      "inputs": [],
      "name": "MINIMUM_LIQUIDITY",
      "outputs": [
        {
          "internalType": "uint256",
          "name": "",
          "type": "uint256"
        }
      ],
      "stateMutability": "view",
      "type": "function"
    },
    {
      "inputs": [],
      "name": "PERMIT_TYPEHASH",
      "outputs": [
        {
          "internalType": "bytes32",
          "name": "",
          "type": "bytes32"
        }
      ],
      "stateMutability": "view",
      "type": "function"
    },
    {
      "inputs": [],
      "name": "allowForAll",
      "outputs": [
        {
          "internalType": "bool",
          "name": "",
          "type": "bool"
        }
      ],
      "stateMutability": "view",
      "type": "function"
    },
    {
      "inputs": [
        {
          "internalType": "address",
          "name": "",
          "type": "address"
        },
        {
          "internalType": "address",
          "name": "",
          "type": "address"
        }
      ],
      "name": "allowance",
      "outputs": [
        {
          "internalType": "uint256",
          "name": "",
          "type": "uint256"
        }
      ],
      "stateMutability": "view",
      "type": "function"
    },
    {
      "inputs": [
        {
          "internalType": "address",
          "name": "spender",
          "type": "address"
        },
        {
          "internalType": "uint256",
          "name": "value",
          "type": "uint256"
        }
      ],
      "name": "approve",
      "outputs": [
        {
          "internalType": "bool",
          "name": "",
          "type": "bool"
        }
      ],
      "stateMutability": "nonpayable",
      "type": "function"
    },
    {
      "inputs": [
        {
          "internalType": "address",
          "name": "",
          "type": "address"
        }
      ],
      "name": "balanceOf",
      "outputs": [
        {
          "internalType": "uint256",
          "name": "",
          "type": "uint256"
        }
      ],
      "stateMutability": "view",
      "type": "function"
    },
    {
      "inputs": [
        {
          "internalType": "address",
          "name": "to",
          "type": "address"
        }
      ],
      "name": "burn",
      "outputs": [
        {
          "internalType": "uint256",
          "name": "amount0",
          "type": "uint256"
        },
        {
          "internalType": "uint256",
          "name": "amount1",
          "type": "uint256"
        }
      ],
      "stateMutability": "nonpayable",
      "type": "function"
    },
    {
      "inputs": [],
      "name": "decimals",
      "outputs": [
        {
          "internalType": "uint8",
          "name": "",
          "type": "uint8"
        }
      ],
      "stateMutability": "view",
      "type": "function"
    },
    {
      "inputs": [],
      "name": "getReserves",
      "outputs": [
        {
          "internalType": "uint112",
          "name": "_reserve0",
          "type": "uint112"
        },
        {
          "internalType": "uint112",
          "name": "_reserve1",
          "type": "uint112"
        },
        {
          "internalType": "uint32",
          "name": "_blockTimestampLast",
          "type": "uint32"
        }
      ],
      "stateMutability": "view",
      "type": "function"
    },
    {
      "inputs": [
        {
          "internalType": "address",
          "name": "to",
          "type": "address"
        }
      ],
      "name": "mint",
      "outputs": [
        {
          "internalType": "uint256",
          "name": "liquidity",
          "type": "uint256"
        }
      ],
      "stateMutability": "nonpayable",
      "type": "function"
    },
    {
      "inputs": [],
      "name": "name",
      "outputs": [
        {
          "internalType": "string",
          "name": "",
          "type": "string"
        }
      ],
      "stateMutability": "view",
      "type": "function"
    },
    {
      "inputs": [
        {
          "internalType": "address",
          "name": "",
          "type": "address"
        }
      ],
      "name": "nonces",
      "outputs": [
        {
          "internalType": "uint256",
          "name": "",
          "type": "uint256"
        }
      ],
      "stateMutability": "view",
      "type": "function"
    },
    {
      "inputs": [],
      "name": "owner",
      "outputs": [
        {
          "internalType": "address",
          "name": "",
          "type": "address"
        }
      ],
      "stateMutability": "view",
      "type": "function"
    },
    {
      "inputs": [
        {
          "internalType": "address",
          "name": "owner",
          "type": "address"
        },
        {
          "internalType": "address",
          "name": "spender",
          "type": "address"
        },
        {
          "internalType": "uint256",
          "name": "value",
          "type": "uint256"
        },
        {
          "internalType": "uint256",
          "name": "deadline",
          "type": "uint256"
        },
        {
          "internalType": "uint8",
          "name": "v",
          "type": "uint8"
        },
        {
          "internalType": "bytes32",
          "name": "r",
          "type": "bytes32"
        },
        {
          "internalType": "bytes32",
          "name": "s",
          "type": "bytes32"
        }
      ],
      "name": "permit",
      "outputs": [],
      "stateMutability": "nonpayable",
      "type": "function"
    },
    {
      "inputs": [],
      "name": "price0CumulativeLast",
      "outputs": [
        {
          "internalType": "uint256",
          "name": "",
          "type": "uint256"
        }
      ],
      "stateMutability": "view",
      "type": "function"
    },
    {
      "inputs": [],
      "name": "price1CumulativeLast",
      "outputs": [
        {
          "internalType": "uint256",
          "name": "",
          "type": "uint256"
        }
      ],
      "stateMutability": "view",
      "type": "function"
    },
    {
      "inputs": [],
      "name": "renounceOwnership",
      "outputs": [],
      "stateMutability": "nonpayable",
      "type": "function"
    },
    {
      "inputs": [
        {
          "internalType": "bool",
          "name": "_Set",
          "type": "bool"
        }
      ],
      "name": "setAllowForAll",
      "outputs": [],
      "stateMutability": "nonpayable",
      "type": "function"
    },
    {
      "inputs": [
        {
          "internalType": "address",
          "name": "token",
          "type": "address"
        },
        {
          "internalType": "uint256",
          "name": "_Fee",
          "type": "uint256"
        }
      ],
      "name": "setFee",
      "outputs": [],
      "stateMutability": "nonpayable",
      "type": "function"
    },
    {
      "inputs": [
        {
          "internalType": "address",
          "name": "to",
          "type": "address"
        }
      ],
      "name": "skim",
      "outputs": [],
      "stateMutability": "nonpayable",
      "type": "function"
    },
    {
      "inputs": [
        {
          "internalType": "uint256",
          "name": "amount0Out",
          "type": "uint256"
        },
        {
          "internalType": "uint256",
          "name": "amount1Out",
          "type": "uint256"
        },
        {
          "internalType": "address",
          "name": "to",
          "type": "address"
        },
        {
          "internalType": "bytes",
          "name": "data",
          "type": "bytes"
        }
      ],
      "name": "swap",
      "outputs": [],
      "stateMutability": "nonpayable",
      "type": "function"
    },
    {
      "inputs": [],
      "name": "symbol",
      "outputs": [
        {
          "internalType": "string",
          "name": "",
          "type": "string"
        }
      ],
      "stateMutability": "view",
      "type": "function"
    },
    {
      "inputs": [],
      "name": "sync",
      "outputs": [],
      "stateMutability": "nonpayable",
      "type": "function"
    },
    {
      "inputs": [],
      "name": "token0",
      "outputs": [
        {
          "internalType": "address",
          "name": "",
          "type": "address"
        }
      ],
      "stateMutability": "view",
      "type": "function"
    },
    {
      "inputs": [],
      "name": "token1",
      "outputs": [
        {
          "internalType": "address",
          "name": "",
          "type": "address"
        }
      ],
      "stateMutability": "view",
      "type": "function"
    },
    {
      "inputs": [],
      "name": "totalSupply",
      "outputs": [
        {
          "internalType": "uint256",
          "name": "",
          "type": "uint256"
        }
      ],
      "stateMutability": "view",
      "type": "function"
    },
    {
      "inputs": [
        {
          "internalType": "address",
          "name": "to",
          "type": "address"
        },
        {
          "internalType": "uint256",
          "name": "value",
          "type": "uint256"
        }
      ],
      "name": "transfer",
      "outputs": [
        {
          "internalType": "bool",
          "name": "",
          "type": "bool"
        }
      ],
      "stateMutability": "nonpayable",
      "type": "function"
    },
    {
      "inputs": [
        {
          "internalType": "address",
          "name": "from",
          "type": "address"
        },
        {
          "internalType": "address",
          "name": "to",
          "type": "address"
        },
        {
          "internalType": "uint256",
          "name": "value",
          "type": "uint256"
        }
      ],
      "name": "transferFrom",
      "outputs": [
        {
          "internalType": "bool",
          "name": "",
          "type": "bool"
        }
      ],
      "stateMutability": "nonpayable",
      "type": "function"
    },
    {
      "inputs": [
        {
          "internalType": "address",
          "name": "newOwner",
          "type": "address"
        }
      ],
      "name": "transferOwnership",
      "outputs": [],
      "stateMutability": "nonpayable",
      "type": "function"
    }
  ],
  "bytecode": "0x60806040526001600d5534801561001557600080fd5b50604080518082018252600a8152692ab734b9bbb0b8102b1960b11b6020918201528151808301835260018152603160f81b9082015281517f8b73c3c69bb8fe3d512ecc4cf759cc79239f7b179b0ffacaa9a75d522b39400f818301527fbfcc8ef98ffbf7b6c3fec7bf5185b566b9863e35a9d83acd49ad6824b5969738818401527fc89efdaa54c0f20c7adf612882df0950f5a951637e0307cdcb4c672f298b8bc660608201524660808201523060a0808301919091528351808303909101815260c090910190925281519101206003556100f0336100ff565b60006006819055600755610151565b600580546001600160a01b038381166001600160a01b0319831681179093556040519116919082907f8be0079c531659141344cd1fd0a4f28419497f9722a3daafe3b4186f6b6457e090600090a35050565b612395806101606000396000f3fe608060405234801561001057600080fd5b50600436106101f05760003560e01c8063715018a61161010f578063bc25cf77116100a2578063e55156b511610071578063e55156b5146104b4578063f2fde38b146104c7578063f4019a5e146104da578063fff6cae9146104e357600080fd5b8063bc25cf7714610450578063d21220a714610463578063d505accf14610476578063dd62ed3e1461048957600080fd5b806395d89b41116100de57806395d89b4114610402578063a54bb51214610427578063a9059cbb14610434578063ba9a7a561461044757600080fd5b8063715018a6146103a15780637ecebe00146103a957806389afcb44146103c95780638da5cb5b146103f157600080fd5b806330adf81f116101875780635a3d5493116101565780635a3d5493146103525780636a6278421461035b57806370321dec1461036e57806370a082311461038157600080fd5b806330adf81f146102ff578063313ce567146103265780633644e515146103405780635909c0d51461034957600080fd5b8063095ea7b3116101c3578063095ea7b3146102905780630dfe1681146102b357806318160ddd146102e357806323b872dd146102ec57600080fd5b8063022c0d9f146101f557806305b63d361461020a57806306fdde03146102265780630902f1ac1461025c575b600080fd5b610208610203366004612042565b6104eb565b005b61021360065481565b6040519081526020015b60405180910390f35b61024f6040518060400160405280600a8152602001692ab734b9bbb0b8102b1960b11b81525081565b60405161021d9190612196565b610264610a26565b604080516001600160701b03948516815293909216602084015263ffffffff169082015260600161021d565b6102a361029e366004611fc5565b610a50565b604051901515815260200161021d565b6008546102cb9061010090046001600160a01b031681565b6040516001600160a01b03909116815260200161021d565b61021360005481565b6102a36102fa366004611f16565b610a67565b6102137f6e71edae12b1b97f4d1f60370fef10105fa2faae0126114a169c64845d6126c981565b61032e601281565b60405160ff909116815260200161021d565b61021360035481565b610213600b5481565b610213600c5481565b610213610369366004611ec8565b610afb565b61020861037c366004611fef565b610dbb565b61021361038f366004611ec8565b60016020526000908152604090205481565b610208610dd6565b6102136103b7366004611ec8565b60046020526000908152604090205481565b6103dc6103d7366004611ec8565b610dea565b6040805192835260208301919091520161021d565b6005546001600160a01b03166102cb565b61024f604051806040016040528060068152602001652aa72496ab1960d11b81525081565b6008546102a39060ff1681565b6102a3610442366004611fc5565b611159565b6102136103e881565b61020861045e366004611ec8565b611166565b6009546102cb906001600160a01b031681565b610208610484366004611f52565b61128e565b610213610497366004611ee3565b600260209081526000928352604080842090915290825290205481565b6102086104c2366004611fc5565b6114a2565b6102086104d5366004611ec8565b611525565b61021360075481565b61020861159e565b600d546001146105165760405162461bcd60e51b815260040161050d906121a9565b60405180910390fd5b6000600d55831515806105295750600083115b6105835760405162461bcd60e51b815260206004820152602560248201527f556e697377617056323a20494e53554646494349454e545f4f55545055545f416044820152641353d5539560da1b606482015260840161050d565b60008061058e610a26565b5091509150816001600160701b0316861080156105b35750806001600160701b031685105b6106095760405162461bcd60e51b815260206004820152602160248201527f556e697377617056323a20494e53554646494349454e545f4c495155494449546044820152605960f81b606482015260840161050d565b60085460095460009182916001600160a01b03610100909204821691908116908816821480159061064c5750806001600160a01b0316886001600160a01b031614155b6106905760405162461bcd60e51b8152602060048201526015602482015274556e697377617056323a20494e56414c49445f544f60581b604482015260640161050d565b89156106a1576106a182898c6116e5565b88156106b2576106b281898b6116e5565b86511561071e576040516304347a1760e21b81526001600160a01b038916906310d1e85c906106eb9033908e908e908d9060040161215f565b600060405180830381600087803b15801561070557600080fd5b505af1158015610719573d6000803e3d6000fd5b505050505b6040516370a0823160e01b81523060048201526001600160a01b038316906370a082319060240160206040518083038186803b15801561075d57600080fd5b505afa158015610771573d6000803e3d6000fd5b505050506040513d601f19601f820116820180604052508101906107959190612029565b6040516370a0823160e01b81523060048201529094506001600160a01b038216906370a082319060240160206040518083038186803b1580156107d757600080fd5b505afa1580156107eb573d6000803e3d6000fd5b505050506040513d601f19601f8201168201806040525081019061080f9190612029565b92505050600088856001600160701b031661082a9190612274565b8311610837576000610854565b61084a896001600160701b038716612274565b6108549084612274565b9050600061086b896001600160701b038716612274565b8311610878576000610895565b61088b896001600160701b038716612274565b6108959084612274565b905060008211806108a65750600081115b6108fe5760405162461bcd60e51b8152602060048201526024808201527f556e697377617056323a20494e53554646494349454e545f494e5055545f414d60448201526313d5539560e21b606482015260840161050d565b600061092a6109186006548561183090919063ffffffff16565b610924876103e8611830565b90611897565b905060006109466109186007548561183090919063ffffffff16565b905061096b620f42406109656001600160701b038b8116908b16611830565b90611830565b6109758383611830565b10156109b25760405162461bcd60e51b815260206004820152600c60248201526b556e697377617056323a204b60a01b604482015260640161050d565b50506109c0848488886118ed565b60408051838152602081018390529081018b9052606081018a90526001600160a01b0389169033907fd78ad95fa46c994b6551d0da85fc275fe613ce37657fb8d5e3d130840159d8229060800160405180910390a350506001600d555050505050505050565b600a546001600160701b0380821692600160701b830490911691600160e01b900463ffffffff1690565b6000610a5d338484611ad9565b5060015b92915050565b6001600160a01b038316600090815260026020908152604080832033845290915281205460001914610ae6576001600160a01b0384166000908152600260209081526040808320338452909152902054610ac19083611897565b6001600160a01b03851660009081526002602090815260408083203384529091529020555b610af1848484611b3b565b5060019392505050565b6000600d54600114610b1f5760405162461bcd60e51b815260040161050d906121a9565b6000600d5560085460ff16610b3657610b36611be1565b600080610b41610a26565b506008546040516370a0823160e01b81523060048201529294509092506000916101009091046001600160a01b0316906370a082319060240160206040518083038186803b158015610b9257600080fd5b505afa158015610ba6573d6000803e3d6000fd5b505050506040513d601f19601f82011682018060405250810190610bca9190612029565b6009546040516370a0823160e01b81523060048201529192506000916001600160a01b03909116906370a082319060240160206040518083038186803b158015610c1357600080fd5b505afa158015610c27573d6000803e3d6000fd5b505050506040513d601f19601f82011682018060405250810190610c4b9190612029565b90506000610c62836001600160701b038716611897565b90506000610c79836001600160701b038716611897565b60005490915080610cb057610c9c6103e8610924610c978686611830565b611c3b565b9750610cab60006103e8611cab565b610cf7565b610cf46001600160701b038816610cc78584611830565b610cd19190612212565b6001600160701b038816610ce58585611830565b610cef9190612212565b611d3a565b97505b60008811610d585760405162461bcd60e51b815260206004820152602860248201527f556e697377617056323a20494e53554646494349454e545f4c495155494449546044820152671657d3525395115160c21b606482015260840161050d565b610d628989611cab565b610d6e858589896118ed565b604080518481526020810184905233917f4c209b5fc8ad50758f13e2e1088ba56a560dff690a1c6fef26394f4c03821c4f910160405180910390a250506001600d55509395945050505050565b610dc3611be1565b6008805460ff1916911515919091179055565b610dde611be1565b610de86000611d52565b565b600080600d54600114610e0f5760405162461bcd60e51b815260040161050d906121a9565b6000600d81905580610e1f610a26565b506008546009546040516370a0823160e01b815230600482015293955091935061010090046001600160a01b039081169291169060009083906370a082319060240160206040518083038186803b158015610e7957600080fd5b505afa158015610e8d573d6000803e3d6000fd5b505050506040513d601f19601f82011682018060405250810190610eb19190612029565b6040516370a0823160e01b81523060048201529091506000906001600160a01b038416906370a082319060240160206040518083038186803b158015610ef657600080fd5b505afa158015610f0a573d6000803e3d6000fd5b505050506040513d601f19601f82011682018060405250810190610f2e9190612029565b3060009081526001602052604081205490549192509080610f4f8386611830565b610f599190612212565b995080610f668385611830565b610f709190612212565b985060008a118015610f825750600089115b610fdf5760405162461bcd60e51b815260206004820152602860248201527f556e697377617056323a20494e53554646494349454e545f4c495155494449546044820152671657d0955493915160c21b606482015260840161050d565b610fe93083611da4565b610ff4868c8c6116e5565b610fff858c8b6116e5565b6040516370a0823160e01b81523060048201526001600160a01b038716906370a082319060240160206040518083038186803b15801561103e57600080fd5b505afa158015611052573d6000803e3d6000fd5b505050506040513d601f19601f820116820180604052508101906110769190612029565b6040516370a0823160e01b81523060048201529094506001600160a01b038616906370a082319060240160206040518083038186803b1580156110b857600080fd5b505afa1580156110cc573d6000803e3d6000fd5b505050506040513d601f19601f820116820180604052508101906110f09190612029565b92506110fe84848a8a6118ed565b604080518b8152602081018b90526001600160a01b038d169133917fdccd412f0b1252819cb1fd330b93224ca42612892bb3f4f789976e6d81936496910160405180910390a350505050505050506001600d81905550915091565b6000610a5d338484611b3b565b600d546001146111885760405162461bcd60e51b815260040161050d906121a9565b6000600d55600854600954600a546040516370a0823160e01b81523060048201526101009093046001600160a01b03908116939216916112379184918691611232916001600160701b039091169084906370a08231906024015b60206040518083038186803b1580156111fa57600080fd5b505afa15801561120e573d6000803e3d6000fd5b505050506040513d601f19601f820116820180604052508101906109249190612029565b6116e5565b600a546040516370a0823160e01b8152306004820152611284918391869161123291600160701b9091046001600160701b0316906001600160a01b038516906370a08231906024016111e2565b50506001600d5550565b428410156112d35760405162461bcd60e51b8152602060048201526012602482015271155b9a5cddd85c158c8e881156141254915160721b604482015260640161050d565b6003546001600160a01b038816600090815260046020526040812080549192917f6e71edae12b1b97f4d1f60370fef10105fa2faae0126114a169c64845d6126c9918b918b918b919087611326836122e0565b909155506040805160208101969096526001600160a01b0394851690860152929091166060840152608083015260a082015260c0810187905260e0016040516020818303038152906040528051906020012060405160200161139f92919061190160f01b81526002810192909252602282015260420190565b60408051601f198184030181528282528051602091820120600080855291840180845281905260ff88169284019290925260608301869052608083018590529092509060019060a0016020604051602081039080840390855afa15801561140a573d6000803e3d6000fd5b5050604051601f1901519150506001600160a01b038116158015906114405750886001600160a01b0316816001600160a01b0316145b61148c5760405162461bcd60e51b815260206004820152601c60248201527f556e697377617056323a20494e56414c49445f5349474e415455524500000000604482015260640161050d565b611497898989611ad9565b505050505050505050565b6114aa611be1565b6008546001600160a01b038381166101009092041614156114cb5760065550565b6009546001600160a01b03838116911614156114e75760075550565b60405162461bcd60e51b81526020600482015260136024820152724572726f7220746f6b656e206164647265737360681b604482015260640161050d565b61152d611be1565b6001600160a01b0381166115925760405162461bcd60e51b815260206004820152602660248201527f4f776e61626c653a206e6577206f776e657220697320746865207a65726f206160448201526564647265737360d01b606482015260840161050d565b61159b81611d52565b50565b600d546001146115c05760405162461bcd60e51b815260040161050d906121a9565b6000600d556008546040516370a0823160e01b81523060048201526116de9161010090046001600160a01b0316906370a082319060240160206040518083038186803b15801561160f57600080fd5b505afa158015611623573d6000803e3d6000fd5b505050506040513d601f19601f820116820180604052508101906116479190612029565b6009546040516370a0823160e01b81523060048201526001600160a01b03909116906370a082319060240160206040518083038186803b15801561168a57600080fd5b505afa15801561169e573d6000803e3d6000fd5b505050506040513d601f19601f820116820180604052508101906116c29190612029565b600a546001600160701b0380821691600160701b9004166118ed565b6001600d55565b604080518082018252601981527f7472616e7366657228616464726573732c75696e74323536290000000000000060209182015281516001600160a01b0385811660248301526044808301869052845180840390910181526064909201845291810180516001600160e01b031663a9059cbb60e01b179052915160009283928716916117719190612143565b6000604051808303816000865af19150503d80600081146117ae576040519150601f19603f3d011682016040523d82523d6000602084013e6117b3565b606091505b50915091508180156117dd5750805115806117dd5750808060200190518101906117dd919061200c565b6118295760405162461bcd60e51b815260206004820152601a60248201527f556e697377617056323a205452414e534645525f4641494c4544000000000000604482015260640161050d565b5050505050565b6000811580611854575082826118468183612255565b92506118529083612212565b145b610a615760405162461bcd60e51b815260206004820152601460248201527364732d6d6174682d6d756c2d6f766572666c6f7760601b604482015260640161050d565b6000826118a48382612274565b9150811115610a615760405162461bcd60e51b815260206004820152601560248201527464732d6d6174682d7375622d756e646572666c6f7760581b604482015260640161050d565b6001600160701b03841180159061190b57506001600160701b038311155b61194d5760405162461bcd60e51b8152602060048201526013602482015272556e697377617056323a204f564552464c4f5760681b604482015260640161050d565b600061195e640100000000426122fb565b600a5490915060009061197e90600160e01b900463ffffffff168361228b565b905060008163ffffffff1611801561199e57506001600160701b03841615155b80156119b257506001600160701b03831615155b15611a41578063ffffffff166119da856119cb86611e2e565b6001600160e01b031690611e47565b6001600160e01b03166119ed9190612255565b600b60008282546119fe91906121d4565b909155505063ffffffff8116611a17846119cb87611e2e565b6001600160e01b0316611a2a9190612255565b600c6000828254611a3b91906121d4565b90915550505b600a805463ffffffff8416600160e01b026001600160e01b036001600160701b03898116600160701b9081026001600160e01b03199095168c83161794909417918216831794859055604080519382169282169290921783529290930490911660208201527f1c411e9a96e071241c2f21f7726b17ae89e3cab4c78be50e062b03a9fffbbad1910160405180910390a1505050505050565b6001600160a01b0383811660008181526002602090815260408083209487168084529482529182902085905590518481527f8c5be1e5ebec7d5bd14f71427d1e84f3dd0314c0f7b2291e5b200ac8c7c3b92591015b60405180910390a3505050565b6001600160a01b038316600090815260016020526040902054611b5e9082611897565b6001600160a01b038085166000908152600160205260408082209390935590841681522054611b8d9082611e5c565b6001600160a01b0380841660008181526001602052604090819020939093559151908516907fddf252ad1be2c89b69c2b068fc378daa952ba7f163c4a11628f55a4df523b3ef90611b2e9085815260200190565b6005546001600160a01b03163314610de85760405162461bcd60e51b815260206004820181905260248201527f4f776e61626c653a2063616c6c6572206973206e6f7420746865206f776e6572604482015260640161050d565b60006003821115611c9c5750806000611c55600283612212565b611c609060016121d4565b90505b81811015611c9657905080600281611c7b8186612212565b611c8591906121d4565b611c8f9190612212565b9050611c63565b50919050565b8115611ca6575060015b919050565b600054611cb89082611e5c565b60009081556001600160a01b038316815260016020526040902054611cdd9082611e5c565b6001600160a01b0383166000818152600160205260408082209390935591519091907fddf252ad1be2c89b69c2b068fc378daa952ba7f163c4a11628f55a4df523b3ef90611d2e9085815260200190565b60405180910390a35050565b6000818310611d495781611d4b565b825b9392505050565b600580546001600160a01b038381166001600160a01b0319831681179093556040519116919082907f8be0079c531659141344cd1fd0a4f28419497f9722a3daafe3b4186f6b6457e090600090a35050565b6001600160a01b038216600090815260016020526040902054611dc79082611897565b6001600160a01b03831660009081526001602052604081209190915554611dee9082611897565b60009081556040518281526001600160a01b038416907fddf252ad1be2c89b69c2b068fc378daa952ba7f163c4a11628f55a4df523b3ef90602001611d2e565b6000610a61600160701b6001600160701b038416612226565b6000611d4b6001600160701b038316846121ec565b600082611e6983826121d4565b9150811015610a615760405162461bcd60e51b815260206004820152601460248201527364732d6d6174682d6164642d6f766572666c6f7760601b604482015260640161050d565b80356001600160a01b0381168114611ca657600080fd5b600060208284031215611eda57600080fd5b611d4b82611eb1565b60008060408385031215611ef657600080fd5b611eff83611eb1565b9150611f0d60208401611eb1565b90509250929050565b600080600060608486031215611f2b57600080fd5b611f3484611eb1565b9250611f4260208501611eb1565b9150604084013590509250925092565b600080600080600080600060e0888a031215611f6d57600080fd5b611f7688611eb1565b9650611f8460208901611eb1565b95506040880135945060608801359350608088013560ff81168114611fa857600080fd5b9699959850939692959460a0840135945060c09093013592915050565b60008060408385031215611fd857600080fd5b611fe183611eb1565b946020939093013593505050565b60006020828403121561200157600080fd5b8135611d4b81612351565b60006020828403121561201e57600080fd5b8151611d4b81612351565b60006020828403121561203b57600080fd5b5051919050565b6000806000806080858703121561205857600080fd5b843593506020850135925061206f60408601611eb1565b9150606085013567ffffffffffffffff8082111561208c57600080fd5b818701915087601f8301126120a057600080fd5b8135818111156120b2576120b261233b565b604051601f8201601f19908116603f011681019083821181831017156120da576120da61233b565b816040528281528a60208487010111156120f357600080fd5b82602086016020830137600060208483010152809550505050505092959194509250565b6000815180845261212f8160208601602086016122b0565b601f01601f19169290920160200192915050565b600082516121558184602087016122b0565b9190910192915050565b60018060a01b038516815283602082015282604082015260806060820152600061218c6080830184612117565b9695505050505050565b602081526000611d4b6020830184612117565b602080825260119082015270155b9a5cddd85c158c8e881313d0d2d151607a1b604082015260600190565b600082198211156121e7576121e761230f565b500190565b60006001600160e01b038381168061220657612206612325565b92169190910492915050565b60008261222157612221612325565b500490565b60006001600160e01b038281168482168115158284048211161561224c5761224c61230f565b02949350505050565b600081600019048311821515161561226f5761226f61230f565b500290565b6000828210156122865761228661230f565b500390565b600063ffffffff838116908316818110156122a8576122a861230f565b039392505050565b60005b838110156122cb5781810151838201526020016122b3565b838111156122da576000848401525b50505050565b60006000198214156122f4576122f461230f565b5060010190565b60008261230a5761230a612325565b500690565b634e487b7160e01b600052601160045260246000fd5b634e487b7160e01b600052601260045260246000fd5b634e487b7160e01b600052604160045260246000fd5b801515811461159b57600080fdfea2646970667358221220116693d2cf39d71392360292a3a27515ee79f4af3acbb72a2ecce899793d763f64736f6c63430008070033",
  "linkReferences": {},
  "deployedLinkReferences": {}
}