{
  "_format": "hh-sol-artifact-1",
  "contractName": "AMMTest",
  "sourceName": "contracts/AMMTest.sol",
  "abi": [
    {
      "inputs": [],
      "stateMutability": "nonpayable",
      "type": "constructor"
    },
    {
      "inputs": [
        {
          "internalType": "uint256",
          "name": "amountIn",
          "type": "uint256"
        },
        {
          "internalType": "address[]",
          "name": "path",
          "type": "address[]"
        }
      ],
      "name": "getAmountsOut",
      "outputs": [
        {
          "internalType": "uint256[]",
          "name": "amounts",
          "type": "uint256[]"
        }
      ],
      "stateMutability": "pure",
      "type": "function"
    },
    {
      "inputs": [
        {
          "internalType": "uint256",
          "name": "amountIn",
          "type": "uint256"
        },
        {
          "internalType": "uint256",
          "name": "amountOutMin",
          "type": "uint256"
        },
        {
          "internalType": "address[]",
          "name": "path",
          "type": "address[]"
        },
        {
          "internalType": "address",
          "name": "to",
          "type": "address"
        },
        {
          "internalType": "uint256",
          "name": "deadline",
          "type": "uint256"
        }
      ],
      "name": "swapExactTokensForTokens",
      "outputs": [
        {
          "internalType": "uint256[]",
          "name": "amounts",
          "type": "uint256[]"
        }
      ],
      "stateMutability": "nonpayable",
      "type": "function"
    }
  ],
  "bytecode": "0x608060405234801561001057600080fd5b5061079b806100206000396000f3fe608060405234801561001057600080fd5b50600436106100365760003560e01c806338ed17391461003b578063d06ca61f14610064575b600080fd5b61004e6100493660046105d8565b610077565b60405161005b9190610696565b60405180910390f35b61004e610072366004610500565b61013f565b60606100b83330898888600081811061009257610092610739565b90506020020160208101906100a791906104c3565b6001600160a01b03169291906101a7565b6100f58388878760018181106100d0576100d0610739565b90506020020160208101906100e591906104c3565b6001600160a01b03169190610218565b6040805160018082528183019092529060208083019080368337019050509050868160008151811061012957610129610739565b6020026020010181815250509695505050505050565b60408051600180825281830190925260609160208083019080368337019050509050828160008151811061017557610175610739565b602002602001018181525050828160018151811061019557610195610739565b60200260200101818152505092915050565b6040516001600160a01b03808516602483015283166044820152606481018290526102129085906323b872dd60e01b906084015b60408051601f198184030181529190526020810180516001600160e01b03166001600160e01b03199093169290921790915261024d565b50505050565b6040516001600160a01b03831660248201526044810182905261024890849063a9059cbb60e01b906064016101db565b505050565b60006102a2826040518060400160405280602081526020017f5361666545524332303a206c6f772d6c6576656c2063616c6c206661696c6564815250856001600160a01b03166103249092919063ffffffff16565b80519091501561024857808060200190518101906102c091906104de565b6102485760405162461bcd60e51b815260206004820152602a60248201527f5361666545524332303a204552433230206f7065726174696f6e20646964206e6044820152691bdd081cdd58d8d9595960b21b60648201526084015b60405180910390fd5b6060610333848460008561033d565b90505b9392505050565b60608247101561039e5760405162461bcd60e51b815260206004820152602660248201527f416464726573733a20696e73756666696369656e742062616c616e636520666f6044820152651c8818d85b1b60d21b606482015260840161031b565b6001600160a01b0385163b6103f55760405162461bcd60e51b815260206004820152601d60248201527f416464726573733a2063616c6c20746f206e6f6e2d636f6e7472616374000000604482015260640161031b565b600080866001600160a01b03168587604051610411919061067a565b60006040518083038185875af1925050503d806000811461044e576040519150601f19603f3d011682016040523d82523d6000602084013e610453565b606091505b509150915061046382828661046e565b979650505050505050565b6060831561047d575081610336565b82511561048d5782518084602001fd5b8160405162461bcd60e51b815260040161031b91906106da565b80356001600160a01b03811681146104be57600080fd5b919050565b6000602082840312156104d557600080fd5b610336826104a7565b6000602082840312156104f057600080fd5b8151801515811461033657600080fd5b6000806040838503121561051357600080fd5b8235915060208084013567ffffffffffffffff8082111561053357600080fd5b818601915086601f83011261054757600080fd5b8135818111156105595761055961074f565b8060051b604051601f19603f8301168101818110858211171561057e5761057e61074f565b604052828152858101935084860182860187018b101561059d57600080fd5b600095505b838610156105c7576105b3816104a7565b8552600195909501949386019386016105a2565b508096505050505050509250929050565b60008060008060008060a087890312156105f157600080fd5b8635955060208701359450604087013567ffffffffffffffff8082111561061757600080fd5b818901915089601f83011261062b57600080fd5b81358181111561063a57600080fd5b8a60208260051b850101111561064f57600080fd5b602083019650809550505050610667606088016104a7565b9150608087013590509295509295509295565b6000825161068c81846020870161070d565b9190910192915050565b6020808252825182820181905260009190848201906040850190845b818110156106ce578351835292840192918401916001016106b2565b50909695505050505050565b60208152600082518060208401526106f981604085016020870161070d565b601f01601f19169190910160400192915050565b60005b83811015610728578181015183820152602001610710565b838111156102125750506000910152565b634e487b7160e01b600052603260045260246000fd5b634e487b7160e01b600052604160045260246000fdfea264697066735822122071a413d23d072ce5ce617df2ec5d2d44e6853ea1ea207221721d5ef82a209bbf64736f6c63430008070033",
  "linkReferences": {},
  "deployedLinkReferences": {}
}