{
  "_format": "hh-sol-artifact-1",
  "contractName": "AMMTest",
  "sourceName": "contracts/AMMTest.sol",
  "abi": [
    {
      "inputs": [],
      "stateMutability": "nonpayable",
      "type": "constructor"
    },
    {
      "inputs": [
        {
          "internalType": "uint256",
          "name": "amountIn",
          "type": "uint256"
        },
        {
          "internalType": "address[]",
          "name": "path",
          "type": "address[]"
        }
      ],
      "name": "getAmountsOut",
      "outputs": [
        {
          "internalType": "uint256[]",
          "name": "amounts",
          "type": "uint256[]"
        }
      ],
      "stateMutability": "pure",
      "type": "function"
    },
    {
      "inputs": [
        {
          "internalType": "uint256",
          "name": "amountIn",
          "type": "uint256"
        },
        {
          "internalType": "uint256",
          "name": "amountOutMin",
          "type": "uint256"
        },
        {
          "internalType": "address[]",
          "name": "path",
          "type": "address[]"
        },
        {
          "internalType": "address",
          "name": "to",
          "type": "address"
        },
        {
          "internalType": "uint256",
          "name": "deadline",
          "type": "uint256"
        }
      ],
      "name": "swapExactTokensForTokens",
      "outputs": [
        {
          "internalType": "uint256[]",
          "name": "amounts",
          "type": "uint256[]"
        }
      ],
      "stateMutability": "nonpayable",
      "type": "function"
    }
  ],
  "bytecode": "0x608060405234801561001057600080fd5b5061077b806100206000396000f3fe608060405234801561001057600080fd5b50600436106100365760003560e01c806338ed17391461003b578063d06ca61f14610064575b600080fd5b61004e6100493660046105b8565b610077565b60405161005b9190610676565b60405180910390f35b61004e6100723660046104e0565b61013f565b60606100b83330898888600081811061009257610092610719565b90506020020160208101906100a791906104a3565b6001600160a01b0316929190610187565b6100f58388878760018181106100d0576100d0610719565b90506020020160208101906100e591906104a3565b6001600160a01b031691906101f8565b6040805160018082528183019092529060208083019080368337019050509050868160008151811061012957610129610719565b6020026020010181815250509695505050505050565b60408051600180825281830190925260609160208083019080368337019050509050828160008151811061017557610175610719565b60200260200101818152505092915050565b6040516001600160a01b03808516602483015283166044820152606481018290526101f29085906323b872dd60e01b906084015b60408051601f198184030181529190526020810180516001600160e01b03166001600160e01b03199093169290921790915261022d565b50505050565b6040516001600160a01b03831660248201526044810182905261022890849063a9059cbb60e01b906064016101bb565b505050565b6000610282826040518060400160405280602081526020017f5361666545524332303a206c6f772d6c6576656c2063616c6c206661696c6564815250856001600160a01b03166103049092919063ffffffff16565b80519091501561022857808060200190518101906102a091906104be565b6102285760405162461bcd60e51b815260206004820152602a60248201527f5361666545524332303a204552433230206f7065726174696f6e20646964206e6044820152691bdd081cdd58d8d9595960b21b60648201526084015b60405180910390fd5b6060610313848460008561031d565b90505b9392505050565b60608247101561037e5760405162461bcd60e51b815260206004820152602660248201527f416464726573733a20696e73756666696369656e742062616c616e636520666f6044820152651c8818d85b1b60d21b60648201526084016102fb565b6001600160a01b0385163b6103d55760405162461bcd60e51b815260206004820152601d60248201527f416464726573733a2063616c6c20746f206e6f6e2d636f6e747261637400000060448201526064016102fb565b600080866001600160a01b031685876040516103f1919061065a565b60006040518083038185875af1925050503d806000811461042e576040519150601f19603f3d011682016040523d82523d6000602084013e610433565b606091505b509150915061044382828661044e565b979650505050505050565b6060831561045d575081610316565b82511561046d5782518084602001fd5b8160405162461bcd60e51b81526004016102fb91906106ba565b80356001600160a01b038116811461049e57600080fd5b919050565b6000602082840312156104b557600080fd5b61031682610487565b6000602082840312156104d057600080fd5b8151801515811461031657600080fd5b600080604083850312156104f357600080fd5b8235915060208084013567ffffffffffffffff8082111561051357600080fd5b818601915086601f83011261052757600080fd5b8135818111156105395761053961072f565b8060051b604051601f19603f8301168101818110858211171561055e5761055e61072f565b604052828152858101935084860182860187018b101561057d57600080fd5b600095505b838610156105a75761059381610487565b855260019590950194938601938601610582565b508096505050505050509250929050565b60008060008060008060a087890312156105d157600080fd5b8635955060208701359450604087013567ffffffffffffffff808211156105f757600080fd5b818901915089601f83011261060b57600080fd5b81358181111561061a57600080fd5b8a60208260051b850101111561062f57600080fd5b60208301965080955050505061064760608801610487565b9150608087013590509295509295509295565b6000825161066c8184602087016106ed565b9190910192915050565b6020808252825182820181905260009190848201906040850190845b818110156106ae57835183529284019291840191600101610692565b50909695505050505050565b60208152600082518060208401526106d98160408501602087016106ed565b601f01601f19169190910160400192915050565b60005b838110156107085781810151838201526020016106f0565b838111156101f25750506000910152565b634e487b7160e01b600052603260045260246000fd5b634e487b7160e01b600052604160045260246000fdfea2646970667358221220d6840b1f97adfdc583c84e4df66445ea2f8c25ffa976a478aff3f12574fec1c764736f6c63430008070033",
  "linkReferences": {},
  "deployedLinkReferences": {}
}