{
  "_format": "hh-sol-artifact-1",
  "contractName": "UndeadsStakingUGOLD",
  "sourceName": "contracts/UndeadsStakingUGOLD.sol",
  "abi": [
    {
      "inputs": [
        {
          "internalType": "address",
          "name": "_addrUDS",
          "type": "address"
        },
        {
          "internalType": "address",
          "name": "_addrUGOLD",
          "type": "address"
        },
        {
          "internalType": "address",
          "name": "_addrNFT",
          "type": "address"
        },
        {
          "internalType": "address",
          "name": "_addrAMM",
          "type": "address"
        },
        {
          "internalType": "uint256",
          "name": "_periodOneDay",
          "type": "uint256"
        }
      ],
      "stateMutability": "nonpayable",
      "type": "constructor"
    },
    {
      "anonymous": false,
      "inputs": [
        {
          "indexed": true,
          "internalType": "address",
          "name": "previousOwner",
          "type": "address"
        },
        {
          "indexed": true,
          "internalType": "address",
          "name": "newOwner",
          "type": "address"
        }
      ],
      "name": "OwnershipTransferred",
      "type": "event"
    },
    {
      "anonymous": false,
      "inputs": [
        {
          "indexed": true,
          "internalType": "address",
          "name": "owner",
          "type": "address"
        },
        {
          "indexed": false,
          "internalType": "uint256",
          "name": "idSession",
          "type": "uint256"
        },
        {
          "indexed": false,
          "internalType": "uint256",
          "name": "value",
          "type": "uint256"
        },
        {
          "indexed": false,
          "internalType": "uint256",
          "name": "idNFT",
          "type": "uint256"
        },
        {
          "indexed": false,
          "internalType": "uint256",
          "name": "periodDays",
          "type": "uint256"
        },
        {
          "indexed": false,
          "internalType": "uint256",
          "name": "Reward",
          "type": "uint256"
        }
      ],
      "name": "Stake",
      "type": "event"
    },
    {
      "anonymous": false,
      "inputs": [
        {
          "indexed": true,
          "internalType": "address",
          "name": "owner",
          "type": "address"
        },
        {
          "indexed": false,
          "internalType": "uint256",
          "name": "idSession",
          "type": "uint256"
        },
        {
          "indexed": false,
          "internalType": "uint256",
          "name": "value",
          "type": "uint256"
        },
        {
          "indexed": false,
          "internalType": "uint256",
          "name": "idNFT",
          "type": "uint256"
        },
        {
          "indexed": false,
          "internalType": "uint256",
          "name": "periodDays",
          "type": "uint256"
        }
      ],
      "name": "UnStake",
      "type": "event"
    },
    {
      "inputs": [],
      "name": "PeriodOneDay",
      "outputs": [
        {
          "internalType": "uint256",
          "name": "",
          "type": "uint256"
        }
      ],
      "stateMutability": "view",
      "type": "function"
    },
    {
      "inputs": [
        {
          "internalType": "uint256",
          "name": "_amount",
          "type": "uint256"
        }
      ],
      "name": "addReward",
      "outputs": [],
      "stateMutability": "nonpayable",
      "type": "function"
    },
    {
      "inputs": [
        {
          "internalType": "uint256",
          "name": "_class",
          "type": "uint256"
        },
        {
          "internalType": "uint256",
          "name": "_price",
          "type": "uint256"
        }
      ],
      "name": "getSubClass",
      "outputs": [
        {
          "internalType": "uint256",
          "name": "",
          "type": "uint256"
        }
      ],
      "stateMutability": "view",
      "type": "function"
    },
    {
      "inputs": [
        {
          "internalType": "address",
          "name": "_addr",
          "type": "address"
        }
      ],
      "name": "lengthSessions",
      "outputs": [
        {
          "internalType": "uint256",
          "name": "",
          "type": "uint256"
        }
      ],
      "stateMutability": "view",
      "type": "function"
    },
    {
      "inputs": [
        {
          "internalType": "address",
          "name": "_addr",
          "type": "address"
        },
        {
          "internalType": "uint256",
          "name": "_startIndex",
          "type": "uint256"
        },
        {
          "internalType": "uint256",
          "name": "_counts",
          "type": "uint256"
        }
      ],
      "name": "listSessions",
      "outputs": [
        {
          "components": [
            {
              "internalType": "uint48",
              "name": "Start",
              "type": "uint48"
            },
            {
              "internalType": "uint48",
              "name": "End",
              "type": "uint48"
            },
            {
              "internalType": "uint128",
              "name": "Body",
              "type": "uint128"
            },
            {
              "internalType": "uint256",
              "name": "idNFT",
              "type": "uint256"
            }
          ],
          "internalType": "struct UndeadsStakingUGOLD.SSession[]",
          "name": "Arr",
          "type": "tuple[]"
        }
      ],
      "stateMutability": "view",
      "type": "function"
    },
    {
      "inputs": [],
      "name": "maxStakePeriod",
      "outputs": [
        {
          "internalType": "uint48",
          "name": "",
          "type": "uint48"
        }
      ],
      "stateMutability": "view",
      "type": "function"
    },
    {
      "inputs": [],
      "name": "minStakePeriod",
      "outputs": [
        {
          "internalType": "uint48",
          "name": "",
          "type": "uint48"
        }
      ],
      "stateMutability": "view",
      "type": "function"
    },
    {
      "inputs": [],
      "name": "owner",
      "outputs": [
        {
          "internalType": "address",
          "name": "",
          "type": "address"
        }
      ],
      "stateMutability": "view",
      "type": "function"
    },
    {
      "inputs": [
        {
          "internalType": "uint256",
          "name": "",
          "type": "uint256"
        }
      ],
      "name": "pathAMM",
      "outputs": [
        {
          "internalType": "address",
          "name": "",
          "type": "address"
        }
      ],
      "stateMutability": "view",
      "type": "function"
    },
    {
      "inputs": [],
      "name": "poolReward",
      "outputs": [
        {
          "internalType": "uint256",
          "name": "",
          "type": "uint256"
        }
      ],
      "stateMutability": "view",
      "type": "function"
    },
    {
      "inputs": [],
      "name": "poolStake",
      "outputs": [
        {
          "internalType": "uint256",
          "name": "",
          "type": "uint256"
        }
      ],
      "stateMutability": "view",
      "type": "function"
    },
    {
      "inputs": [],
      "name": "renounceOwnership",
      "outputs": [],
      "stateMutability": "nonpayable",
      "type": "function"
    },
    {
      "inputs": [
        {
          "internalType": "uint48",
          "name": "_min",
          "type": "uint48"
        },
        {
          "internalType": "uint48",
          "name": "_max",
          "type": "uint48"
        }
      ],
      "name": "setStakePeriod",
      "outputs": [],
      "stateMutability": "nonpayable",
      "type": "function"
    },
    {
      "inputs": [
        {
          "internalType": "uint256",
          "name": "_class",
          "type": "uint256"
        },
        {
          "internalType": "uint256",
          "name": "_price",
          "type": "uint256"
        },
        {
          "internalType": "uint256",
          "name": "_subClass",
          "type": "uint256"
        }
      ],
      "name": "setSubClass",
      "outputs": [],
      "stateMutability": "nonpayable",
      "type": "function"
    },
    {
      "inputs": [],
      "name": "smartAMM",
      "outputs": [
        {
          "internalType": "contract IRouter",
          "name": "",
          "type": "address"
        }
      ],
      "stateMutability": "view",
      "type": "function"
    },
    {
      "inputs": [],
      "name": "smartGOLD",
      "outputs": [
        {
          "internalType": "contract IERC20",
          "name": "",
          "type": "address"
        }
      ],
      "stateMutability": "view",
      "type": "function"
    },
    {
      "inputs": [],
      "name": "smartNFT",
      "outputs": [
        {
          "internalType": "contract UndeadNFT",
          "name": "",
          "type": "address"
        }
      ],
      "stateMutability": "view",
      "type": "function"
    },
    {
      "inputs": [],
      "name": "smartUDS",
      "outputs": [
        {
          "internalType": "contract IERC20",
          "name": "",
          "type": "address"
        }
      ],
      "stateMutability": "view",
      "type": "function"
    },
    {
      "inputs": [
        {
          "internalType": "uint256",
          "name": "_amount",
          "type": "uint256"
        },
        {
          "internalType": "uint256",
          "name": "_periodDay",
          "type": "uint256"
        },
        {
          "internalType": "uint256",
          "name": "_class",
          "type": "uint256"
        },
        {
          "internalType": "uint256",
          "name": "_price",
          "type": "uint256"
        }
      ],
      "name": "stake",
      "outputs": [],
      "stateMutability": "nonpayable",
      "type": "function"
    },
    {
      "inputs": [
        {
          "internalType": "address",
          "name": "newOwner",
          "type": "address"
        }
      ],
      "name": "transferOwnership",
      "outputs": [],
      "stateMutability": "nonpayable",
      "type": "function"
    },
    {
      "inputs": [
        {
          "internalType": "uint32",
          "name": "_sessionId",
          "type": "uint32"
        }
      ],
      "name": "unstake",
      "outputs": [],
      "stateMutability": "nonpayable",
      "type": "function"
    },
    {
      "inputs": [
        {
          "internalType": "uint256",
          "name": "_amount",
          "type": "uint256"
        }
      ],
      "name": "withdrawReward",
      "outputs": [],
      "stateMutability": "nonpayable",
      "type": "function"
    },
    {
      "inputs": [
        {
          "internalType": "uint256",
          "name": "_amount",
          "type": "uint256"
        }
      ],
      "name": "withdrawStake",
      "outputs": [],
      "stateMutability": "nonpayable",
      "type": "function"
    }
  ],
  "bytecode": "0x60806040523480156200001157600080fd5b50604051620019d4380380620019d483398101604081905262000034916200021a565b6200003f336200012c565b600880546001600160a01b03199081166001600160a01b03888116918217909355600980548316888516908117909155600a805484168786161790556007805490931693871693909317909155604080518082019091529182526020820152620000ae90600b9060026200017c565b5060008111620001045760405162461bcd60e51b815260206004820152601860248201527f4572726f722c207a65726f20706572696f644f6e654461790000000000000000604482015260640160405180910390fd5b6001555050600c80546001600160601b03191667016d00000000001e17905550620002819050565b600080546001600160a01b038381166001600160a01b0319831681178455604051919092169283917f8be0079c531659141344cd1fd0a4f28419497f9722a3daafe3b4186f6b6457e09190a35050565b828054828255906000526020600020908101928215620001d4579160200282015b82811115620001d457825182546001600160a01b0319166001600160a01b039091161782556020909201916001909101906200019d565b50620001e2929150620001e6565b5090565b5b80821115620001e25760008155600101620001e7565b80516001600160a01b03811681146200021557600080fd5b919050565b600080600080600060a086880312156200023357600080fd5b6200023e86620001fd565b94506200024e60208701620001fd565b93506200025e60408701620001fd565b92506200026e60608701620001fd565b9150608086015190509295509295909350565b61174380620002916000396000f3fe608060405234801561001057600080fd5b506004361061014d5760003560e01c80637691eca6116100c3578063dec765091161007c578063dec76509146102f5578063ed038f52146102fe578063edad586914610311578063ede5a41614610331578063f2fde38b14610344578063fef10b951461035757600080fd5b80637691eca614610251578063809ee57d146102815780638da5cb5b14610294578063c152d3f1146102a5578063ce93a882146102d0578063d84f2bc6146102e357600080fd5b80634dc2eb0a116101155780634dc2eb0a146101f4578063523a3f08146102075780635fd663201461021a5780636a188bd714610223578063715018a61461023657806374de4ec41461023e57600080fd5b80631e3c5e6c146101525780631edf3c3b1461016757806325d5971f146101a357806339775abd146101b657806339a88f74146101c9575b600080fd5b610165610160366004611413565b610360565b005b61019061017536600461128a565b6001600160a01b031660009081526005602052604090205490565b6040519081526020015b60405180910390f35b6101656101b13660046113bf565b610414565b6101656101c4366004611497565b610497565b6007546101dc906001600160a01b031681565b6040516001600160a01b03909116815260200161019a565b600a546101dc906001600160a01b031681565b6101656102153660046113bf565b6104d4565b61019060035481565b6101dc6102313660046113bf565b610550565b61016561057a565b61016561024c3660046113bf565b61058e565b600c5461026a90600160301b900465ffffffffffff1681565b60405165ffffffffffff909116815260200161019a565b61016561028f366004611471565b6105c0565b6000546001600160a01b03166101dc565b6101906102b33660046113f1565b600091825260066020908152604080842092845291905290205490565b6101656102de36600461143f565b610815565b600c5461026a9065ffffffffffff1681565b61019060015481565b6009546101dc906001600160a01b031681565b61032461031f3660046112a5565b610ca4565b60405161019a91906114e6565b6008546101dc906001600160a01b031681565b61016561035236600461128a565b610e3a565b61019060025481565b610368610eb3565b600082116103b15760405162461bcd60e51b81526020600482015260116024820152704572726f722c207a65726f20707269636560781b60448201526064015b60405180910390fd5b600081116103f85760405162461bcd60e51b81526020600482015260146024820152734572726f722c207a65726f20737562436c61737360601b60448201526064016103a8565b6000928352600660209081526040808520938552929052912055565b61041c610eb3565b8060035410156104665760405162461bcd60e51b8152602060048201526015602482015274139bdd08195b9bdd59da081cdd185ad9481c1bdbdb605a1b60448201526064016103a8565b60085461047d906001600160a01b03163383610f0d565b806003600082825461048f9190611646565b909155505050565b61049f610eb3565b600c805465ffffffffffff928316600160301b026bffffffffffffffffffffffff199091169290931691909117919091179055565b6104dc610eb3565b8060025410156105275760405162461bcd60e51b8152602060048201526016602482015275139bdd08195b9bdd59da081c995dd85c99081c1bdbdb60521b60448201526064016103a8565b60085461053e906001600160a01b03163383610f0d565b806002600082825461048f9190611646565b600b818154811061056057600080fd5b6000918252602090912001546001600160a01b0316905081565b610582610eb3565b61058c6000610f75565b565b610596610eb3565b6008546105ae906001600160a01b0316333084610fc5565b806002600082825461048f91906115ed565b33600090815260046020908152604080832063ffffffff851684528252918290208251608081018452815465ffffffffffff8082168352600160301b820416938201849052600160601b90046001600160801b0316938101939093526001015460608301526106635760405162461bcd60e51b815260206004820152600f60248201526e115c9c9bdc881cd95cdcda5bdb9259608a1b60448201526064016103a8565b806020015165ffffffffffff1642116106b55760405162461bcd60e51b81526020600482015260146024820152734572726f7220756e7374616b696e672074696d6560601b60448201526064016103a8565b60408101516009546106dd916001600160a01b039091169033906001600160801b0316610f0d565b60075460608201516040516323b872dd60e01b815230600482015233602482015260448101919091526001600160a01b03909116906323b872dd90606401600060405180830381600087803b15801561073557600080fd5b505af1158015610749573d6000803e3d6000fd5b50505050336001600160a01b03167ff74c9f1985016ff6aa83c3fd81e31d0be3b194f205ae5e1b57f5bd74ad28e4cf83836040015184606001516001548660000151876020015161079a919061165d565b65ffffffffffff166107ac9190611605565b6040805163ffffffff90951685526001600160801b03909316602085015291830152606082015260800160405180910390a25033600090815260046020908152604080832063ffffffff909416835292905290812080546001600160e01b031916815560010155565b6000841161085a5760405162461bcd60e51b8152602060048201526012602482015271115c9c9bdc8b081e995c9bc8185b5bdd5b9d60721b60448201526064016103a8565b600083116108a25760405162461bcd60e51b81526020600482015260156024820152744572726f722c207a65726f20706572696f6444617960581b60448201526064016103a8565b600c5465ffffffffffff1683108015906108cd5750600c54600160301b900465ffffffffffff168311155b61090b5760405162461bcd60e51b815260206004820152600f60248201526e4572726f7220706572696f6444617960881b60448201526064016103a8565b600954610923906001600160a01b0316333087610fc5565b600a5460405163d06ca61f60e01b81526000916001600160a01b03169063d06ca61f90610957908890600b90600401611591565b60006040518083038186803b15801561096f57600080fd5b505afa158015610983573d6000803e3d6000fd5b505050506040513d6000823e601f3d908101601f191682016040526109ab91908101906112d8565b90506000816001815181106109c2576109c26116e1565b60200260200101519050600061016d86600a8460066109e19190611627565b6109eb9190611605565b6109f59190611627565b6109ff9190611605565b9050806002541015610a4c5760405162461bcd60e51b8152602060048201526016602482015275139bdd08195b9bdd59da081c995dd85c99081c1bdbdb60521b60448201526064016103a8565b60008581526006602090815260408083208784529091529020548015801590610a755750848210155b610ab35760405162461bcd60e51b815260206004820152600f60248201526e4572726f72204e465420707269636560881b60448201526064016103a8565b60075460405163c1d942c160e01b8152306004820152602481018390526000916001600160a01b03169063c1d942c190604401602060405180830381600087803b158015610b0057600080fd5b505af1158015610b14573d6000803e3d6000fd5b505050506040513d601f19601f82011682018060405250810190610b3891906113d8565b336000908152600560205260408120805492935090610b56836116b0565b90915550503360009081526005602090815260408083205460048352818420818552909252909120805465ffffffffffff19164265ffffffffffff16178155600154610ba2908b611627565b610bac90426115ed565b81546601000000000000600160e01b031916600160301b65ffffffffffff92909216919091026fffffffffffffffffffffffffffffffff60601b191617600160601b6001600160801b038d16021781556001810183905560028054869190600090610c18908490611646565b925050819055508460036000828254610c3191906115ed565b9091555050805460408051848152600160601b9092046001600160801b031660208301528101849052606081018b90526080810186905233907fc6f8dbf1fa0a0918d52df74fa2b529a0a4da7011a24f263a28678e7504444cd69060a00160405180910390a25050505050505050505050565b6001600160a01b0383166000908152600560205260409020546060906001841015610cce57600193505b808411610e3257610ce08160016115ed565b610cea84866115ed565b1115610d095783610cfc8260016115ed565b610d069190611646565b92505b8267ffffffffffffffff811115610d2257610d226116f7565b604051908082528060200260200182016040528015610d7457816020015b604080516080810182526000808252602080830182905292820181905260608201528252600019909201910181610d405790505b50915060005b83811015610e30576001600160a01b038616600090815260046020526040812090610da583886115ed565b815260208082019290925260409081016000208151608081018352815465ffffffffffff8082168352600160301b82041694820194909452600160601b9093046001600160801b0316918301919091526001015460608201528351849083908110610e1257610e126116e1565b60200260200101819052508080610e28906116b0565b915050610d7a565b505b509392505050565b610e42610eb3565b6001600160a01b038116610ea75760405162461bcd60e51b815260206004820152602660248201527f4f776e61626c653a206e6577206f776e657220697320746865207a65726f206160448201526564647265737360d01b60648201526084016103a8565b610eb081610f75565b50565b6000546001600160a01b0316331461058c5760405162461bcd60e51b815260206004820181905260248201527f4f776e61626c653a2063616c6c6572206973206e6f7420746865206f776e657260448201526064016103a8565b6040516001600160a01b038316602482015260448101829052610f7090849063a9059cbb60e01b906064015b60408051601f198184030181529190526020810180516001600160e01b03166001600160e01b031990931692909217909152611003565b505050565b600080546001600160a01b038381166001600160a01b0319831681178455604051919092169283917f8be0079c531659141344cd1fd0a4f28419497f9722a3daafe3b4186f6b6457e09190a35050565b6040516001600160a01b0380851660248301528316604482015260648101829052610ffd9085906323b872dd60e01b90608401610f39565b50505050565b6000611058826040518060400160405280602081526020017f5361666545524332303a206c6f772d6c6576656c2063616c6c206661696c6564815250856001600160a01b03166110d59092919063ffffffff16565b805190915015610f705780806020019051810190611076919061139d565b610f705760405162461bcd60e51b815260206004820152602a60248201527f5361666545524332303a204552433230206f7065726174696f6e20646964206e6044820152691bdd081cdd58d8d9595960b21b60648201526084016103a8565b60606110e484846000856110ee565b90505b9392505050565b60608247101561114f5760405162461bcd60e51b815260206004820152602660248201527f416464726573733a20696e73756666696369656e742062616c616e636520666f6044820152651c8818d85b1b60d21b60648201526084016103a8565b6001600160a01b0385163b6111a65760405162461bcd60e51b815260206004820152601d60248201527f416464726573733a2063616c6c20746f206e6f6e2d636f6e747261637400000060448201526064016103a8565b600080866001600160a01b031685876040516111c291906114ca565b60006040518083038185875af1925050503d80600081146111ff576040519150601f19603f3d011682016040523d82523d6000602084013e611204565b606091505b509150915061121482828661121f565b979650505050505050565b6060831561122e5750816110e7565b82511561123e5782518084602001fd5b8160405162461bcd60e51b81526004016103a8919061155e565b80356001600160a01b038116811461126f57600080fd5b919050565b803565ffffffffffff8116811461126f57600080fd5b60006020828403121561129c57600080fd5b6110e782611258565b6000806000606084860312156112ba57600080fd5b6112c384611258565b95602085013595506040909401359392505050565b600060208083850312156112eb57600080fd5b825167ffffffffffffffff8082111561130357600080fd5b818501915085601f83011261131757600080fd5b815181811115611329576113296116f7565b8060051b604051601f19603f8301168101818110858211171561134e5761134e6116f7565b604052828152858101935084860182860187018a101561136d57600080fd5b600095505b83861015611390578051855260019590950194938601938601611372565b5098975050505050505050565b6000602082840312156113af57600080fd5b815180151581146110e757600080fd5b6000602082840312156113d157600080fd5b5035919050565b6000602082840312156113ea57600080fd5b5051919050565b6000806040838503121561140457600080fd5b50508035926020909101359150565b60008060006060848603121561142857600080fd5b505081359360208301359350604090920135919050565b6000806000806080858703121561145557600080fd5b5050823594602084013594506040840135936060013592509050565b60006020828403121561148357600080fd5b813563ffffffff811681146110e757600080fd5b600080604083850312156114aa57600080fd5b6114b383611274565b91506114c160208401611274565b90509250929050565b600082516114dc818460208701611684565b9190910192915050565b602080825282518282018190526000919060409081850190868401855b82811015611551578151805165ffffffffffff9081168652878201511687860152858101516001600160801b0316868601526060908101519085015260809093019290850190600101611503565b5091979650505050505050565b602081526000825180602084015261157d816040850160208701611684565b601f01601f19169190910160400192915050565b60006040820184835260206040818501528185548084526060860191508660005282600020935060005b818110156115e05784546001600160a01b0316835260019485019492840192016115bb565b5090979650505050505050565b60008219821115611600576116006116cb565b500190565b60008261162257634e487b7160e01b600052601260045260246000fd5b500490565b6000816000190483118215151615611641576116416116cb565b500290565b600082821015611658576116586116cb565b500390565b600065ffffffffffff8381169083168181101561167c5761167c6116cb565b039392505050565b60005b8381101561169f578181015183820152602001611687565b83811115610ffd5750506000910152565b60006000198214156116c4576116c46116cb565b5060010190565b634e487b7160e01b600052601160045260246000fd5b634e487b7160e01b600052603260045260246000fd5b634e487b7160e01b600052604160045260246000fdfea2646970667358221220a635a0939e428d75545ecc32b1e768d8c849101b72c98b7aa9536eec7629bf3564736f6c63430008070033",
  "linkReferences": {},
  "deployedLinkReferences": {}
}