{
  "_format": "hh-sol-artifact-1",
  "contractName": "UndeadsStakingUGOLD",
  "sourceName": "contracts/UndeadsStakingUGOLD.sol",
  "abi": [
    {
      "inputs": [
        {
          "internalType": "address",
          "name": "_addrUDS",
          "type": "address"
        },
        {
          "internalType": "address",
          "name": "_addrUGOLD",
          "type": "address"
        },
        {
          "internalType": "address",
          "name": "_addrNFT",
          "type": "address"
        },
        {
          "internalType": "address",
          "name": "_addrAMM",
          "type": "address"
        },
        {
          "internalType": "uint256",
          "name": "_periodOneDay",
          "type": "uint256"
        }
      ],
      "stateMutability": "nonpayable",
      "type": "constructor"
    },
    {
      "anonymous": false,
      "inputs": [
        {
          "indexed": false,
          "internalType": "uint256",
          "name": "class",
          "type": "uint256"
        },
        {
          "indexed": false,
          "internalType": "uint256",
          "name": "subClass",
          "type": "uint256"
        },
        {
          "components": [
            {
              "internalType": "uint256",
              "name": "location",
              "type": "uint256"
            },
            {
              "internalType": "uint16[10]",
              "name": "props",
              "type": "uint16[10]"
            },
            {
              "internalType": "uint8",
              "name": "slots",
              "type": "uint8"
            },
            {
              "internalType": "uint256",
              "name": "count",
              "type": "uint256"
            },
            {
              "internalType": "string",
              "name": "image",
              "type": "string"
            },
            {
              "internalType": "string",
              "name": "dynamic",
              "type": "string"
            }
          ],
          "indexed": false,
          "internalType": "struct UndeadsStakingUGOLD.SNFTResource",
          "name": "data",
          "type": "tuple"
        }
      ],
      "name": "NFTTable",
      "type": "event"
    },
    {
      "anonymous": false,
      "inputs": [
        {
          "indexed": false,
          "internalType": "uint256",
          "name": "class",
          "type": "uint256"
        },
        {
          "indexed": false,
          "internalType": "uint256",
          "name": "subClass",
          "type": "uint256"
        }
      ],
      "name": "NFTTableRemove",
      "type": "event"
    },
    {
      "anonymous": false,
      "inputs": [
        {
          "indexed": true,
          "internalType": "address",
          "name": "previousOwner",
          "type": "address"
        },
        {
          "indexed": true,
          "internalType": "address",
          "name": "newOwner",
          "type": "address"
        }
      ],
      "name": "OwnershipTransferred",
      "type": "event"
    },
    {
      "anonymous": false,
      "inputs": [
        {
          "indexed": false,
          "internalType": "uint256",
          "name": "class",
          "type": "uint256"
        },
        {
          "indexed": false,
          "internalType": "uint256",
          "name": "price",
          "type": "uint256"
        },
        {
          "indexed": false,
          "internalType": "uint256",
          "name": "subClass",
          "type": "uint256"
        }
      ],
      "name": "Price",
      "type": "event"
    },
    {
      "anonymous": false,
      "inputs": [
        {
          "indexed": false,
          "internalType": "uint256",
          "name": "class",
          "type": "uint256"
        },
        {
          "indexed": false,
          "internalType": "uint256",
          "name": "price",
          "type": "uint256"
        }
      ],
      "name": "PriceRemove",
      "type": "event"
    },
    {
      "anonymous": false,
      "inputs": [
        {
          "indexed": true,
          "internalType": "address",
          "name": "owner",
          "type": "address"
        },
        {
          "indexed": false,
          "internalType": "uint256",
          "name": "idSession",
          "type": "uint256"
        },
        {
          "indexed": false,
          "internalType": "uint256",
          "name": "value",
          "type": "uint256"
        },
        {
          "indexed": false,
          "internalType": "uint256",
          "name": "idNFT",
          "type": "uint256"
        },
        {
          "indexed": false,
          "internalType": "uint256",
          "name": "periodDays",
          "type": "uint256"
        },
        {
          "indexed": false,
          "internalType": "uint256",
          "name": "Reward",
          "type": "uint256"
        }
      ],
      "name": "Stake",
      "type": "event"
    },
    {
      "anonymous": false,
      "inputs": [
        {
          "indexed": true,
          "internalType": "address",
          "name": "owner",
          "type": "address"
        },
        {
          "indexed": false,
          "internalType": "uint256",
          "name": "idSession",
          "type": "uint256"
        },
        {
          "indexed": false,
          "internalType": "uint256",
          "name": "value",
          "type": "uint256"
        },
        {
          "indexed": false,
          "internalType": "uint256",
          "name": "idNFT",
          "type": "uint256"
        },
        {
          "indexed": false,
          "internalType": "uint256",
          "name": "periodDays",
          "type": "uint256"
        }
      ],
      "name": "UnStake",
      "type": "event"
    },
    {
      "inputs": [],
      "name": "PeriodOneDay",
      "outputs": [
        {
          "internalType": "uint256",
          "name": "",
          "type": "uint256"
        }
      ],
      "stateMutability": "view",
      "type": "function"
    },
    {
      "inputs": [
        {
          "internalType": "uint256",
          "name": "_amount",
          "type": "uint256"
        }
      ],
      "name": "addReward",
      "outputs": [],
      "stateMutability": "nonpayable",
      "type": "function"
    },
    {
      "inputs": [
        {
          "internalType": "uint256",
          "name": "_class",
          "type": "uint256"
        },
        {
          "internalType": "uint256",
          "name": "_subClass",
          "type": "uint256"
        }
      ],
      "name": "getNFTRaw",
      "outputs": [
        {
          "components": [
            {
              "internalType": "uint256",
              "name": "location",
              "type": "uint256"
            },
            {
              "internalType": "uint16[10]",
              "name": "props",
              "type": "uint16[10]"
            },
            {
              "internalType": "uint8",
              "name": "slots",
              "type": "uint8"
            },
            {
              "internalType": "uint256",
              "name": "count",
              "type": "uint256"
            },
            {
              "internalType": "string",
              "name": "image",
              "type": "string"
            },
            {
              "internalType": "string",
              "name": "dynamic",
              "type": "string"
            }
          ],
          "internalType": "struct UndeadsStakingUGOLD.SNFTResource",
          "name": "",
          "type": "tuple"
        }
      ],
      "stateMutability": "view",
      "type": "function"
    },
    {
      "inputs": [
        {
          "internalType": "uint256",
          "name": "_class",
          "type": "uint256"
        },
        {
          "internalType": "uint256",
          "name": "_price",
          "type": "uint256"
        }
      ],
      "name": "getSubClass",
      "outputs": [
        {
          "internalType": "int256",
          "name": "",
          "type": "int256"
        }
      ],
      "stateMutability": "view",
      "type": "function"
    },
    {
      "inputs": [
        {
          "internalType": "address",
          "name": "_addr",
          "type": "address"
        }
      ],
      "name": "lengthSessions",
      "outputs": [
        {
          "internalType": "uint256",
          "name": "",
          "type": "uint256"
        }
      ],
      "stateMutability": "view",
      "type": "function"
    },
    {
      "inputs": [
        {
          "internalType": "address",
          "name": "_addr",
          "type": "address"
        },
        {
          "internalType": "uint256",
          "name": "_startIndex",
          "type": "uint256"
        },
        {
          "internalType": "uint256",
          "name": "_counts",
          "type": "uint256"
        }
      ],
      "name": "listSessions",
      "outputs": [
        {
          "components": [
            {
              "internalType": "uint48",
              "name": "Start",
              "type": "uint48"
            },
            {
              "internalType": "uint48",
              "name": "End",
              "type": "uint48"
            },
            {
              "internalType": "uint128",
              "name": "Body",
              "type": "uint128"
            },
            {
              "internalType": "uint256",
              "name": "idNFT",
              "type": "uint256"
            }
          ],
          "internalType": "struct UndeadsStakingUGOLD.SSession[]",
          "name": "Arr",
          "type": "tuple[]"
        }
      ],
      "stateMutability": "view",
      "type": "function"
    },
    {
      "inputs": [],
      "name": "maxStakePeriod",
      "outputs": [
        {
          "internalType": "uint48",
          "name": "",
          "type": "uint48"
        }
      ],
      "stateMutability": "view",
      "type": "function"
    },
    {
      "inputs": [],
      "name": "minStakePeriod",
      "outputs": [
        {
          "internalType": "uint48",
          "name": "",
          "type": "uint48"
        }
      ],
      "stateMutability": "view",
      "type": "function"
    },
    {
      "inputs": [],
      "name": "owner",
      "outputs": [
        {
          "internalType": "address",
          "name": "",
          "type": "address"
        }
      ],
      "stateMutability": "view",
      "type": "function"
    },
    {
      "inputs": [
        {
          "internalType": "uint256",
          "name": "",
          "type": "uint256"
        }
      ],
      "name": "pathAMM",
      "outputs": [
        {
          "internalType": "address",
          "name": "",
          "type": "address"
        }
      ],
      "stateMutability": "view",
      "type": "function"
    },
    {
      "inputs": [],
      "name": "poolReward",
      "outputs": [
        {
          "internalType": "uint256",
          "name": "",
          "type": "uint256"
        }
      ],
      "stateMutability": "view",
      "type": "function"
    },
    {
      "inputs": [],
      "name": "poolStake",
      "outputs": [
        {
          "internalType": "uint256",
          "name": "",
          "type": "uint256"
        }
      ],
      "stateMutability": "view",
      "type": "function"
    },
    {
      "inputs": [
        {
          "internalType": "uint256",
          "name": "_class",
          "type": "uint256"
        },
        {
          "internalType": "uint256",
          "name": "_subClass",
          "type": "uint256"
        }
      ],
      "name": "removeNFTRaw",
      "outputs": [],
      "stateMutability": "nonpayable",
      "type": "function"
    },
    {
      "inputs": [
        {
          "internalType": "uint256",
          "name": "_class",
          "type": "uint256"
        },
        {
          "internalType": "uint256",
          "name": "_price",
          "type": "uint256"
        }
      ],
      "name": "removePrice",
      "outputs": [],
      "stateMutability": "nonpayable",
      "type": "function"
    },
    {
      "inputs": [],
      "name": "renounceOwnership",
      "outputs": [],
      "stateMutability": "nonpayable",
      "type": "function"
    },
    {
      "inputs": [
        {
          "internalType": "uint256",
          "name": "_class",
          "type": "uint256"
        },
        {
          "internalType": "uint256",
          "name": "_subClass",
          "type": "uint256"
        },
        {
          "components": [
            {
              "internalType": "uint256",
              "name": "location",
              "type": "uint256"
            },
            {
              "internalType": "uint16[10]",
              "name": "props",
              "type": "uint16[10]"
            },
            {
              "internalType": "uint8",
              "name": "slots",
              "type": "uint8"
            },
            {
              "internalType": "uint256",
              "name": "count",
              "type": "uint256"
            },
            {
              "internalType": "string",
              "name": "image",
              "type": "string"
            },
            {
              "internalType": "string",
              "name": "dynamic",
              "type": "string"
            }
          ],
          "internalType": "struct UndeadsStakingUGOLD.SNFTResource",
          "name": "data",
          "type": "tuple"
        }
      ],
      "name": "setNFTRaw",
      "outputs": [],
      "stateMutability": "nonpayable",
      "type": "function"
    },
    {
      "inputs": [
        {
          "internalType": "uint256",
          "name": "_class",
          "type": "uint256"
        },
        {
          "internalType": "uint256",
          "name": "_price",
          "type": "uint256"
        },
        {
          "internalType": "uint256",
          "name": "_subClass",
          "type": "uint256"
        }
      ],
      "name": "setPrice",
      "outputs": [],
      "stateMutability": "nonpayable",
      "type": "function"
    },
    {
      "inputs": [
        {
          "internalType": "uint48",
          "name": "_min",
          "type": "uint48"
        },
        {
          "internalType": "uint48",
          "name": "_max",
          "type": "uint48"
        }
      ],
      "name": "setStakePeriod",
      "outputs": [],
      "stateMutability": "nonpayable",
      "type": "function"
    },
    {
      "inputs": [],
      "name": "smartAMM",
      "outputs": [
        {
          "internalType": "contract IRouter",
          "name": "",
          "type": "address"
        }
      ],
      "stateMutability": "view",
      "type": "function"
    },
    {
      "inputs": [],
      "name": "smartGOLD",
      "outputs": [
        {
          "internalType": "contract IERC20",
          "name": "",
          "type": "address"
        }
      ],
      "stateMutability": "view",
      "type": "function"
    },
    {
      "inputs": [],
      "name": "smartNFT",
      "outputs": [
        {
          "internalType": "contract UndeadNFT",
          "name": "",
          "type": "address"
        }
      ],
      "stateMutability": "view",
      "type": "function"
    },
    {
      "inputs": [],
      "name": "smartUDS",
      "outputs": [
        {
          "internalType": "contract IERC20",
          "name": "",
          "type": "address"
        }
      ],
      "stateMutability": "view",
      "type": "function"
    },
    {
      "inputs": [
        {
          "internalType": "uint256",
          "name": "_amount",
          "type": "uint256"
        },
        {
          "internalType": "uint256",
          "name": "_periodDay",
          "type": "uint256"
        },
        {
          "internalType": "uint256",
          "name": "_class",
          "type": "uint256"
        },
        {
          "internalType": "uint256",
          "name": "_price",
          "type": "uint256"
        }
      ],
      "name": "stake",
      "outputs": [],
      "stateMutability": "nonpayable",
      "type": "function"
    },
    {
      "inputs": [
        {
          "internalType": "address",
          "name": "newOwner",
          "type": "address"
        }
      ],
      "name": "transferOwnership",
      "outputs": [],
      "stateMutability": "nonpayable",
      "type": "function"
    },
    {
      "inputs": [
        {
          "internalType": "uint32",
          "name": "_sessionId",
          "type": "uint32"
        }
      ],
      "name": "unstake",
      "outputs": [],
      "stateMutability": "nonpayable",
      "type": "function"
    },
    {
      "inputs": [
        {
          "internalType": "uint256",
          "name": "_amount",
          "type": "uint256"
        }
      ],
      "name": "withdrawReward",
      "outputs": [],
      "stateMutability": "nonpayable",
      "type": "function"
    },
    {
      "inputs": [
        {
          "internalType": "uint256",
          "name": "_amount",
          "type": "uint256"
        }
      ],
      "name": "withdrawStake",
      "outputs": [],
      "stateMutability": "nonpayable",
      "type": "function"
    }
  ],
  "bytecode": "0x60806040523480156200001157600080fd5b50604051620026133803806200261383398101604081905262000034916200021a565b6200003f336200012c565b600980546001600160a01b03199081166001600160a01b03888116918217909355600a80548316888516908117909155600b805484168786161790556008805490931693871693909317909155604080518082019091529182526020820152620000ae90600c9060026200017c565b5060008111620001045760405162461bcd60e51b815260206004820152601860248201527f4572726f722c207a65726f20706572696f644f6e654461790000000000000000604482015260640160405180910390fd5b6001555050600d80546001600160601b03191667016d00000000001e17905550620002819050565b600080546001600160a01b038381166001600160a01b0319831681178455604051919092169283917f8be0079c531659141344cd1fd0a4f28419497f9722a3daafe3b4186f6b6457e09190a35050565b828054828255906000526020600020908101928215620001d4579160200282015b82811115620001d457825182546001600160a01b0319166001600160a01b039091161782556020909201916001909101906200019d565b50620001e2929150620001e6565b5090565b5b80821115620001e25760008155600101620001e7565b80516001600160a01b03811681146200021557600080fd5b919050565b600080600080600060a086880312156200023357600080fd5b6200023e86620001fd565b94506200024e60208701620001fd565b93506200025e60408701620001fd565b92506200026e60608701620001fd565b9150608086015190509295509295909350565b61238280620002916000396000f3fe608060405234801561001057600080fd5b50600436106101a95760003560e01c80638da5cb5b116100f9578063d84f2bc611610097578063edad586911610071578063edad5869146103ae578063ede5a416146103ce578063f2fde38b146103e1578063fef10b95146103f457600080fd5b8063d84f2bc614610380578063dec7650914610392578063ed038f521461039b57600080fd5b8063b9171e3b116100d3578063b9171e3b14610334578063c152d3f114610347578063c3dbf4a71461035a578063ce93a8821461036d57600080fd5b80638da5cb5b146102fd578063aa585d561461030e578063af5570df1461032157600080fd5b8063523a3f0811610166578063715018a611610140578063715018a61461029f57806374de4ec4146102a75780637691eca6146102ba578063809ee57d146102ea57600080fd5b8063523a3f08146102705780635fd66320146102835780636a188bd71461028c57600080fd5b80631edf3c3b146101ae57806325d5971f146101ea578063292a63b0146101ff57806339775abd1461021f57806339a88f74146102325780634dc2eb0a1461025d575b600080fd5b6101d76101bc366004611bc2565b6001600160a01b031660009081526005602052604090205490565b6040519081526020015b60405180910390f35b6101fd6101f8366004611cdf565b6103fd565b005b61021261020d366004611d11565b610485565b6040516101e191906120b3565b6101fd61022d366004611e99565b610659565b600854610245906001600160a01b031681565b6040516001600160a01b0390911681526020016101e1565b600b54610245906001600160a01b031681565b6101fd61027e366004611cdf565b610696565b6101d760035481565b61024561029a366004611cdf565b610712565b6101fd61073c565b6101fd6102b5366004611cdf565b610750565b600d546102d390600160301b900465ffffffffffff1681565b60405165ffffffffffff90911681526020016101e1565b6101fd6102f8366004611e73565b610782565b6000546001600160a01b0316610245565b6101fd61031c366004611e15565b6109d7565b6101fd61032f366004611d33565b610a8f565b6101fd610342366004611d11565b610b5e565b6101d7610355366004611d11565b610bbe565b6101fd610368366004611d11565b610beb565b6101fd61037b366004611e41565b610c7d565b600d546102d39065ffffffffffff1681565b6101d760015481565b600a54610245906001600160a01b031681565b6103c16103bc366004611bdd565b611319565b6040516101e19190612028565b600954610245906001600160a01b031681565b6101fd6103ef366004611bc2565b6114af565b6101d760025481565b610405611528565b8060035410156104545760405162461bcd60e51b8152602060048201526015602482015274139bdd08195b9bdd59da081cdd185ad9481c1bdbdb605a1b60448201526064015b60405180910390fd5b60095461046b906001600160a01b03163383611582565b806003600082825461047d9190612233565b909155505050565b61048d6118cd565b60008381526007602090815260408083208584528252808320815160c0810183528154815282516101408101938490529094919385019290916001850191600a918390855b82829054906101000a900461ffff1661ffff16815260200190600201906020826001010492830192600103820291508084116104d257505050928452505050600282015460ff1660208201526003820154604082015260048201805460609092019161053d906122b4565b80601f0160208091040260200160405190810160405280929190818152602001828054610569906122b4565b80156105b65780601f1061058b576101008083540402835291602001916105b6565b820191906000526020600020905b81548152906001019060200180831161059957829003601f168201915b505050505081526020016005820180546105cf906122b4565b80601f01602080910402602001604051908101604052809291908181526020018280546105fb906122b4565b80156106485780601f1061061d57610100808354040283529160200191610648565b820191906000526020600020905b81548152906001019060200180831161062b57829003601f168201915b505050505081525050905092915050565b610661611528565b600d805465ffffffffffff928316600160301b026bffffffffffffffffffffffff199091169290931691909117919091179055565b61069e611528565b8060025410156106e95760405162461bcd60e51b8152602060048201526016602482015275139bdd08195b9bdd59da081c995dd85c99081c1bdbdb60521b604482015260640161044b565b600954610700906001600160a01b03163383611582565b806002600082825461047d9190612233565b600c818154811061072257600080fd5b6000918252602090912001546001600160a01b0316905081565b610744611528565b61074e60006115ea565b565b610758611528565b600954610770906001600160a01b031633308461163a565b806002600082825461047d919061219b565b33600090815260046020908152604080832063ffffffff851684528252918290208251608081018452815465ffffffffffff8082168352600160301b820416938201849052600160601b90046001600160801b0316938101939093526001015460608301526108255760405162461bcd60e51b815260206004820152600f60248201526e115c9c9bdc881cd95cdcda5bdb9259608a1b604482015260640161044b565b806020015165ffffffffffff1642116108775760405162461bcd60e51b81526020600482015260146024820152734572726f7220756e7374616b696e672074696d6560601b604482015260640161044b565b6040810151600a5461089f916001600160a01b039091169033906001600160801b0316611582565b60085460608201516040516323b872dd60e01b815230600482015233602482015260448101919091526001600160a01b03909116906323b872dd90606401600060405180830381600087803b1580156108f757600080fd5b505af115801561090b573d6000803e3d6000fd5b50505050336001600160a01b03167ff74c9f1985016ff6aa83c3fd81e31d0be3b194f205ae5e1b57f5bd74ad28e4cf83836040015184606001516001548660000151876020015161095c919061224a565b65ffffffffffff1661096e91906121b3565b6040805163ffffffff90951685526001600160801b03909316602085015291830152606082015260800160405180910390a25033600090815260046020908152604080832063ffffffff909416835292905290812080546001600160e01b031916815560010155565b6109df611528565b60008211610a235760405162461bcd60e51b81526020600482015260116024820152704572726f722c207a65726f20707269636560781b604482015260640161044b565b610a2e81600161219b565b600084815260066020908152604080832086845282529182902092909255805185815291820184905281018290527f4afcb4a87cdbd9974efdb92ee48bc8d7cd0ae4bf217004db3d080cbaee652ca7906060015b60405180910390a1505050565b610a97611528565b600083815260076020908152604080832085845282529091208251815590820151829190610acb906001830190600a61190c565b50604082015160028201805460ff191660ff9092169190911790556060820151600382015560808201518051610b0b9160048401916020909101906119a2565b5060a08201518051610b279160058401916020909101906119a2565b509050507ff67793332444a0dd1f0450514ffa2063a200c4c483e98276dc4757de8a09e1cb838383604051610a8293929190612122565b610b66611528565b600082815260066020908152604080832084845282528083209290925581518481529081018390527ff2691b4c36cf627f29e8ccd5f45cc02b6dbc19fa1d67c853c4e29044d574bc3e91015b60405180910390a15050565b6000828152600660209081526040808320848452909152812054610be36001826121f4565b949350505050565b610bf3611528565b600082815260076020908152604080832084845290915281208181556001810182905560028101805460ff191690556003810182905590610c376004830182611a16565b610c45600583016000611a16565b505060408051838152602081018390527fc60539275cc4f080405f4fcc69ef1f654849750337fbe3426b908b8f17c7ff109101610bb2565b60008411610cc25760405162461bcd60e51b8152602060048201526012602482015271115c9c9bdc8b081e995c9bc8185b5bdd5b9d60721b604482015260640161044b565b60008311610d0a5760405162461bcd60e51b81526020600482015260156024820152744572726f722c207a65726f20706572696f6444617960581b604482015260640161044b565b600d5465ffffffffffff168310801590610d355750600d54600160301b900465ffffffffffff168311155b610d735760405162461bcd60e51b815260206004820152600f60248201526e4572726f7220706572696f6444617960881b604482015260640161044b565b600a54610d8b906001600160a01b031633308761163a565b600b5460405163d06ca61f60e01b81526000916001600160a01b03169063d06ca61f90610dbf908890600c906004016120c6565b60006040518083038186803b158015610dd757600080fd5b505afa158015610deb573d6000803e3d6000fd5b505050506040513d6000823e601f3d908101601f19168201604052610e139190810190611c10565b9050600081600181518110610e2a57610e2a612320565b60200260200101519050600061016d86600a846006610e4991906121d5565b610e5391906121b3565b610e5d91906121d5565b610e6791906121b3565b9050806002541015610eb45760405162461bcd60e51b8152602060048201526016602482015275139bdd08195b9bdd59da081c995dd85c99081c1bdbdb60521b604482015260640161044b565b60008581526006602090815260408083208784529091529020548015801590610edd5750848210155b610f1b5760405162461bcd60e51b815260206004820152600f60248201526e4572726f72204e465420707269636560881b604482015260640161044b565b80610f258161229d565b60008881526007602090815260408083208484528252808320815160c081018352815481528251610140810193849052959750939550929391840191906001840190600a908288855b82829054906101000a900461ffff1661ffff1681526020019060020190602082600101049283019260010382029150808411610f6e57505050928452505050600282015460ff16602082015260038201546040820152600482018054606090920191610fd9906122b4565b80601f0160208091040260200160405190810160405280929190818152602001828054611005906122b4565b80156110525780601f1061102757610100808354040283529160200191611052565b820191906000526020600020905b81548152906001019060200180831161103557829003601f168201915b5050505050815260200160058201805461106b906122b4565b80601f0160208091040260200160405190810160405280929190818152602001828054611097906122b4565b80156110e45780601f106110b9576101008083540402835291602001916110e4565b820191906000526020600020905b8154815290600101906020018083116110c757829003601f168201915b50505050508152505090506000600860009054906101000a90046001600160a01b03166001600160a01b031663ec6e373f308a8686600001518760200151886040015189606001518a608001518b60a001516040518a63ffffffff1660e01b815260040161115a99989796959493929190611fac565b602060405180830381600087803b15801561117457600080fd5b505af1158015611188573d6000803e3d6000fd5b505050506040513d601f19601f820116820180604052508101906111ac9190611cf8565b3360009081526005602052604081208054929350906111ca836122ef565b90915550503360009081526005602090815260408083205460048352818420818552909252909120805465ffffffffffff19164265ffffffffffff16178155600154611216908c6121d5565b611220904261219b565b81546601000000000000600160e01b031916600160301b65ffffffffffff92909216919091026fffffffffffffffffffffffffffffffff60601b191617600160601b6001600160801b038e1602178155600181018390556002805487919060009061128c908490612233565b9250508190555085600360008282546112a5919061219b565b9091555050805460408051848152600160601b9092046001600160801b031660208301528101849052606081018c90526080810187905233907fc6f8dbf1fa0a0918d52df74fa2b529a0a4da7011a24f263a28678e7504444cd69060a00160405180910390a2505050505050505050505050565b6001600160a01b038316600090815260056020526040902054606090600184101561134357600193505b8084116114a75761135581600161219b565b61135f848661219b565b111561137e578361137182600161219b565b61137b9190612233565b92505b8267ffffffffffffffff81111561139757611397612336565b6040519080825280602002602001820160405280156113e957816020015b6040805160808101825260008082526020808301829052928201819052606082015282526000199092019101816113b55790505b50915060005b838110156114a5576001600160a01b03861660009081526004602052604081209061141a838861219b565b815260208082019290925260409081016000208151608081018352815465ffffffffffff8082168352600160301b82041694820194909452600160601b9093046001600160801b031691830191909152600101546060820152835184908390811061148757611487612320565b6020026020010181905250808061149d906122ef565b9150506113ef565b505b509392505050565b6114b7611528565b6001600160a01b03811661151c5760405162461bcd60e51b815260206004820152602660248201527f4f776e61626c653a206e6577206f776e657220697320746865207a65726f206160448201526564647265737360d01b606482015260840161044b565b611525816115ea565b50565b6000546001600160a01b0316331461074e5760405162461bcd60e51b815260206004820181905260248201527f4f776e61626c653a2063616c6c6572206973206e6f7420746865206f776e6572604482015260640161044b565b6040516001600160a01b0383166024820152604481018290526115e590849063a9059cbb60e01b906064015b60408051601f198184030181529190526020810180516001600160e01b03166001600160e01b031990931692909217909152611678565b505050565b600080546001600160a01b038381166001600160a01b0319831681178455604051919092169283917f8be0079c531659141344cd1fd0a4f28419497f9722a3daafe3b4186f6b6457e09190a35050565b6040516001600160a01b03808516602483015283166044820152606481018290526116729085906323b872dd60e01b906084016115ae565b50505050565b60006116cd826040518060400160405280602081526020017f5361666545524332303a206c6f772d6c6576656c2063616c6c206661696c6564815250856001600160a01b031661174a9092919063ffffffff16565b8051909150156115e557808060200190518101906116eb9190611cbd565b6115e55760405162461bcd60e51b815260206004820152602a60248201527f5361666545524332303a204552433230206f7065726174696f6e20646964206e6044820152691bdd081cdd58d8d9595960b21b606482015260840161044b565b60606117598484600085611763565b90505b9392505050565b6060824710156117c45760405162461bcd60e51b815260206004820152602660248201527f416464726573733a20696e73756666696369656e742062616c616e636520666f6044820152651c8818d85b1b60d21b606482015260840161044b565b6001600160a01b0385163b61181b5760405162461bcd60e51b815260206004820152601d60248201527f416464726573733a2063616c6c20746f206e6f6e2d636f6e7472616374000000604482015260640161044b565b600080866001600160a01b031685876040516118379190611f90565b60006040518083038185875af1925050503d8060008114611874576040519150601f19603f3d011682016040523d82523d6000602084013e611879565b606091505b5091509150611889828286611894565b979650505050505050565b606083156118a357508161175c565b8251156118b35782518084602001fd5b8160405162461bcd60e51b815260040161044b91906120a0565b6040518060c00160405280600081526020016118e7611a50565b8152602001600060ff1681526020016000815260200160608152602001606081525090565b6001830191839082156119925791602002820160005b8382111561196257835183826101000a81548161ffff021916908361ffff1602179055509260200192600201602081600101049283019260010302611922565b80156119905782816101000a81549061ffff0219169055600201602081600101049283019260010302611962565b505b5061199e929150611a6f565b5090565b8280546119ae906122b4565b90600052602060002090601f0160209004810192826119d05760008555611992565b82601f106119e957805160ff1916838001178555611992565b82800160010185558215611992579182015b828111156119925782518255916020019190600101906119fb565b508054611a22906122b4565b6000825580601f10611a32575050565b601f0160209004906000526020600020908101906115259190611a6f565b604051806101400160405280600a906020820280368337509192915050565b5b8082111561199e5760008155600101611a70565b80356001600160a01b0381168114611a9b57600080fd5b919050565b600082601f830112611ab157600080fd5b60405161014080820182811067ffffffffffffffff82111715611ad657611ad6612336565b6040528184828101871015611aea57600080fd5b60009250825b600a811015611b1f57813561ffff81168114611b0a578485fd5b83526020928301929190910190600101611af0565b50929695505050505050565b600082601f830112611b3c57600080fd5b813567ffffffffffffffff811115611b5657611b56612336565b611b69601f8201601f191660200161216a565b818152846020838601011115611b7e57600080fd5b816020850160208301376000918101602001919091529392505050565b803565ffffffffffff81168114611a9b57600080fd5b803560ff81168114611a9b57600080fd5b600060208284031215611bd457600080fd5b61175c82611a84565b600080600060608486031215611bf257600080fd5b611bfb84611a84565b95602085013595506040909401359392505050565b60006020808385031215611c2357600080fd5b825167ffffffffffffffff80821115611c3b57600080fd5b818501915085601f830112611c4f57600080fd5b815181811115611c6157611c61612336565b8060051b9150611c7284830161216a565b8181528481019084860184860187018a1015611c8d57600080fd5b600095505b83861015611cb0578051835260019590950194918601918601611c92565b5098975050505050505050565b600060208284031215611ccf57600080fd5b8151801515811461175c57600080fd5b600060208284031215611cf157600080fd5b5035919050565b600060208284031215611d0a57600080fd5b5051919050565b60008060408385031215611d2457600080fd5b50508035926020909101359150565b600080600060608486031215611d4857600080fd5b8335925060208401359150604084013567ffffffffffffffff80821115611d6e57600080fd5b908501906101e08288031215611d8357600080fd5b611d8b612141565b82358152611d9c8860208501611aa0565b6020820152611dae6101608401611bb1565b604082015261018083013560608201526101a083013582811115611dd157600080fd5b611ddd89828601611b2b565b6080830152506101c083013582811115611df657600080fd5b611e0289828601611b2b565b60a0830152508093505050509250925092565b600080600060608486031215611e2a57600080fd5b505081359360208301359350604090920135919050565b60008060008060808587031215611e5757600080fd5b5050823594602084013594506040840135936060013592509050565b600060208284031215611e8557600080fd5b813563ffffffff8116811461175c57600080fd5b60008060408385031215611eac57600080fd5b611eb583611b9b565b9150611ec360208401611b9b565b90509250929050565b8060005b600a81101561167257815161ffff16845260209384019390910190600101611ed0565b60008151808452611f0b816020860160208601612271565b601f01601f19169290920160200192915050565b60006101e0825184526020830151611f3a6020860182611ecc565b5060ff60408401511661016085015260608301516101808501526080830151816101a0860152611f6c82860182611ef3565b91505060a08301518482036101c0860152611f878282611ef3565b95945050505050565b60008251611fa2818460208701612271565b9190910192915050565b6001600160a01b038a1681526020810189905260408101889052606081018790526000610240611fdf6080840189611ecc565b60ff87166101c0840152856101e08401528061020084015261200381840186611ef3565b90508281036102208401526120188185611ef3565b9c9b505050505050505050505050565b602080825282518282018190526000919060409081850190868401855b82811015612093578151805165ffffffffffff9081168652878201511687860152858101516001600160801b0316868601526060908101519085015260809093019290850190600101612045565b5091979650505050505050565b60208152600061175c6020830184611ef3565b60208152600061175c6020830184611f1f565b60006040820184835260206040818501528185548084526060860191508660005282600020935060005b818110156121155784546001600160a01b0316835260019485019492840192016120f0565b5090979650505050505050565b838152826020820152606060408201526000611f876060830184611f1f565b60405160c0810167ffffffffffffffff8111828210171561216457612164612336565b60405290565b604051601f8201601f1916810167ffffffffffffffff8111828210171561219357612193612336565b604052919050565b600082198211156121ae576121ae61230a565b500190565b6000826121d057634e487b7160e01b600052601260045260246000fd5b500490565b60008160001904831182151516156121ef576121ef61230a565b500290565b60008083128015600160ff1b8501841216156122125761221261230a565b6001600160ff1b038401831381161561222d5761222d61230a565b50500390565b6000828210156122455761224561230a565b500390565b600065ffffffffffff838116908316818110156122695761226961230a565b039392505050565b60005b8381101561228c578181015183820152602001612274565b838111156116725750506000910152565b6000816122ac576122ac61230a565b506000190190565b600181811c908216806122c857607f821691505b602082108114156122e957634e487b7160e01b600052602260045260246000fd5b50919050565b60006000198214156123035761230361230a565b5060010190565b634e487b7160e01b600052601160045260246000fd5b634e487b7160e01b600052603260045260246000fd5b634e487b7160e01b600052604160045260246000fdfea264697066735822122079bedd7c934055d113b119ab31d0165e0a6783d9cd84dffbcb6a610fbaae667c64736f6c63430008070033",
  "linkReferences": {},
  "deployedLinkReferences": {}
}