{
  "_format": "hh-sol-artifact-1",
  "contractName": "UndeadsStakingUGOLD",
  "sourceName": "contracts/UndeadsStakingUGOLD.sol",
  "abi": [
    {
      "inputs": [
        {
          "internalType": "address",
          "name": "_addrUDS",
          "type": "address"
        },
        {
          "internalType": "address",
          "name": "_addrUGOLD",
          "type": "address"
        },
        {
          "internalType": "address",
          "name": "_addrNFT",
          "type": "address"
        },
        {
          "internalType": "address",
          "name": "_addrAMM",
          "type": "address"
        },
        {
          "internalType": "uint256",
          "name": "_periodOneDay",
          "type": "uint256"
        }
      ],
      "stateMutability": "nonpayable",
      "type": "constructor"
    },
    {
      "anonymous": false,
      "inputs": [
        {
          "indexed": true,
          "internalType": "address",
          "name": "previousOwner",
          "type": "address"
        },
        {
          "indexed": true,
          "internalType": "address",
          "name": "newOwner",
          "type": "address"
        }
      ],
      "name": "OwnershipTransferred",
      "type": "event"
    },
    {
      "anonymous": false,
      "inputs": [
        {
          "indexed": true,
          "internalType": "address",
          "name": "owner",
          "type": "address"
        },
        {
          "indexed": false,
          "internalType": "uint256",
          "name": "idSession",
          "type": "uint256"
        },
        {
          "indexed": false,
          "internalType": "uint256",
          "name": "value",
          "type": "uint256"
        },
        {
          "indexed": false,
          "internalType": "uint256",
          "name": "idNFT",
          "type": "uint256"
        },
        {
          "indexed": false,
          "internalType": "uint256",
          "name": "periodDays",
          "type": "uint256"
        },
        {
          "indexed": false,
          "internalType": "uint256",
          "name": "Reward",
          "type": "uint256"
        }
      ],
      "name": "Stake",
      "type": "event"
    },
    {
      "anonymous": false,
      "inputs": [
        {
          "indexed": true,
          "internalType": "address",
          "name": "owner",
          "type": "address"
        },
        {
          "indexed": false,
          "internalType": "uint256",
          "name": "idSession",
          "type": "uint256"
        },
        {
          "indexed": false,
          "internalType": "uint256",
          "name": "value",
          "type": "uint256"
        },
        {
          "indexed": false,
          "internalType": "uint256",
          "name": "idNFT",
          "type": "uint256"
        },
        {
          "indexed": false,
          "internalType": "uint256",
          "name": "periodDays",
          "type": "uint256"
        }
      ],
      "name": "UnStake",
      "type": "event"
    },
    {
      "inputs": [],
      "name": "PeriodOneDay",
      "outputs": [
        {
          "internalType": "uint256",
          "name": "",
          "type": "uint256"
        }
      ],
      "stateMutability": "view",
      "type": "function"
    },
    {
      "inputs": [
        {
          "internalType": "uint256",
          "name": "_amount",
          "type": "uint256"
        }
      ],
      "name": "addReward",
      "outputs": [],
      "stateMutability": "nonpayable",
      "type": "function"
    },
    {
      "inputs": [
        {
          "internalType": "uint256",
          "name": "_class",
          "type": "uint256"
        },
        {
          "internalType": "uint256",
          "name": "_price",
          "type": "uint256"
        }
      ],
      "name": "getSubClass",
      "outputs": [
        {
          "internalType": "uint256",
          "name": "",
          "type": "uint256"
        }
      ],
      "stateMutability": "view",
      "type": "function"
    },
    {
      "inputs": [
        {
          "internalType": "address",
          "name": "_addr",
          "type": "address"
        }
      ],
      "name": "lengthSessions",
      "outputs": [
        {
          "internalType": "uint256",
          "name": "",
          "type": "uint256"
        }
      ],
      "stateMutability": "view",
      "type": "function"
    },
    {
      "inputs": [
        {
          "internalType": "address",
          "name": "_addr",
          "type": "address"
        },
        {
          "internalType": "uint256",
          "name": "_startIndex",
          "type": "uint256"
        },
        {
          "internalType": "uint256",
          "name": "_counts",
          "type": "uint256"
        }
      ],
      "name": "listSessions",
      "outputs": [
        {
          "components": [
            {
              "internalType": "uint48",
              "name": "Start",
              "type": "uint48"
            },
            {
              "internalType": "uint48",
              "name": "End",
              "type": "uint48"
            },
            {
              "internalType": "uint128",
              "name": "Body",
              "type": "uint128"
            },
            {
              "internalType": "uint256",
              "name": "idNFT",
              "type": "uint256"
            }
          ],
          "internalType": "struct UndeadsStakingUGOLD.SSession[]",
          "name": "Arr",
          "type": "tuple[]"
        }
      ],
      "stateMutability": "view",
      "type": "function"
    },
    {
      "inputs": [],
      "name": "owner",
      "outputs": [
        {
          "internalType": "address",
          "name": "",
          "type": "address"
        }
      ],
      "stateMutability": "view",
      "type": "function"
    },
    {
      "inputs": [
        {
          "internalType": "uint256",
          "name": "",
          "type": "uint256"
        }
      ],
      "name": "pathAMM",
      "outputs": [
        {
          "internalType": "address",
          "name": "",
          "type": "address"
        }
      ],
      "stateMutability": "view",
      "type": "function"
    },
    {
      "inputs": [],
      "name": "poolReward",
      "outputs": [
        {
          "internalType": "uint256",
          "name": "",
          "type": "uint256"
        }
      ],
      "stateMutability": "view",
      "type": "function"
    },
    {
      "inputs": [],
      "name": "poolStake",
      "outputs": [
        {
          "internalType": "uint256",
          "name": "",
          "type": "uint256"
        }
      ],
      "stateMutability": "view",
      "type": "function"
    },
    {
      "inputs": [],
      "name": "renounceOwnership",
      "outputs": [],
      "stateMutability": "nonpayable",
      "type": "function"
    },
    {
      "inputs": [
        {
          "internalType": "uint256",
          "name": "_class",
          "type": "uint256"
        },
        {
          "internalType": "uint256",
          "name": "_price",
          "type": "uint256"
        },
        {
          "internalType": "uint256",
          "name": "_subClass",
          "type": "uint256"
        }
      ],
      "name": "setSubClass",
      "outputs": [],
      "stateMutability": "nonpayable",
      "type": "function"
    },
    {
      "inputs": [],
      "name": "smartAMM",
      "outputs": [
        {
          "internalType": "contract IRouter",
          "name": "",
          "type": "address"
        }
      ],
      "stateMutability": "view",
      "type": "function"
    },
    {
      "inputs": [],
      "name": "smartGOLD",
      "outputs": [
        {
          "internalType": "contract IERC20",
          "name": "",
          "type": "address"
        }
      ],
      "stateMutability": "view",
      "type": "function"
    },
    {
      "inputs": [],
      "name": "smartNFT",
      "outputs": [
        {
          "internalType": "contract UndeadNFT",
          "name": "",
          "type": "address"
        }
      ],
      "stateMutability": "view",
      "type": "function"
    },
    {
      "inputs": [],
      "name": "smartUDS",
      "outputs": [
        {
          "internalType": "contract IERC20",
          "name": "",
          "type": "address"
        }
      ],
      "stateMutability": "view",
      "type": "function"
    },
    {
      "inputs": [
        {
          "internalType": "uint256",
          "name": "_amount",
          "type": "uint256"
        },
        {
          "internalType": "uint256",
          "name": "_periodDay",
          "type": "uint256"
        },
        {
          "internalType": "uint256",
          "name": "_class",
          "type": "uint256"
        },
        {
          "internalType": "uint256",
          "name": "_price",
          "type": "uint256"
        }
      ],
      "name": "stake",
      "outputs": [],
      "stateMutability": "nonpayable",
      "type": "function"
    },
    {
      "inputs": [
        {
          "internalType": "address",
          "name": "newOwner",
          "type": "address"
        }
      ],
      "name": "transferOwnership",
      "outputs": [],
      "stateMutability": "nonpayable",
      "type": "function"
    },
    {
      "inputs": [
        {
          "internalType": "uint32",
          "name": "_sessionId",
          "type": "uint32"
        }
      ],
      "name": "unstake",
      "outputs": [],
      "stateMutability": "nonpayable",
      "type": "function"
    },
    {
      "inputs": [
        {
          "internalType": "uint256",
          "name": "_amount",
          "type": "uint256"
        }
      ],
      "name": "withdrawReward",
      "outputs": [],
      "stateMutability": "nonpayable",
      "type": "function"
    },
    {
      "inputs": [
        {
          "internalType": "uint256",
          "name": "_amount",
          "type": "uint256"
        }
      ],
      "name": "withdrawStake",
      "outputs": [],
      "stateMutability": "nonpayable",
      "type": "function"
    }
  ],
  "bytecode": "0x60806040523480156200001157600080fd5b50604051620018a7380380620018a7833981016040819052620000349162000200565b6200003f3362000112565b600880546001600160a01b03199081166001600160a01b03888116918217909355600980548316888516908117909155600a805484168786161790556007805490931693871693909317909155604080518082019091529182526020820152620000ae90600b90600262000162565b5060008111620001045760405162461bcd60e51b815260206004820152601860248201527f4572726f722c207a65726f20706572696f644f6e654461790000000000000000604482015260640160405180910390fd5b600155506200026792505050565b600080546001600160a01b038381166001600160a01b0319831681178455604051919092169283917f8be0079c531659141344cd1fd0a4f28419497f9722a3daafe3b4186f6b6457e09190a35050565b828054828255906000526020600020908101928215620001ba579160200282015b82811115620001ba57825182546001600160a01b0319166001600160a01b0390911617825560209092019160019091019062000183565b50620001c8929150620001cc565b5090565b5b80821115620001c85760008155600101620001cd565b80516001600160a01b0381168114620001fb57600080fd5b919050565b600080600080600060a086880312156200021957600080fd5b6200022486620001e3565b94506200023460208701620001e3565b93506200024460408701620001e3565b92506200025460608701620001e3565b9150608086015190509295509295909350565b61163080620002776000396000f3fe608060405234801561001057600080fd5b506004361061012c5760003560e01c8063809ee57d116100ad578063ed038f5211610071578063ed038f5214610288578063edad58691461029b578063ede5a416146102bb578063f2fde38b146102ce578063fef10b95146102e157600080fd5b8063809ee57d1461021d5780638da5cb5b14610230578063c152d3f114610241578063ce93a8821461026c578063dec765091461027f57600080fd5b8063523a3f08116100f4578063523a3f08146101d35780635fd66320146101e65780636a188bd7146101ef578063715018a61461020257806374de4ec41461020a57600080fd5b80631e3c5e6c146101315780631edf3c3b1461014657806325d5971f1461018257806339a88f74146101955780634dc2eb0a146101c0575b600080fd5b61014461013f366004611333565b6102ea565b005b61016f6101543660046111aa565b6001600160a01b031660009081526005602052604090205490565b6040519081526020015b60405180910390f35b6101446101903660046112df565b61039e565b6007546101a8906001600160a01b031681565b6040516001600160a01b039091168152602001610179565b600a546101a8906001600160a01b031681565b6101446101e13660046112df565b610421565b61016f60035481565b6101a86101fd3660046112df565b61049d565b6101446104c7565b6101446102183660046112df565b6104db565b61014461022b366004611391565b61050d565b6000546001600160a01b03166101a8565b61016f61024f366004611311565b600091825260066020908152604080842092845291905290205490565b61014461027a36600461135f565b610762565b61016f60015481565b6009546101a8906001600160a01b031681565b6102ae6102a93660046111c5565b610bda565b60405161017991906113d3565b6008546101a8906001600160a01b031681565b6101446102dc3660046111aa565b610d70565b61016f60025481565b6102f2610de9565b6000821161033b5760405162461bcd60e51b81526020600482015260116024820152704572726f722c207a65726f20707269636560781b60448201526064015b60405180910390fd5b600081116103825760405162461bcd60e51b81526020600482015260146024820152734572726f722c207a65726f20737562436c61737360601b6044820152606401610332565b6000928352600660209081526040808520938552929052912055565b6103a6610de9565b8060035410156103f05760405162461bcd60e51b8152602060048201526015602482015274139bdd08195b9bdd59da081cdd185ad9481c1bdbdb605a1b6044820152606401610332565b600854610407906001600160a01b03163383610e43565b80600360008282546104199190611533565b909155505050565b610429610de9565b8060025410156104745760405162461bcd60e51b8152602060048201526016602482015275139bdd08195b9bdd59da081c995dd85c99081c1bdbdb60521b6044820152606401610332565b60085461048b906001600160a01b03163383610e43565b80600260008282546104199190611533565b600b81815481106104ad57600080fd5b6000918252602090912001546001600160a01b0316905081565b6104cf610de9565b6104d96000610eab565b565b6104e3610de9565b6008546104fb906001600160a01b0316333084610efb565b806002600082825461041991906114da565b33600090815260046020908152604080832063ffffffff851684528252918290208251608081018452815465ffffffffffff8082168352600160301b820416938201849052600160601b90046001600160801b0316938101939093526001015460608301526105b05760405162461bcd60e51b815260206004820152600f60248201526e115c9c9bdc881cd95cdcda5bdb9259608a1b6044820152606401610332565b806020015165ffffffffffff1642116106025760405162461bcd60e51b81526020600482015260146024820152734572726f7220756e7374616b696e672074696d6560601b6044820152606401610332565b604081015160095461062a916001600160a01b039091169033906001600160801b0316610e43565b60075460608201516040516323b872dd60e01b815230600482015233602482015260448101919091526001600160a01b03909116906323b872dd90606401600060405180830381600087803b15801561068257600080fd5b505af1158015610696573d6000803e3d6000fd5b50505050336001600160a01b03167ff74c9f1985016ff6aa83c3fd81e31d0be3b194f205ae5e1b57f5bd74ad28e4cf8383604001518460600151600154866000015187602001516106e7919061154a565b65ffffffffffff166106f991906114f2565b6040805163ffffffff90951685526001600160801b03909316602085015291830152606082015260800160405180910390a25033600090815260046020908152604080832063ffffffff909416835292905290812080546001600160e01b031916815560010155565b600084116107a75760405162461bcd60e51b8152602060048201526012602482015271115c9c9bdc8b081e995c9bc8185b5bdd5b9d60721b6044820152606401610332565b600083116107ef5760405162461bcd60e51b81526020600482015260156024820152744572726f722c207a65726f20706572696f6444617960581b6044820152606401610332565b610e428311156108415760405162461bcd60e51b815260206004820152601b60248201527f4572726f722c20706572696f6444617920697320746f6f2062696700000000006044820152606401610332565b600954610859906001600160a01b0316333087610efb565b600a5460405163d06ca61f60e01b81526000916001600160a01b03169063d06ca61f9061088d908890600b9060040161147e565b60006040518083038186803b1580156108a557600080fd5b505afa1580156108b9573d6000803e3d6000fd5b505050506040513d6000823e601f3d908101601f191682016040526108e191908101906111f8565b90506000816001815181106108f8576108f86115ce565b60200260200101519050600061016d86600a8460066109179190611514565b61092191906114f2565b61092b9190611514565b61093591906114f2565b90508060025410156109825760405162461bcd60e51b8152602060048201526016602482015275139bdd08195b9bdd59da081c995dd85c99081c1bdbdb60521b6044820152606401610332565b600085815260066020908152604080832087845290915290205480158015906109ab5750848210155b6109e95760405162461bcd60e51b815260206004820152600f60248201526e4572726f72204e465420707269636560881b6044820152606401610332565b60075460405163c1d942c160e01b8152306004820152602481018390526000916001600160a01b03169063c1d942c190604401602060405180830381600087803b158015610a3657600080fd5b505af1158015610a4a573d6000803e3d6000fd5b505050506040513d601f19601f82011682018060405250810190610a6e91906112f8565b336000908152600560205260408120805492935090610a8c8361159d565b90915550503360009081526005602090815260408083205460048352818420818552909252909120805465ffffffffffff19164265ffffffffffff16178155600154610ad8908b611514565b610ae290426114da565b81546601000000000000600160e01b031916600160301b65ffffffffffff92909216919091026fffffffffffffffffffffffffffffffff60601b191617600160601b6001600160801b038d16021781556001810183905560028054869190600090610b4e908490611533565b925050819055508460036000828254610b6791906114da565b9091555050805460408051848152600160601b9092046001600160801b031660208301528101849052606081018b90526080810186905233907fc6f8dbf1fa0a0918d52df74fa2b529a0a4da7011a24f263a28678e7504444cd69060a00160405180910390a25050505050505050505050565b6001600160a01b0383166000908152600560205260409020546060906001841015610c0457600193505b808411610d6857610c168160016114da565b610c2084866114da565b1115610c3f5783610c328260016114da565b610c3c9190611533565b92505b8267ffffffffffffffff811115610c5857610c586115e4565b604051908082528060200260200182016040528015610caa57816020015b604080516080810182526000808252602080830182905292820181905260608201528252600019909201910181610c765790505b50915060005b83811015610d66576001600160a01b038616600090815260046020526040812090610cdb83886114da565b815260208082019290925260409081016000208151608081018352815465ffffffffffff8082168352600160301b82041694820194909452600160601b9093046001600160801b0316918301919091526001015460608201528351849083908110610d4857610d486115ce565b60200260200101819052508080610d5e9061159d565b915050610cb0565b505b509392505050565b610d78610de9565b6001600160a01b038116610ddd5760405162461bcd60e51b815260206004820152602660248201527f4f776e61626c653a206e6577206f776e657220697320746865207a65726f206160448201526564647265737360d01b6064820152608401610332565b610de681610eab565b50565b6000546001600160a01b031633146104d95760405162461bcd60e51b815260206004820181905260248201527f4f776e61626c653a2063616c6c6572206973206e6f7420746865206f776e65726044820152606401610332565b6040516001600160a01b038316602482015260448101829052610ea690849063a9059cbb60e01b906064015b60408051601f198184030181529190526020810180516001600160e01b03166001600160e01b031990931692909217909152610f39565b505050565b600080546001600160a01b038381166001600160a01b0319831681178455604051919092169283917f8be0079c531659141344cd1fd0a4f28419497f9722a3daafe3b4186f6b6457e09190a35050565b6040516001600160a01b0380851660248301528316604482015260648101829052610f339085906323b872dd60e01b90608401610e6f565b50505050565b6000610f8e826040518060400160405280602081526020017f5361666545524332303a206c6f772d6c6576656c2063616c6c206661696c6564815250856001600160a01b031661100b9092919063ffffffff16565b805190915015610ea65780806020019051810190610fac91906112bd565b610ea65760405162461bcd60e51b815260206004820152602a60248201527f5361666545524332303a204552433230206f7065726174696f6e20646964206e6044820152691bdd081cdd58d8d9595960b21b6064820152608401610332565b606061101a8484600085611024565b90505b9392505050565b6060824710156110855760405162461bcd60e51b815260206004820152602660248201527f416464726573733a20696e73756666696369656e742062616c616e636520666f6044820152651c8818d85b1b60d21b6064820152608401610332565b6001600160a01b0385163b6110dc5760405162461bcd60e51b815260206004820152601d60248201527f416464726573733a2063616c6c20746f206e6f6e2d636f6e74726163740000006044820152606401610332565b600080866001600160a01b031685876040516110f891906113b7565b60006040518083038185875af1925050503d8060008114611135576040519150601f19603f3d011682016040523d82523d6000602084013e61113a565b606091505b509150915061114a828286611155565b979650505050505050565b6060831561116457508161101d565b8251156111745782518084602001fd5b8160405162461bcd60e51b8152600401610332919061144b565b80356001600160a01b03811681146111a557600080fd5b919050565b6000602082840312156111bc57600080fd5b61101d8261118e565b6000806000606084860312156111da57600080fd5b6111e38461118e565b95602085013595506040909401359392505050565b6000602080838503121561120b57600080fd5b825167ffffffffffffffff8082111561122357600080fd5b818501915085601f83011261123757600080fd5b815181811115611249576112496115e4565b8060051b604051601f19603f8301168101818110858211171561126e5761126e6115e4565b604052828152858101935084860182860187018a101561128d57600080fd5b600095505b838610156112b0578051855260019590950194938601938601611292565b5098975050505050505050565b6000602082840312156112cf57600080fd5b8151801515811461101d57600080fd5b6000602082840312156112f157600080fd5b5035919050565b60006020828403121561130a57600080fd5b5051919050565b6000806040838503121561132457600080fd5b50508035926020909101359150565b60008060006060848603121561134857600080fd5b505081359360208301359350604090920135919050565b6000806000806080858703121561137557600080fd5b5050823594602084013594506040840135936060013592509050565b6000602082840312156113a357600080fd5b813563ffffffff8116811461101d57600080fd5b600082516113c9818460208701611571565b9190910192915050565b602080825282518282018190526000919060409081850190868401855b8281101561143e578151805165ffffffffffff9081168652878201511687860152858101516001600160801b03168686015260609081015190850152608090930192908501906001016113f0565b5091979650505050505050565b602081526000825180602084015261146a816040850160208701611571565b601f01601f19169190910160400192915050565b60006040820184835260206040818501528185548084526060860191508660005282600020935060005b818110156114cd5784546001600160a01b0316835260019485019492840192016114a8565b5090979650505050505050565b600082198211156114ed576114ed6115b8565b500190565b60008261150f57634e487b7160e01b600052601260045260246000fd5b500490565b600081600019048311821515161561152e5761152e6115b8565b500290565b600082821015611545576115456115b8565b500390565b600065ffffffffffff83811690831681811015611569576115696115b8565b039392505050565b60005b8381101561158c578181015183820152602001611574565b83811115610f335750506000910152565b60006000198214156115b1576115b16115b8565b5060010190565b634e487b7160e01b600052601160045260246000fd5b634e487b7160e01b600052603260045260246000fd5b634e487b7160e01b600052604160045260246000fdfea2646970667358221220e052bbdc8870235916f49603c320ff3fda61cc58dc6d10f8bdfa0a5ac699fc6e64736f6c63430008070033",
  "linkReferences": {},
  "deployedLinkReferences": {}
}